{
  "contractName": "vaccine",
  "abi": [
    {
      "inputs": [],
      "payable": false,
      "stateMutability": "nonpayable",
      "type": "constructor"
    },
    {
      "anonymous": false,
      "inputs": [
        {
          "indexed": false,
          "internalType": "uint256",
          "name": "benificiary_id",
          "type": "uint256"
        },
        {
          "indexed": false,
          "internalType": "bytes32",
          "name": "medical_records",
          "type": "bytes32"
        },
        {
          "indexed": false,
          "internalType": "uint256",
          "name": "medical_center",
          "type": "uint256"
        },
        {
          "indexed": false,
          "internalType": "uint256",
          "name": "vaccine_id_1",
          "type": "uint256"
        },
        {
          "indexed": false,
          "internalType": "uint256",
          "name": "vaccine_id_2",
          "type": "uint256"
        },
        {
          "indexed": false,
          "internalType": "address",
          "name": "medical_reprentative",
          "type": "address"
        },
        {
          "indexed": false,
          "internalType": "enum vaccine.stages",
          "name": "status",
          "type": "uint8"
        }
      ],
      "name": "_benificiary",
      "type": "event"
    },
    {
      "anonymous": false,
      "inputs": [
        {
          "indexed": false,
          "internalType": "uint256",
          "name": "stateid",
          "type": "uint256"
        },
        {
          "indexed": false,
          "internalType": "uint256",
          "name": "id",
          "type": "uint256"
        },
        {
          "indexed": false,
          "internalType": "string",
          "name": "name",
          "type": "string"
        },
        {
          "indexed": false,
          "internalType": "address",
          "name": "add",
          "type": "address"
        },
        {
          "indexed": false,
          "internalType": "uint256",
          "name": "allocation",
          "type": "uint256"
        }
      ],
      "name": "_district",
      "type": "event"
    },
    {
      "anonymous": false,
      "inputs": [
        {
          "indexed": false,
          "internalType": "uint256",
          "name": "company_id",
          "type": "uint256"
        },
        {
          "indexed": false,
          "internalType": "address",
          "name": "manager_add",
          "type": "address"
        }
      ],
      "name": "_manager",
      "type": "event"
    },
    {
      "anonymous": false,
      "inputs": [
        {
          "indexed": false,
          "internalType": "uint256",
          "name": "center_id",
          "type": "uint256"
        },
        {
          "indexed": false,
          "internalType": "address",
          "name": "medical_representative",
          "type": "address"
        }
      ],
      "name": "_medical_center",
      "type": "event"
    },
    {
      "anonymous": false,
      "inputs": [
        {
          "indexed": false,
          "internalType": "uint256",
          "name": "id",
          "type": "uint256"
        },
        {
          "indexed": false,
          "internalType": "string",
          "name": "name",
          "type": "string"
        },
        {
          "indexed": false,
          "internalType": "address",
          "name": "state_add",
          "type": "address"
        },
        {
          "indexed": false,
          "internalType": "uint256",
          "name": "allocation",
          "type": "uint256"
        }
      ],
      "name": "_state",
      "type": "event"
    },
    {
      "anonymous": false,
      "inputs": [
        {
          "indexed": false,
          "internalType": "uint256",
          "name": "id",
          "type": "uint256"
        },
        {
          "indexed": false,
          "internalType": "uint256",
          "name": "batch",
          "type": "uint256"
        },
        {
          "indexed": false,
          "internalType": "uint256",
          "name": "company_id",
          "type": "uint256"
        },
        {
          "indexed": false,
          "internalType": "uint256",
          "name": "manunfactured_date",
          "type": "uint256"
        },
        {
          "indexed": false,
          "internalType": "uint256",
          "name": "temp_min",
          "type": "uint256"
        },
        {
          "indexed": false,
          "internalType": "uint256",
          "name": "temp_max",
          "type": "uint256"
        },
        {
          "indexed": false,
          "internalType": "bool",
          "name": "valid",
          "type": "bool"
        }
      ],
      "name": "_vaccine",
      "type": "event"
    },
    {
      "anonymous": false,
      "inputs": [
        {
          "indexed": false,
          "internalType": "string",
          "name": "name",
          "type": "string"
        },
        {
          "indexed": false,
          "internalType": "uint256",
          "name": "company_id",
          "type": "uint256"
        },
        {
          "indexed": false,
          "internalType": "uint256",
          "name": "valid_days",
          "type": "uint256"
        },
        {
          "indexed": false,
          "internalType": "uint256",
          "name": "temp_min",
          "type": "uint256"
        },
        {
          "indexed": false,
          "internalType": "uint256",
          "name": "temp_max",
          "type": "uint256"
        },
        {
          "indexed": false,
          "internalType": "address",
          "name": "company_add",
          "type": "address"
        }
      ],
      "name": "_vaccine_type",
      "type": "event"
    },
    {
      "constant": true,
      "inputs": [
        {
          "internalType": "bytes32",
          "name": "",
          "type": "bytes32"
        }
      ],
      "name": "_benificiaries",
      "outputs": [
        {
          "internalType": "uint256",
          "name": "benificiary_id",
          "type": "uint256"
        },
        {
          "internalType": "bytes32",
          "name": "medical_records",
          "type": "bytes32"
        },
        {
          "internalType": "uint256",
          "name": "medical_center",
          "type": "uint256"
        },
        {
          "internalType": "uint256",
          "name": "vaccine_id_1",
          "type": "uint256"
        },
        {
          "internalType": "uint256",
          "name": "vaccine_id_2",
          "type": "uint256"
        },
        {
          "internalType": "address",
          "name": "medical_reprentative",
          "type": "address"
        },
        {
          "internalType": "enum vaccine.stages",
          "name": "status",
          "type": "uint8"
        }
      ],
      "payable": false,
      "stateMutability": "view",
      "type": "function"
    },
    {
      "constant": true,
      "inputs": [
        {
          "internalType": "address",
          "name": "",
          "type": "address"
        }
      ],
      "name": "_managers",
      "outputs": [
        {
          "internalType": "uint256",
          "name": "company_id",
          "type": "uint256"
        },
        {
          "internalType": "address",
          "name": "manager_add",
          "type": "address"
        }
      ],
      "payable": false,
      "stateMutability": "view",
      "type": "function"
    },
    {
      "constant": true,
      "inputs": [
        {
          "internalType": "address",
          "name": "",
          "type": "address"
        }
      ],
      "name": "_medical_representatives",
      "outputs": [
        {
          "internalType": "uint256",
          "name": "center_id",
          "type": "uint256"
        },
        {
          "internalType": "address",
          "name": "medical_representative",
          "type": "address"
        }
      ],
      "payable": false,
      "stateMutability": "view",
      "type": "function"
    },
    {
      "constant": true,
      "inputs": [],
      "name": "_owner",
      "outputs": [
        {
          "internalType": "address",
          "name": "",
          "type": "address"
        }
      ],
      "payable": false,
      "stateMutability": "view",
      "type": "function"
    },
    {
      "constant": true,
      "inputs": [
        {
          "internalType": "uint256",
          "name": "",
          "type": "uint256"
        }
      ],
      "name": "_vaccine_types",
      "outputs": [
        {
          "internalType": "string",
          "name": "name",
          "type": "string"
        },
        {
          "internalType": "uint256",
          "name": "company_id",
          "type": "uint256"
        },
        {
          "internalType": "uint256",
          "name": "valid_days",
          "type": "uint256"
        },
        {
          "internalType": "uint256",
          "name": "temp_min",
          "type": "uint256"
        },
        {
          "internalType": "uint256",
          "name": "temp_max",
          "type": "uint256"
        },
        {
          "internalType": "address",
          "name": "company_add",
          "type": "address"
        }
      ],
      "payable": false,
      "stateMutability": "view",
      "type": "function"
    },
    {
      "constant": true,
      "inputs": [
        {
          "internalType": "uint256",
          "name": "",
          "type": "uint256"
        }
      ],
      "name": "_vaccines",
      "outputs": [
        {
          "internalType": "uint256",
          "name": "id",
          "type": "uint256"
        },
        {
          "internalType": "uint256",
          "name": "batch",
          "type": "uint256"
        },
        {
          "internalType": "uint256",
          "name": "company_id",
          "type": "uint256"
        },
        {
          "internalType": "uint256",
          "name": "manunfactured_date",
          "type": "uint256"
        },
        {
          "internalType": "uint256",
          "name": "temp_min",
          "type": "uint256"
        },
        {
          "internalType": "uint256",
          "name": "temp_max",
          "type": "uint256"
        },
        {
          "internalType": "bool",
          "name": "valid",
          "type": "bool"
        }
      ],
      "payable": false,
      "stateMutability": "view",
      "type": "function"
    },
    {
      "constant": true,
      "inputs": [],
      "name": "center_counts",
      "outputs": [
        {
          "internalType": "uint256",
          "name": "",
          "type": "uint256"
        }
      ],
      "payable": false,
      "stateMutability": "view",
      "type": "function"
    },
    {
      "constant": true,
      "inputs": [
        {
          "internalType": "uint256",
          "name": "",
          "type": "uint256"
        }
      ],
      "name": "districtInfo",
      "outputs": [
        {
          "internalType": "uint256",
          "name": "stateid",
          "type": "uint256"
        },
        {
          "internalType": "uint256",
          "name": "id",
          "type": "uint256"
        },
        {
          "internalType": "string",
          "name": "name",
          "type": "string"
        },
        {
          "internalType": "address",
          "name": "add",
          "type": "address"
        },
        {
          "internalType": "uint256",
          "name": "allocation",
          "type": "uint256"
        }
      ],
      "payable": false,
      "stateMutability": "view",
      "type": "function"
    },
    {
      "constant": true,
      "inputs": [],
      "name": "district_count",
      "outputs": [
        {
          "internalType": "uint256",
          "name": "",
          "type": "uint256"
        }
      ],
      "payable": false,
      "stateMutability": "view",
      "type": "function"
    },
    {
      "constant": true,
      "inputs": [
        {
          "internalType": "address",
          "name": "",
          "type": "address"
        }
      ],
      "name": "districts",
      "outputs": [
        {
          "internalType": "uint256",
          "name": "stateid",
          "type": "uint256"
        },
        {
          "internalType": "uint256",
          "name": "id",
          "type": "uint256"
        },
        {
          "internalType": "string",
          "name": "name",
          "type": "string"
        },
        {
          "internalType": "address",
          "name": "add",
          "type": "address"
        },
        {
          "internalType": "uint256",
          "name": "allocation",
          "type": "uint256"
        }
      ],
      "payable": false,
      "stateMutability": "view",
      "type": "function"
    },
    {
      "constant": true,
      "inputs": [
        {
          "internalType": "uint256",
          "name": "",
          "type": "uint256"
        }
      ],
      "name": "orders",
      "outputs": [
        {
          "internalType": "uint256",
          "name": "company_id",
          "type": "uint256"
        },
        {
          "internalType": "uint256",
          "name": "date",
          "type": "uint256"
        },
        {
          "internalType": "uint256",
          "name": "allotment",
          "type": "uint256"
        }
      ],
      "payable": false,
      "stateMutability": "view",
      "type": "function"
    },
    {
      "constant": true,
      "inputs": [
        {
          "internalType": "uint256",
          "name": "",
          "type": "uint256"
        }
      ],
      "name": "stateInfo",
      "outputs": [
        {
          "internalType": "uint256",
          "name": "id",
          "type": "uint256"
        },
        {
          "internalType": "string",
          "name": "name",
          "type": "string"
        },
        {
          "internalType": "address",
          "name": "state_add",
          "type": "address"
        },
        {
          "internalType": "uint256",
          "name": "allocation",
          "type": "uint256"
        }
      ],
      "payable": false,
      "stateMutability": "view",
      "type": "function"
    },
    {
      "constant": true,
      "inputs": [
        {
          "internalType": "address",
          "name": "",
          "type": "address"
        }
      ],
      "name": "states",
      "outputs": [
        {
          "internalType": "uint256",
          "name": "id",
          "type": "uint256"
        },
        {
          "internalType": "string",
          "name": "name",
          "type": "string"
        },
        {
          "internalType": "address",
          "name": "state_add",
          "type": "address"
        },
        {
          "internalType": "uint256",
          "name": "allocation",
          "type": "uint256"
        }
      ],
      "payable": false,
      "stateMutability": "view",
      "type": "function"
    },
    {
      "constant": true,
      "inputs": [],
      "name": "states_count",
      "outputs": [
        {
          "internalType": "uint256",
          "name": "",
          "type": "uint256"
        }
      ],
      "payable": false,
      "stateMutability": "view",
      "type": "function"
    },
    {
      "constant": true,
      "inputs": [],
      "name": "total_registration",
      "outputs": [
        {
          "internalType": "uint256",
          "name": "",
          "type": "uint256"
        }
      ],
      "payable": false,
      "stateMutability": "view",
      "type": "function"
    },
    {
      "constant": true,
      "inputs": [],
      "name": "types_counts",
      "outputs": [
        {
          "internalType": "uint256",
          "name": "",
          "type": "uint256"
        }
      ],
      "payable": false,
      "stateMutability": "view",
      "type": "function"
    },
    {
      "constant": true,
      "inputs": [
        {
          "internalType": "uint256",
          "name": "",
          "type": "uint256"
        }
      ],
      "name": "vaccinesInfo",
      "outputs": [
        {
          "internalType": "string",
          "name": "name",
          "type": "string"
        },
        {
          "internalType": "uint256",
          "name": "company_id",
          "type": "uint256"
        },
        {
          "internalType": "uint256",
          "name": "valid_days",
          "type": "uint256"
        },
        {
          "internalType": "uint256",
          "name": "temp_min",
          "type": "uint256"
        },
        {
          "internalType": "uint256",
          "name": "temp_max",
          "type": "uint256"
        },
        {
          "internalType": "address",
          "name": "company_add",
          "type": "address"
        }
      ],
      "payable": false,
      "stateMutability": "view",
      "type": "function"
    },
    {
      "constant": true,
      "inputs": [],
      "name": "vaccines_counts",
      "outputs": [
        {
          "internalType": "uint256",
          "name": "",
          "type": "uint256"
        }
      ],
      "payable": false,
      "stateMutability": "view",
      "type": "function"
    },
    {
      "constant": false,
      "inputs": [
        {
          "internalType": "address",
          "name": "benificiary_add",
          "type": "address"
        }
      ],
      "name": "transferOwnership",
      "outputs": [],
      "payable": false,
      "stateMutability": "nonpayable",
      "type": "function"
    },
    {
      "constant": true,
      "inputs": [],
      "name": "View_Owner",
      "outputs": [
        {
          "internalType": "address",
          "name": "",
          "type": "address"
        }
      ],
      "payable": false,
      "stateMutability": "view",
      "type": "function"
    },
    {
      "constant": true,
      "inputs": [],
      "name": "View_types_Count",
      "outputs": [
        {
          "internalType": "uint256",
          "name": "",
          "type": "uint256"
        }
      ],
      "payable": false,
      "stateMutability": "view",
      "type": "function"
    },
    {
      "constant": false,
      "inputs": [
        {
          "internalType": "string",
          "name": "name",
          "type": "string"
        },
        {
          "internalType": "address",
          "name": "state_add",
          "type": "address"
        }
      ],
      "name": "register_state",
      "outputs": [],
      "payable": false,
      "stateMutability": "nonpayable",
      "type": "function"
    },
    {
      "constant": false,
      "inputs": [
        {
          "internalType": "uint256",
          "name": "state_id",
          "type": "uint256"
        },
        {
          "internalType": "uint256",
          "name": "newOrder",
          "type": "uint256"
        }
      ],
      "name": "update_state",
      "outputs": [],
      "payable": false,
      "stateMutability": "nonpayable",
      "type": "function"
    },
    {
      "constant": false,
      "inputs": [
        {
          "internalType": "uint256",
          "name": "company_id",
          "type": "uint256"
        },
        {
          "internalType": "uint256",
          "name": "newOrder",
          "type": "uint256"
        }
      ],
      "name": "place_order",
      "outputs": [],
      "payable": false,
      "stateMutability": "nonpayable",
      "type": "function"
    },
    {
      "constant": false,
      "inputs": [
        {
          "internalType": "string",
          "name": "name",
          "type": "string"
        },
        {
          "internalType": "address",
          "name": "district_add",
          "type": "address"
        }
      ],
      "name": "register_district",
      "outputs": [],
      "payable": false,
      "stateMutability": "nonpayable",
      "type": "function"
    },
    {
      "constant": false,
      "inputs": [
        {
          "internalType": "uint256",
          "name": "district_id",
          "type": "uint256"
        },
        {
          "internalType": "uint256",
          "name": "newOrder",
          "type": "uint256"
        }
      ],
      "name": "update_district_allocation",
      "outputs": [],
      "payable": false,
      "stateMutability": "nonpayable",
      "type": "function"
    },
    {
      "constant": true,
      "inputs": [],
      "name": "getAllStatesInfo",
      "outputs": [
        {
          "components": [
            {
              "internalType": "uint256",
              "name": "id",
              "type": "uint256"
            },
            {
              "internalType": "string",
              "name": "name",
              "type": "string"
            },
            {
              "internalType": "address",
              "name": "state_add",
              "type": "address"
            },
            {
              "internalType": "uint256",
              "name": "allocation",
              "type": "uint256"
            }
          ],
          "internalType": "struct vaccine.state[]",
          "name": "",
          "type": "tuple[]"
        }
      ],
      "payable": false,
      "stateMutability": "view",
      "type": "function"
    },
    {
      "constant": true,
      "inputs": [],
      "name": "getAllvaccineInfo",
      "outputs": [
        {
          "components": [
            {
              "internalType": "string",
              "name": "name",
              "type": "string"
            },
            {
              "internalType": "uint256",
              "name": "company_id",
              "type": "uint256"
            },
            {
              "internalType": "uint256",
              "name": "valid_days",
              "type": "uint256"
            },
            {
              "internalType": "uint256",
              "name": "temp_min",
              "type": "uint256"
            },
            {
              "internalType": "uint256",
              "name": "temp_max",
              "type": "uint256"
            },
            {
              "internalType": "address",
              "name": "company_add",
              "type": "address"
            }
          ],
          "internalType": "struct vaccine.vaccine_type[]",
          "name": "",
          "type": "tuple[]"
        }
      ],
      "payable": false,
      "stateMutability": "view",
      "type": "function"
    },
    {
      "constant": true,
      "inputs": [],
      "name": "getAllDistrictInfo",
      "outputs": [
        {
          "components": [
            {
              "internalType": "uint256",
              "name": "stateid",
              "type": "uint256"
            },
            {
              "internalType": "uint256",
              "name": "id",
              "type": "uint256"
            },
            {
              "internalType": "string",
              "name": "name",
              "type": "string"
            },
            {
              "internalType": "address",
              "name": "add",
              "type": "address"
            },
            {
              "internalType": "uint256",
              "name": "allocation",
              "type": "uint256"
            }
          ],
          "internalType": "struct vaccine.district[]",
          "name": "",
          "type": "tuple[]"
        }
      ],
      "payable": false,
      "stateMutability": "view",
      "type": "function"
    },
    {
      "constant": false,
      "inputs": [
        {
          "internalType": "uint256",
          "name": "period",
          "type": "uint256"
        },
        {
          "internalType": "uint256",
          "name": "temp_min",
          "type": "uint256"
        },
        {
          "internalType": "uint256",
          "name": "temp_max",
          "type": "uint256"
        },
        {
          "internalType": "string",
          "name": "name",
          "type": "string"
        },
        {
          "internalType": "address",
          "name": "company_add",
          "type": "address"
        }
      ],
      "name": "register_company",
      "outputs": [],
      "payable": false,
      "stateMutability": "nonpayable",
      "type": "function"
    },
    {
      "constant": false,
      "inputs": [
        {
          "internalType": "uint256",
          "name": "company_id",
          "type": "uint256"
        },
        {
          "internalType": "uint256",
          "name": "batch",
          "type": "uint256"
        },
        {
          "internalType": "uint256",
          "name": "time",
          "type": "uint256"
        },
        {
          "internalType": "uint256",
          "name": "cur_temp",
          "type": "uint256"
        }
      ],
      "name": "vaccine_registration",
      "outputs": [],
      "payable": false,
      "stateMutability": "nonpayable",
      "type": "function"
    },
    {
      "constant": false,
      "inputs": [
        {
          "internalType": "bytes32",
          "name": "record_hash",
          "type": "bytes32"
        }
      ],
      "name": "register_benificiary",
      "outputs": [],
      "payable": false,
      "stateMutability": "nonpayable",
      "type": "function"
    },
    {
      "constant": false,
      "inputs": [
        {
          "internalType": "address",
          "name": "representative_add",
          "type": "address"
        }
      ],
      "name": "register_medical_representative",
      "outputs": [],
      "payable": false,
      "stateMutability": "nonpayable",
      "type": "function"
    },
    {
      "constant": false,
      "inputs": [
        {
          "internalType": "bytes32",
          "name": "record_hash",
          "type": "bytes32"
        },
        {
          "internalType": "uint256",
          "name": "vaccine_id",
          "type": "uint256"
        }
      ],
      "name": "vaccinate",
      "outputs": [],
      "payable": false,
      "stateMutability": "nonpayable",
      "type": "function"
    }
  ],
  "bytecode": "0x608060405234801561001057600080fd5b5033600360006101000a81548173ffffffffffffffffffffffffffffffffffffffff021916908373ffffffffffffffffffffffffffffffffffffffff1602179055506000600181905550600080819055506000600281905550600060048190555060006005819055506000600681905550613747806100906000396000f3fe608060405234801561001057600080fd5b50600436106102065760003560e01c806381bf53401161011a578063b2bdfa7b116100ad578063d651d5fe1161007c578063d651d5fe1461061d578063e8ff95381461063b578063f2fde38b14610659578063f40d366014610675578063f4a31a04146106aa57610206565b8063b2bdfa7b1461057c578063c1f064461461059a578063ca176ee9146105d0578063d5d31abe146105ec57610206565b806398e1c2f4116100e957806398e1c2f4146104f25780639a74cc1b1461050e578063a4d348431461052c578063a85c38ef1461054a57610206565b806381bf53401461048057806386675ead1461049c57806391c5500f146104b857806397d9de65146104d657610206565b80633ad05ca21161019d578063744ee9a31161016c578063744ee9a3146103c357806374529683146103e15780637553ad4d146104125780637b01caaf1461042e5780637d9efad41461046457610206565b80633ad05ca2146103385780633b47d335146103565780634f07d5c91461037257806373c033551461039057610206565b80630c96a059116101d95780630c96a059146102c257806311e7df17146102e05780631fcf959b146102fc578063360294ec1461031a57610206565b806302a223371461020b57806307d1b2271461023e57806308124fa1146102725780630b7633791461028e575b600080fd5b61022560048036036102209190810190612992565b6106df565b6040516102359493929190613360565b60405180910390f35b61025860048036036102539190810190612a74565b6107c7565b6040516102699594939291906133ac565b60405180910390f35b61028c60048036036102879190810190612a20565b6108c2565b005b6102a860048036036102a39190810190612992565b610b99565b6040516102b99594939291906133ac565b60405180910390f35b6102ca610c87565b6040516102d791906132ad565b60405180910390f35b6102fa60048036036102f59190810190612a9d565b610c91565b005b610304610d49565b604051610311919061313b565b60405180910390f35b610322610ec8565b60405161032f91906132ad565b60405180910390f35b610340610ece565b60405161034d9190613119565b60405180910390f35b610370600480360361036b91908101906129bb565b611039565b005b61037a611165565b60405161038791906130f7565b60405180910390f35b6103aa60048036036103a59190810190612a74565b6112da565b6040516103ba9493929190613360565b60405180910390f35b6103cb6113cf565b6040516103d891906130dc565b60405180910390f35b6103fb60048036036103f69190810190612992565b6113f9565b6040516104099291906132c8565b60405180910390f35b61042c60048036036104279190810190612b68565b61143d565b005b610448600480360361044391908101906129bb565b6115bd565b60405161045b97969594939291906132f1565b60405180910390f35b61047e60048036036104799190810190612992565b61162c565b005b61049a60048036036104959190810190612a9d565b6117e4565b005b6104b660048036036104b19190810190612ad9565b611932565b005b6104c0611d3c565b6040516104cd91906132ad565b60405180910390f35b6104f060048036036104eb91908101906129e4565b611d42565b005b61050c60048036036105079190810190612a20565b611f8a565b005b6105166122c1565b60405161052391906132ad565b60405180910390f35b6105346122c7565b60405161054191906132ad565b60405180910390f35b610564600480360361055f9190810190612a74565b6122cd565b60405161057393929190613406565b60405180910390f35b6105846122f7565b60405161059191906130dc565b60405180910390f35b6105b460048036036105af9190810190612a74565b61231d565b6040516105c7979695949392919061343d565b60405180910390f35b6105ea60048036036105e59190810190612a9d565b61236c565b005b61060660048036036106019190810190612992565b6124ba565b6040516106149291906132c8565b60405180910390f35b6106256124fe565b60405161063291906132ad565b60405180910390f35b610643612504565b60405161065091906132ad565b60405180910390f35b610673600480360361066e9190810190612992565b61250a565b005b61068f600480360361068a9190810190612a74565b6125de565b6040516106a1969594939291906131c5565b60405180910390f35b6106c460048036036106bf9190810190612a74565b6126df565b6040516106d6969594939291906131c5565b60405180910390f35b600c602052806000526040600020600091509050806000015490806001018054600181600116156101000203166002900480601f0160208091040260200160405190810160405280929190818152602001828054600181600116156101000203166002900480156107915780601f1061076657610100808354040283529160200191610791565b820191906000526020600020905b81548152906001019060200180831161077457829003601f168201915b5050505050908060020160009054906101000a900473ffffffffffffffffffffffffffffffffffffffff16908060030154905084565b601481815481106107d457fe5b9060005260206000209060050201600091509050806000015490806001015490806002018054600181600116156101000203166002900480601f01602080910402602001604051908101604052809291908181526020018280546001816001161561010002031660029004801561088c5780601f106108615761010080835404028352916020019161088c565b820191906000526020600020905b81548152906001019060200180831161086f57829003601f168201915b5050505050908060030160009054906101000a900473ffffffffffffffffffffffffffffffffffffffff16908060040154905085565b600360009054906101000a900473ffffffffffffffffffffffffffffffffffffffff1673ffffffffffffffffffffffffffffffffffffffff163373ffffffffffffffffffffffffffffffffffffffff1614610952576040517f08c379a00000000000000000000000000000000000000000000000000000000081526004016109499061322d565b60405180910390fd5b60055460106000018190555081601060010190805190602001906109779291906127d3565b5080601060020160006101000a81548173ffffffffffffffffffffffffffffffffffffffff021916908373ffffffffffffffffffffffffffffffffffffffff1602179055506000601060030181905550600f6010908060018154018082558091505090600182039060005260206000209060040201600090919290919091506000820154816000015560018201816001019080546001816001161561010002031660029004610a27929190612853565b506002820160009054906101000a900473ffffffffffffffffffffffffffffffffffffffff168160020160006101000a81548173ffffffffffffffffffffffffffffffffffffffff021916908373ffffffffffffffffffffffffffffffffffffffff160217905550600382015481600301555050506010600c60008373ffffffffffffffffffffffffffffffffffffffff1673ffffffffffffffffffffffffffffffffffffffff1681526020019081526020016000206000820154816000015560018201816001019080546001816001161561010002031660029004610b0e929190612853565b506002820160009054906101000a900473ffffffffffffffffffffffffffffffffffffffff168160020160006101000a81548173ffffffffffffffffffffffffffffffffffffffff021916908373ffffffffffffffffffffffffffffffffffffffff160217905550600382015481600301559050506005600081548092919060010191905055505050565b600d602052806000526040600020600091509050806000015490806001015490806002018054600181600116156101000203166002900480601f016020809104026020016040519081016040528092919081815260200182805460018160011615610100020316600290048015610c515780601f10610c2657610100808354040283529160200191610c51565b820191906000526020600020905b815481529060010190602001808311610c3457829003601f168201915b5050505050908060030160009054906101000a900473ffffffffffffffffffffffffffffffffffffffff16908060040154905085565b6000600254905090565b600360009054906101000a900473ffffffffffffffffffffffffffffffffffffffff1673ffffffffffffffffffffffffffffffffffffffff163373ffffffffffffffffffffffffffffffffffffffff1614610d21576040517f08c379a0000000000000000000000000000000000000000000000000000000008152600401610d189061322d565b60405180910390fd5b80600e6000848152602001908152602001600020600201600082825401925050819055505050565b6060601a805480602002602001604051908101604052809291908181526020016000905b82821015610ebf57838290600052602060002090600602016040518060c0016040529081600082018054600181600116156101000203166002900480601f016020809104026020016040519081016040528092919081815260200182805460018160011615610100020316600290048015610e295780601f10610dfe57610100808354040283529160200191610e29565b820191906000526020600020905b815481529060010190602001808311610e0c57829003601f168201915b50505050508152602001600182015481526020016002820154815260200160038201548152602001600482015481526020016005820160009054906101000a900473ffffffffffffffffffffffffffffffffffffffff1673ffffffffffffffffffffffffffffffffffffffff1673ffffffffffffffffffffffffffffffffffffffff168152505081526020019060010190610d6d565b50505050905090565b60015481565b6060600f805480602002602001604051908101604052809291908181526020016000905b82821015611030578382906000526020600020906004020160405180608001604052908160008201548152602001600182018054600181600116156101000203166002900480601f016020809104026020016040519081016040528092919081815260200182805460018160011615610100020316600290048015610fb85780601f10610f8d57610100808354040283529160200191610fb8565b820191906000526020600020905b815481529060010190602001808311610f9b57829003601f168201915b505050505081526020016002820160009054906101000a900473ffffffffffffffffffffffffffffffffffffffff1673ffffffffffffffffffffffffffffffffffffffff1673ffffffffffffffffffffffffffffffffffffffff16815260200160038201548152505081526020019060010190610ef2565b50505050905090565b6000602060ff161161104a57600080fd5b60008081548092919060010191905055506000546007600083815260200190815260200160002060000181905550336007600083815260200190815260200160002060050160006101000a81548173ffffffffffffffffffffffffffffffffffffffff021916908373ffffffffffffffffffffffffffffffffffffffff160217905550600860003373ffffffffffffffffffffffffffffffffffffffff1673ffffffffffffffffffffffffffffffffffffffff168152602001908152602001600020600001546007600083815260200190815260200160002060020181905550600060076000838152602001908152602001600020600301819055506000600760008381526020019081526020016000206004018190555050565b60606014805480602002602001604051908101604052809291908181526020016000905b828210156112d157838290600052602060002090600502016040518060a00160405290816000820154815260200160018201548152602001600282018054600181600116156101000203166002900480601f0160208091040260200160405190810160405280929190818152602001828054600181600116156101000203166002900480156112595780601f1061122e57610100808354040283529160200191611259565b820191906000526020600020905b81548152906001019060200180831161123c57829003601f168201915b505050505081526020016003820160009054906101000a900473ffffffffffffffffffffffffffffffffffffffff1673ffffffffffffffffffffffffffffffffffffffff1673ffffffffffffffffffffffffffffffffffffffff16815260200160048201548152505081526020019060010190611189565b50505050905090565b600f81815481106112e757fe5b9060005260206000209060040201600091509050806000015490806001018054600181600116156101000203166002900480601f0160208091040260200160405190810160405280929190818152602001828054600181600116156101000203166002900480156113995780601f1061136e57610100808354040283529160200191611399565b820191906000526020600020905b81548152906001019060200180831161137c57829003601f168201915b5050505050908060020160009054906101000a900473ffffffffffffffffffffffffffffffffffffffff16908060030154905084565b6000600360009054906101000a900473ffffffffffffffffffffffffffffffffffffffff16905090565b60086020528060005260406000206000915090508060000154908060010160009054906101000a900473ffffffffffffffffffffffffffffffffffffffff16905082565b3373ffffffffffffffffffffffffffffffffffffffff166009600086815260200190815260200160002060050160009054906101000a900473ffffffffffffffffffffffffffffffffffffffff1673ffffffffffffffffffffffffffffffffffffffff16146114e1576040517f08c379a00000000000000000000000000000000000000000000000000000000081526004016114d89061328d565b60405180910390fd5b600460008154809291906001019190505550600454600a600060045481526020019081526020016000206000018190555082600a600060045481526020019081526020016000206001018190555081600a60006004548152602001908152602001600020600301819055506001600a6000600454815260200190815260200160002060060160006101000a81548160ff02191690831515021790555080600a600060045481526020019081526020016000206004018190555080600a600060045481526020019081526020016000206005018190555050505050565b60076020528060005260406000206000915090508060000154908060010154908060020154908060030154908060040154908060050160009054906101000a900473ffffffffffffffffffffffffffffffffffffffff16908060050160149054906101000a900460ff16905087565b600360009054906101000a900473ffffffffffffffffffffffffffffffffffffffff1673ffffffffffffffffffffffffffffffffffffffff163373ffffffffffffffffffffffffffffffffffffffff16146116bc576040517f08c379a00000000000000000000000000000000000000000000000000000000081526004016116b39061322d565b60405180910390fd5b600160008154809291906001019190505550600154600860008373ffffffffffffffffffffffffffffffffffffffff1673ffffffffffffffffffffffffffffffffffffffff1681526020019081526020016000206000018190555080600860008373ffffffffffffffffffffffffffffffffffffffff1673ffffffffffffffffffffffffffffffffffffffff16815260200190815260200160002060010160006101000a81548173ffffffffffffffffffffffffffffffffffffffff021916908373ffffffffffffffffffffffffffffffffffffffff1602179055507f23777a11fce19225f5430bfc9ad888a482375ec19fe7b1c8da227fad59eec3666001600081548092919060010191905055826040516117d99291906132c8565b60405180910390a150565b600360009054906101000a900473ffffffffffffffffffffffffffffffffffffffff1673ffffffffffffffffffffffffffffffffffffffff163373ffffffffffffffffffffffffffffffffffffffff1614611874576040517f08c379a000000000000000000000000000000000000000000000000000000000815260040161186b9061322d565b60405180910390fd5b80600f838154811061188257fe5b90600052602060002090600402016003016000828254019250508190555080600c6000600f85815481106118b257fe5b906000526020600020906004020160020160009054906101000a900473ffffffffffffffffffffffffffffffffffffffff1673ffffffffffffffffffffffffffffffffffffffff1673ffffffffffffffffffffffffffffffffffffffff168152602001908152602001600020600301600082825401925050819055505050565b600360009054906101000a900473ffffffffffffffffffffffffffffffffffffffff1673ffffffffffffffffffffffffffffffffffffffff163373ffffffffffffffffffffffffffffffffffffffff16146119c2576040517f08c379a00000000000000000000000000000000000000000000000000000000081526004016119b99061322d565b60405180910390fd5b60026000815480929190600101919050555081601b60000190805190602001906119ed9291906127d3565b50600254601b6001018190555082601b6004018190555083601b6003018190555084601b6002018190555080601b60050160006101000a81548173ffffffffffffffffffffffffffffffffffffffff021916908373ffffffffffffffffffffffffffffffffffffffff160217905550601b60096000600254815260200190815260200160002060008201816000019080546001816001161561010002031660029004611a9a929190612853565b50600182015481600101556002820154816002015560038201548160030155600482015481600401556005820160009054906101000a900473ffffffffffffffffffffffffffffffffffffffff168160050160006101000a81548173ffffffffffffffffffffffffffffffffffffffff021916908373ffffffffffffffffffffffffffffffffffffffff160217905550905050601a601b9080600181540180825580915050906001820390600052602060002090600602016000909192909190915060008201816000019080546001816001161561010002031660029004611b83929190612853565b50600182015481600101556002820154816002015560038201548160030155600482015481600401556005820160009054906101000a900473ffffffffffffffffffffffffffffffffffffffff168160050160006101000a81548173ffffffffffffffffffffffffffffffffffffffff021916908373ffffffffffffffffffffffffffffffffffffffff160217905550505050600254600b60008373ffffffffffffffffffffffffffffffffffffffff1673ffffffffffffffffffffffffffffffffffffffff1681526020019081526020016000206000018190555080600b60008373ffffffffffffffffffffffffffffffffffffffff1673ffffffffffffffffffffffffffffffffffffffff16815260200190815260200160002060010160006101000a81548173ffffffffffffffffffffffffffffffffffffffff021916908373ffffffffffffffffffffffffffffffffffffffff1602179055507ff85f64e777f733197135d845dd7389f9072b8949f4d6365db8eb8bb793448fe48260025487878786604051611d1b9695949392919061315d565b60405180910390a16002600081548092919060010191905055505050505050565b60065481565b60096000600a600084815260200190815260200160002060020154815260200190815260200160002060030154600a60008381526020019081526020016000206004015411611dc6576040517f08c379a0000000000000000000000000000000000000000000000000000000008152600401611dbd9061326d565b60405180910390fd5b60096000600a600084815260200190815260200160002060020154815260200190815260200160002060040154600a60008381526020019081526020016000206005015410611e4a576040517f08c379a0000000000000000000000000000000000000000000000000000000008152600401611e419061324d565b60405180910390fd5b600a600082815260200190815260200160002060060160009054906101000a900460ff16611e7757600080fd5b60006003811115611e8457fe5b6003811115611e8f57fe5b6007600084815260200190815260200160002060050160149054906101000a900460ff166003811115611ebe57fe5b1415611f275780600760008481526020019081526020016000206003018190555060016003811115611eec57fe5b6007600084815260200190815260200160002060050160146101000a81548160ff02191690836003811115611f1d57fe5b0217905550611f86565b80600760008481526020019081526020016000206004018190555060026003811115611f4f57fe5b6007600084815260200190815260200160002060050160146101000a81548160ff02191690836003811115611f8057fe5b02179055505b5050565b600360009054906101000a900473ffffffffffffffffffffffffffffffffffffffff1673ffffffffffffffffffffffffffffffffffffffff163373ffffffffffffffffffffffffffffffffffffffff161461201a576040517f08c379a00000000000000000000000000000000000000000000000000000000081526004016120119061322d565b60405180910390fd5b600c60003373ffffffffffffffffffffffffffffffffffffffff1673ffffffffffffffffffffffffffffffffffffffff16815260200190815260200160002060000154601560000181905550600654601560010181905550816015600201908051906020019061208b9291906127d3565b5080601560030160006101000a81548173ffffffffffffffffffffffffffffffffffffffff021916908373ffffffffffffffffffffffffffffffffffffffff16021790555060006015600401819055506014601590806001815401808255809150509060018203906000526020600020906005020160009091929091909150600082015481600001556001820154816001015560028201816002019080546001816001161561010002031660029004612145929190612853565b506003820160009054906101000a900473ffffffffffffffffffffffffffffffffffffffff168160030160006101000a81548173ffffffffffffffffffffffffffffffffffffffff021916908373ffffffffffffffffffffffffffffffffffffffff160217905550600482015481600401555050506015600d60008373ffffffffffffffffffffffffffffffffffffffff1673ffffffffffffffffffffffffffffffffffffffff168152602001908152602001600020600082015481600001556001820154816001015560028201816002019080546001816001161561010002031660029004612236929190612853565b506003820160009054906101000a900473ffffffffffffffffffffffffffffffffffffffff168160030160006101000a81548173ffffffffffffffffffffffffffffffffffffffff021916908373ffffffffffffffffffffffffffffffffffffffff160217905550600482015481600401559050506006600081548092919060010191905055505050565b60045481565b60055481565b600e6020528060005260406000206000915090508060000154908060010154908060020154905083565b600360009054906101000a900473ffffffffffffffffffffffffffffffffffffffff1681565b600a6020528060005260406000206000915090508060000154908060010154908060020154908060030154908060040154908060050154908060060160009054906101000a900460ff16905087565b600360009054906101000a900473ffffffffffffffffffffffffffffffffffffffff1673ffffffffffffffffffffffffffffffffffffffff163373ffffffffffffffffffffffffffffffffffffffff16146123fc576040517f08c379a00000000000000000000000000000000000000000000000000000000081526004016123f39061322d565b60405180910390fd5b806014838154811061240a57fe5b90600052602060002090600502016004016000828254019250508190555080600d60006014858154811061243a57fe5b906000526020600020906005020160030160009054906101000a900473ffffffffffffffffffffffffffffffffffffffff1673ffffffffffffffffffffffffffffffffffffffff1673ffffffffffffffffffffffffffffffffffffffff168152602001908152602001600020600401600082825401925050819055505050565b600b6020528060005260406000206000915090508060000154908060010160009054906101000a900473ffffffffffffffffffffffffffffffffffffffff16905082565b60025481565b60005481565b600360009054906101000a900473ffffffffffffffffffffffffffffffffffffffff1673ffffffffffffffffffffffffffffffffffffffff163373ffffffffffffffffffffffffffffffffffffffff161461259a576040517f08c379a00000000000000000000000000000000000000000000000000000000081526004016125919061322d565b60405180910390fd5b80600360006101000a81548173ffffffffffffffffffffffffffffffffffffffff021916908373ffffffffffffffffffffffffffffffffffffffff16021790555050565b601a81815481106125eb57fe5b9060005260206000209060060201600091509050806000018054600181600116156101000203166002900480601f0160208091040260200160405190810160405280929190818152602001828054600181600116156101000203166002900480156126975780601f1061266c57610100808354040283529160200191612697565b820191906000526020600020905b81548152906001019060200180831161267a57829003601f168201915b5050505050908060010154908060020154908060030154908060040154908060050160009054906101000a900473ffffffffffffffffffffffffffffffffffffffff16905086565b6009602052806000526040600020600091509050806000018054600181600116156101000203166002900480601f01602080910402602001604051908101604052809291908181526020018280546001816001161561010002031660029004801561278b5780601f106127605761010080835404028352916020019161278b565b820191906000526020600020905b81548152906001019060200180831161276e57829003601f168201915b5050505050908060010154908060020154908060030154908060040154908060050160009054906101000a900473ffffffffffffffffffffffffffffffffffffffff16905086565b828054600181600116156101000203166002900490600052602060002090601f016020900481019282601f1061281457805160ff1916838001178555612842565b82800160010185558215612842579182015b82811115612841578251825591602001919060010190612826565b5b50905061284f91906128da565b5090565b828054600181600116156101000203166002900490600052602060002090601f016020900481019282601f1061288c57805485556128c9565b828001600101855582156128c957600052602060002091601f016020900482015b828111156128c85782548255916001019190600101906128ad565b5b5090506128d691906128da565b5090565b6128fc91905b808211156128f85760008160009055506001016128e0565b5090565b90565b60008135905061290e816136bf565b92915050565b600081359050612923816136d6565b92915050565b600082601f83011261293a57600080fd5b813561294d612948826134d9565b6134ac565b9150808252602083016020830185838301111561296957600080fd5b61297483828461365f565b50505092915050565b60008135905061298c816136ed565b92915050565b6000602082840312156129a457600080fd5b60006129b2848285016128ff565b91505092915050565b6000602082840312156129cd57600080fd5b60006129db84828501612914565b91505092915050565b600080604083850312156129f757600080fd5b6000612a0585828601612914565b9250506020612a168582860161297d565b9150509250929050565b60008060408385031215612a3357600080fd5b600083013567ffffffffffffffff811115612a4d57600080fd5b612a5985828601612929565b9250506020612a6a858286016128ff565b9150509250929050565b600060208284031215612a8657600080fd5b6000612a948482850161297d565b91505092915050565b60008060408385031215612ab057600080fd5b6000612abe8582860161297d565b9250506020612acf8582860161297d565b9150509250929050565b600080600080600060a08688031215612af157600080fd5b6000612aff8882890161297d565b9550506020612b108882890161297d565b9450506040612b218882890161297d565b935050606086013567ffffffffffffffff811115612b3e57600080fd5b612b4a88828901612929565b9250506080612b5b888289016128ff565b9150509295509295909350565b60008060008060808587031215612b7e57600080fd5b6000612b8c8782880161297d565b9450506020612b9d8782880161297d565b9350506040612bae8782880161297d565b9250506060612bbf8782880161297d565b91505092959194509250565b6000612bd78383612f5c565b905092915050565b6000612beb8383612fd2565b905092915050565b6000612bff8383613035565b905092915050565b612c10816135e8565b82525050565b612c1f816135e8565b82525050565b6000612c3082613535565b612c3a8185613593565b935083602082028501612c4c85613505565b8060005b85811015612c885784840389528151612c698582612bcb565b9450612c748361356c565b925060208a01995050600181019050612c50565b50829750879550505050505092915050565b6000612ca582613540565b612caf81856135a4565b935083602082028501612cc185613515565b8060005b85811015612cfd5784840389528151612cde8582612bdf565b9450612ce983613579565b925060208a01995050600181019050612cc5565b50829750879550505050505092915050565b6000612d1a8261354b565b612d2481856135b5565b935083602082028501612d3685613525565b8060005b85811015612d725784840389528151612d538582612bf3565b9450612d5e83613586565b925060208a01995050600181019050612d3a565b50829750879550505050505092915050565b612d8d816135fa565b82525050565b612d9c81613606565b82525050565b612dab8161364d565b82525050565b6000612dbc82613561565b612dc681856135d7565b9350612dd681856020860161366e565b612ddf816136a1565b840191505092915050565b6000612df582613556565b612dff81856135c6565b9350612e0f81856020860161366e565b612e18816136a1565b840191505092915050565b6000612e2e82613556565b612e3881856135d7565b9350612e4881856020860161366e565b612e51816136a1565b840191505092915050565b6000612e69600e836135d7565b91507f4e6f7420617574686f72697365640000000000000000000000000000000000006000830152602082019050919050565b6000612ea96010836135d7565b91507f696e76616c69642b6d61785f74656d70000000000000000000000000000000006000830152602082019050919050565b6000612ee96010836135d7565b91507f696e76616c69645f6d696e5f74656d70000000000000000000000000000000006000830152602082019050919050565b6000612f29600c836135d7565b91507f696e76616c6964207573657200000000000000000000000000000000000000006000830152602082019050919050565b600060a083016000830151612f7460008601826130be565b506020830151612f8760208601826130be565b5060408301518482036040860152612f9f8282612dea565b9150506060830151612fb46060860182612c07565b506080830151612fc760808601826130be565b508091505092915050565b6000608083016000830151612fea60008601826130be565b50602083015184820360208601526130028282612dea565b91505060408301516130176040860182612c07565b50606083015161302a60608601826130be565b508091505092915050565b600060c08301600083015184820360008601526130528282612dea565b915050602083015161306760208601826130be565b50604083015161307a60408601826130be565b50606083015161308d60608601826130be565b5060808301516130a060808601826130be565b5060a08301516130b360a0860182612c07565b508091505092915050565b6130c781613643565b82525050565b6130d681613643565b82525050565b60006020820190506130f16000830184612c16565b92915050565b600060208201905081810360008301526131118184612c25565b905092915050565b600060208201905081810360008301526131338184612c9a565b905092915050565b600060208201905081810360008301526131558184612d0f565b905092915050565b600060c08201905081810360008301526131778189612db1565b905061318660208301886130cd565b61319360408301876130cd565b6131a060608301866130cd565b6131ad60808301856130cd565b6131ba60a0830184612c16565b979650505050505050565b600060c08201905081810360008301526131df8189612e23565b90506131ee60208301886130cd565b6131fb60408301876130cd565b61320860608301866130cd565b61321560808301856130cd565b61322260a0830184612c16565b979650505050505050565b6000602082019050818103600083015261324681612e5c565b9050919050565b6000602082019050818103600083015261326681612e9c565b9050919050565b6000602082019050818103600083015261328681612edc565b9050919050565b600060208201905081810360008301526132a681612f1c565b9050919050565b60006020820190506132c260008301846130cd565b92915050565b60006040820190506132dd60008301856130cd565b6132ea6020830184612c16565b9392505050565b600060e082019050613306600083018a6130cd565b6133136020830189612d93565b61332060408301886130cd565b61332d60608301876130cd565b61333a60808301866130cd565b61334760a0830185612c16565b61335460c0830184612da2565b98975050505050505050565b600060808201905061337560008301876130cd565b81810360208301526133878186612e23565b90506133966040830185612c16565b6133a360608301846130cd565b95945050505050565b600060a0820190506133c160008301886130cd565b6133ce60208301876130cd565b81810360408301526133e08186612e23565b90506133ef6060830185612c16565b6133fc60808301846130cd565b9695505050505050565b600060608201905061341b60008301866130cd565b61342860208301856130cd565b61343560408301846130cd565b949350505050565b600060e082019050613452600083018a6130cd565b61345f60208301896130cd565b61346c60408301886130cd565b61347960608301876130cd565b61348660808301866130cd565b61349360a08301856130cd565b6134a060c0830184612d84565b98975050505050505050565b6000604051905081810181811067ffffffffffffffff821117156134cf57600080fd5b8060405250919050565b600067ffffffffffffffff8211156134f057600080fd5b601f19601f8301169050602081019050919050565b6000819050602082019050919050565b6000819050602082019050919050565b6000819050602082019050919050565b600081519050919050565b600081519050919050565b600081519050919050565b600081519050919050565b600081519050919050565b6000602082019050919050565b6000602082019050919050565b6000602082019050919050565b600082825260208201905092915050565b600082825260208201905092915050565b600082825260208201905092915050565b600082825260208201905092915050565b600082825260208201905092915050565b60006135f382613623565b9050919050565b60008115159050919050565b6000819050919050565b600081905061361e826136b2565b919050565b600073ffffffffffffffffffffffffffffffffffffffff82169050919050565b6000819050919050565b600061365882613610565b9050919050565b82818337600083830152505050565b60005b8381101561368c578082015181840152602081019050613671565b8381111561369b576000848401525b50505050565b6000601f19601f8301169050919050565b600481106136bc57fe5b50565b6136c8816135e8565b81146136d357600080fd5b50565b6136df81613606565b81146136ea57600080fd5b50565b6136f681613643565b811461370157600080fd5b5056fea365627a7a72315820518f6844309a2ded0185f26b75cf25db8d1f09085dbe4c985432cb72b4cc45646c6578706572696d656e74616cf564736f6c63430005100040",
  "source": "pragma solidity ^0.5.16;\r\npragma experimental ABIEncoderV2;\r\n\r\ncontract vaccine{\r\n    uint public total_registration;\r\n    uint public center_counts;\r\n    uint public types_counts;\r\n    address public _owner;\r\n    uint public vaccines_counts;\r\n    uint public states_count;\r\n    uint public district_count;\r\n\r\n    \r\n    enum completion {notregister,registred, pending , Completed}\r\n    enum stages {registered ,first_vaccine,second_vaccine,completed}\r\n    \r\n    struct benificiary{\r\n        uint benificiary_id;\r\n       // address benificiary_add;\r\n        bytes32 medical_records;\r\n        uint medical_center;\r\n        uint vaccine_id_1;\r\n        uint vaccine_id_2;\r\n        address medical_reprentative;\r\n        stages status;\r\n    }\r\n    \r\n    struct medical_center{\r\n        uint center_id;\r\n        address medical_representative;\r\n    }\r\n    \r\n    struct vaccine_type{\r\n        string name;\r\n        uint company_id;\r\n        uint valid_days;\r\n        uint temp_min;\r\n        uint temp_max;\r\n        address company_add;\r\n    }\r\n\r\n    struct order{\r\n        uint company_id;\r\n        uint date;\r\n        uint allotment;\r\n    }\r\n    \r\n    struct vaccines{\r\n        uint id;\r\n        uint batch;\r\n        uint company_id;\r\n        uint manunfactured_date;\r\n        uint temp_min;\r\n        uint temp_max;\r\n        bool valid;\r\n    }\r\n    \r\n    struct manager{\r\n        uint company_id;\r\n        address manager_add;\r\n    }\r\n\r\n\r\n    struct state{\r\n        uint id;\r\n        string name;\r\n        address state_add;\r\n        uint allocation;\r\n    }\r\n\r\n    struct district{\r\n        uint stateid;\r\n        uint id;\r\n        string name;\r\n        address add;\r\n        uint allocation;\r\n    }\r\n\r\n    event _district(\r\n        uint stateid,\r\n        uint id,\r\n        string name,\r\n        address add,\r\n        uint allocation\r\n    );\r\n\r\n    event _state(\r\n        uint id,\r\n        string name,\r\n        address state_add,\r\n        uint allocation\r\n    );\r\n\r\n    event _benificiary(\r\n        uint benificiary_id,\r\n       // address benificiary_add,\r\n        bytes32 medical_records,\r\n        uint medical_center,\r\n        uint vaccine_id_1,\r\n        uint vaccine_id_2,\r\n        address medical_reprentative,\r\n        stages status\r\n    );\r\n    \r\n    event _medical_center(\r\n        uint center_id,\r\n        address medical_representative\r\n    );\r\n    \r\n    event _vaccine_type(\r\n        string name,\r\n        uint company_id,\r\n        uint valid_days,\r\n        uint temp_min,\r\n        uint temp_max,\r\n        address company_add\r\n    );\r\n    \r\n    event _vaccine(\r\n        uint id,\r\n        uint batch,\r\n        uint company_id,\r\n        uint manunfactured_date,\r\n        uint temp_min,\r\n        uint temp_max,\r\n        bool valid\r\n    );\r\n    \r\n    event _manager(\r\n        uint company_id,\r\n        address manager_add\r\n    );\r\n    \r\n    \r\n    \r\n    modifier onlyOwner {\r\n        require(msg.sender == _owner,'Not authorised');\r\n        _;\r\n    }\r\n    \r\n    \r\n    mapping(bytes32=>benificiary) public _benificiaries;\r\n    mapping(address => medical_center) public _medical_representatives;\r\n    mapping(uint => vaccine_type) public _vaccine_types;\r\n    mapping(uint => vaccines) public _vaccines;\r\n    mapping(address => manager) public _managers;\r\n    mapping(address => state) public states;\r\n    mapping(address => district) public districts;\r\n    mapping(uint => order) public orders;\r\n\r\n    state[] public stateInfo;\r\n    state private stateTemp;\r\n\r\n    district[] public districtInfo;\r\n    district private districtTemp;\r\n\r\n    vaccine_type[] public vaccinesInfo;\r\n    vaccine_type private vaccineTemp;\r\n    \r\n    constructor() public\r\n    {\r\n        _owner = msg.sender;\r\n        center_counts = 0;\r\n        total_registration = 0;\r\n        types_counts = 0;\r\n        vaccines_counts = 0;\r\n        states_count = 0;\r\n        district_count = 0;\r\n    }\r\n    \r\n    \r\n    function transferOwnership(address benificiary_add) public onlyOwner\r\n    {\r\n        _owner = benificiary_add;\r\n    }\r\n    \r\n   // function update_medical_representative(address representative_add,address )\r\n    function View_Owner() public view returns(address){\r\n        return _owner;\r\n    }\r\n\r\n    function View_types_Count() public view returns(uint){\r\n        return types_counts;\r\n    }\r\n\r\n\r\n    \r\n    function register_state(string memory name,address state_add)public onlyOwner\r\n    {\r\n        stateTemp.id = states_count;\r\n        stateTemp.name = name;\r\n        stateTemp.state_add = state_add;\r\n        stateTemp.allocation = 0;\r\n        stateInfo.push(stateTemp);\r\n        states[state_add] = stateTemp;\r\n        states_count++;\r\n    }\r\n\r\n    function update_state(uint state_id,uint newOrder)public onlyOwner\r\n    {\r\n        stateInfo[state_id].allocation+=newOrder;\r\n        states[stateInfo[state_id].state_add].allocation+=newOrder;\r\n    }\r\n\r\n\r\n    function place_order(uint company_id,uint newOrder)public onlyOwner\r\n    {\r\n        orders[company_id].allotment+=newOrder;\r\n    }\r\n\r\n    function register_district(string memory name,address district_add)public onlyOwner\r\n    {\r\n        districtTemp.stateid = states[msg.sender].id;\r\n        districtTemp.id = district_count;\r\n        districtTemp.name = name;\r\n        districtTemp.add = district_add;\r\n        districtTemp.allocation = 0;\r\n        districtInfo.push(districtTemp);\r\n        districts[district_add] = districtTemp;\r\n        district_count++;\r\n    }\r\n\r\n    function update_district_allocation(uint district_id,uint newOrder)public onlyOwner\r\n    {\r\n        districtInfo[district_id].allocation+=newOrder;\r\n        districts[districtInfo[district_id].add].allocation+=newOrder;\r\n    }\r\n\r\n\r\n    function getAllStatesInfo() public view returns (state[] memory)\r\n    {\r\n        return stateInfo;\r\n    }\r\n\r\n    function getAllvaccineInfo() public view returns (vaccine_type[] memory)\r\n    {\r\n        return vaccinesInfo;\r\n    }\r\n\r\n    function getAllDistrictInfo() public view returns (district[] memory)\r\n    {\r\n        return districtInfo;\r\n    }\r\n\r\n\r\n    function register_company(uint period,uint temp_min,uint temp_max,string memory name,address company_add)public onlyOwner\r\n    {\r\n        types_counts++;\r\n\r\n        vaccineTemp.name = name;\r\n        vaccineTemp.company_id = types_counts;\r\n        vaccineTemp.temp_max = temp_max;\r\n        vaccineTemp.temp_min = temp_min;\r\n        vaccineTemp.valid_days = period;\r\n        vaccineTemp.company_add = company_add;\r\n\r\n        _vaccine_types[types_counts] = vaccineTemp;\r\n        vaccinesInfo.push(vaccineTemp);\r\n\r\n        _managers[company_add].company_id =types_counts;\r\n        _managers[company_add].manager_add = company_add;\r\n\r\n         emit _vaccine_type(name,types_counts,period,temp_min,temp_max,company_add);\r\n\r\n         types_counts++;\r\n    }\r\n    \r\n    \r\n    function vaccine_registration(uint company_id,uint batch,uint time,uint cur_temp)public\r\n    {\r\n        require(_vaccine_types[company_id].company_add == msg.sender,\"invalid user\");\r\n        vaccines_counts++;\r\n        _vaccines[vaccines_counts].id = vaccines_counts;\r\n        _vaccines[vaccines_counts].batch = batch;\r\n        _vaccines[vaccines_counts].manunfactured_date = time;\r\n        _vaccines[vaccines_counts].valid = true;\r\n        _vaccines[vaccines_counts].temp_min = cur_temp;\r\n        _vaccines[vaccines_counts].temp_max = cur_temp;\r\n    }\r\n    \r\n    \r\n    function register_benificiary(bytes32 record_hash) public\r\n    {\r\n        require(record_hash.length > 0);\r\n        //require(_medical_representatives[msg.sender].center_id > 0);\r\n        total_registration++;\r\n        _benificiaries[record_hash].benificiary_id = total_registration;\r\n       // _benificiaries[benificiary_add].benificiary_add = benificiary_add;\r\n        _benificiaries[record_hash].medical_reprentative = msg.sender;\r\n        _benificiaries[record_hash].medical_center = _medical_representatives[msg.sender].center_id;\r\n        _benificiaries[record_hash].vaccine_id_1 = 0;\r\n        _benificiaries[record_hash].vaccine_id_2 = 0;\r\n   \r\n        \r\n    }\r\n    \r\n    function register_medical_representative(address representative_add)public onlyOwner\r\n    {\r\n        center_counts++;\r\n        _medical_representatives[representative_add].center_id = center_counts;\r\n        _medical_representatives[representative_add].medical_representative = representative_add;\r\n        \r\n        emit _medical_center(center_counts++, representative_add);\r\n    }\r\n    \r\n    function vaccinate(bytes32 record_hash,uint vaccine_id)public\r\n    {\r\n         require(_vaccines[vaccine_id].temp_min > _vaccine_types[_vaccines[vaccine_id].company_id].temp_min,'invalid_min_temp');\r\n         require(_vaccines[vaccine_id].temp_max < _vaccine_types[_vaccines[vaccine_id].company_id].temp_max,'invalid+max_temp');\r\n         require(_vaccines[vaccine_id].valid);\r\n         if(_benificiaries[record_hash].status == stages(0))\r\n         {\r\n            _benificiaries[record_hash].vaccine_id_1 = vaccine_id;\r\n            _benificiaries[record_hash].status = stages(1);\r\n         }\r\n         else \r\n         {\r\n            _benificiaries[record_hash].vaccine_id_2 = vaccine_id;   \r\n            _benificiaries[record_hash].status = stages(2);\r\n         }\r\n     }\r\n    \r\n    \r\n}",
  "sourcePath": "D:/College/SEM 8/major project/contracts/vaccine.sol",
  "compiler": {
    "name": "solc",
    "version": "0.5.16+commit.9c3226ce.Emscripten.clang"
  },
  "schemaVersion": "3.2.4",
  "updatedAt": "2021-05-08T13:26:30.103Z",
  "networkType": "ethereum",
  "devdoc": {
    "methods": {}
  },
  "userdoc": {
    "methods": {}
  }
}