{
  "contractName": "vaccine",
  "abi": [
    {
      "inputs": [],
      "payable": false,
      "stateMutability": "nonpayable",
      "type": "constructor"
    },
    {
      "anonymous": false,
      "inputs": [
        {
          "indexed": false,
          "internalType": "uint256",
          "name": "benificiary_id",
          "type": "uint256"
        },
        {
          "indexed": false,
          "internalType": "address",
          "name": "benificiary_add",
          "type": "address"
        },
        {
          "indexed": false,
          "internalType": "bytes32",
          "name": "medical_records",
          "type": "bytes32"
        },
        {
          "indexed": false,
          "internalType": "uint256",
          "name": "medical_center",
          "type": "uint256"
        },
        {
          "indexed": false,
          "internalType": "uint256",
          "name": "vaccine_id_1",
          "type": "uint256"
        },
        {
          "indexed": false,
          "internalType": "uint256",
          "name": "vaccine_id_2",
          "type": "uint256"
        },
        {
          "indexed": false,
          "internalType": "address",
          "name": "medical_reprentative",
          "type": "address"
        },
        {
          "indexed": false,
          "internalType": "enum vaccine.stages",
          "name": "status",
          "type": "uint8"
        }
      ],
      "name": "_benificiary",
      "type": "event"
    },
    {
      "anonymous": false,
      "inputs": [
        {
          "indexed": false,
          "internalType": "uint256",
          "name": "stateid",
          "type": "uint256"
        },
        {
          "indexed": false,
          "internalType": "uint256",
          "name": "id",
          "type": "uint256"
        },
        {
          "indexed": false,
          "internalType": "string",
          "name": "name",
          "type": "string"
        },
        {
          "indexed": false,
          "internalType": "address",
          "name": "add",
          "type": "address"
        },
        {
          "indexed": false,
          "internalType": "uint256",
          "name": "allocation",
          "type": "uint256"
        }
      ],
      "name": "_district",
      "type": "event"
    },
    {
      "anonymous": false,
      "inputs": [
        {
          "indexed": false,
          "internalType": "uint256",
          "name": "company_id",
          "type": "uint256"
        },
        {
          "indexed": false,
          "internalType": "address",
          "name": "manager_add",
          "type": "address"
        }
      ],
      "name": "_manager",
      "type": "event"
    },
    {
      "anonymous": false,
      "inputs": [
        {
          "indexed": false,
          "internalType": "uint256",
          "name": "center_id",
          "type": "uint256"
        },
        {
          "indexed": false,
          "internalType": "address",
          "name": "medical_representative",
          "type": "address"
        }
      ],
      "name": "_medical_center",
      "type": "event"
    },
    {
      "anonymous": false,
      "inputs": [
        {
          "indexed": false,
          "internalType": "uint256",
          "name": "id",
          "type": "uint256"
        },
        {
          "indexed": false,
          "internalType": "string",
          "name": "name",
          "type": "string"
        },
        {
          "indexed": false,
          "internalType": "address",
          "name": "state_add",
          "type": "address"
        },
        {
          "indexed": false,
          "internalType": "uint256",
          "name": "allocation",
          "type": "uint256"
        }
      ],
      "name": "_state",
      "type": "event"
    },
    {
      "anonymous": false,
      "inputs": [
        {
          "indexed": false,
          "internalType": "uint256",
          "name": "id",
          "type": "uint256"
        },
        {
          "indexed": false,
          "internalType": "uint256",
          "name": "batch",
          "type": "uint256"
        },
        {
          "indexed": false,
          "internalType": "uint256",
          "name": "company_id",
          "type": "uint256"
        },
        {
          "indexed": false,
          "internalType": "uint256",
          "name": "manunfactured_date",
          "type": "uint256"
        },
        {
          "indexed": false,
          "internalType": "uint256",
          "name": "temp_min",
          "type": "uint256"
        },
        {
          "indexed": false,
          "internalType": "uint256",
          "name": "temp_max",
          "type": "uint256"
        },
        {
          "indexed": false,
          "internalType": "bool",
          "name": "valid",
          "type": "bool"
        }
      ],
      "name": "_vaccine",
      "type": "event"
    },
    {
      "anonymous": false,
      "inputs": [
        {
          "indexed": false,
          "internalType": "string",
          "name": "name",
          "type": "string"
        },
        {
          "indexed": false,
          "internalType": "uint256",
          "name": "company_id",
          "type": "uint256"
        },
        {
          "indexed": false,
          "internalType": "uint256",
          "name": "valid_days",
          "type": "uint256"
        },
        {
          "indexed": false,
          "internalType": "uint256",
          "name": "temp_min",
          "type": "uint256"
        },
        {
          "indexed": false,
          "internalType": "uint256",
          "name": "temp_max",
          "type": "uint256"
        },
        {
          "indexed": false,
          "internalType": "address",
          "name": "company_add",
          "type": "address"
        }
      ],
      "name": "_vaccine_type",
      "type": "event"
    },
    {
      "constant": true,
      "inputs": [
        {
          "internalType": "address",
          "name": "",
          "type": "address"
        }
      ],
      "name": "_benificiaries",
      "outputs": [
        {
          "internalType": "uint256",
          "name": "benificiary_id",
          "type": "uint256"
        },
        {
          "internalType": "address",
          "name": "benificiary_add",
          "type": "address"
        },
        {
          "internalType": "bytes32",
          "name": "medical_records",
          "type": "bytes32"
        },
        {
          "internalType": "uint256",
          "name": "medical_center",
          "type": "uint256"
        },
        {
          "internalType": "uint256",
          "name": "vaccine_id_1",
          "type": "uint256"
        },
        {
          "internalType": "uint256",
          "name": "vaccine_id_2",
          "type": "uint256"
        },
        {
          "internalType": "address",
          "name": "medical_reprentative",
          "type": "address"
        },
        {
          "internalType": "enum vaccine.stages",
          "name": "status",
          "type": "uint8"
        }
      ],
      "payable": false,
      "stateMutability": "view",
      "type": "function"
    },
    {
      "constant": true,
      "inputs": [
        {
          "internalType": "address",
          "name": "",
          "type": "address"
        }
      ],
      "name": "_managers",
      "outputs": [
        {
          "internalType": "uint256",
          "name": "company_id",
          "type": "uint256"
        },
        {
          "internalType": "address",
          "name": "manager_add",
          "type": "address"
        }
      ],
      "payable": false,
      "stateMutability": "view",
      "type": "function"
    },
    {
      "constant": true,
      "inputs": [
        {
          "internalType": "address",
          "name": "",
          "type": "address"
        }
      ],
      "name": "_medical_representatives",
      "outputs": [
        {
          "internalType": "uint256",
          "name": "center_id",
          "type": "uint256"
        },
        {
          "internalType": "address",
          "name": "medical_representative",
          "type": "address"
        }
      ],
      "payable": false,
      "stateMutability": "view",
      "type": "function"
    },
    {
      "constant": true,
      "inputs": [],
      "name": "_owner",
      "outputs": [
        {
          "internalType": "address",
          "name": "",
          "type": "address"
        }
      ],
      "payable": false,
      "stateMutability": "view",
      "type": "function"
    },
    {
      "constant": true,
      "inputs": [
        {
          "internalType": "uint256",
          "name": "",
          "type": "uint256"
        }
      ],
      "name": "_vaccine_types",
      "outputs": [
        {
          "internalType": "string",
          "name": "name",
          "type": "string"
        },
        {
          "internalType": "uint256",
          "name": "company_id",
          "type": "uint256"
        },
        {
          "internalType": "uint256",
          "name": "valid_days",
          "type": "uint256"
        },
        {
          "internalType": "uint256",
          "name": "temp_min",
          "type": "uint256"
        },
        {
          "internalType": "uint256",
          "name": "temp_max",
          "type": "uint256"
        },
        {
          "internalType": "address",
          "name": "company_add",
          "type": "address"
        }
      ],
      "payable": false,
      "stateMutability": "view",
      "type": "function"
    },
    {
      "constant": true,
      "inputs": [
        {
          "internalType": "uint256",
          "name": "",
          "type": "uint256"
        }
      ],
      "name": "_vaccines",
      "outputs": [
        {
          "internalType": "uint256",
          "name": "id",
          "type": "uint256"
        },
        {
          "internalType": "uint256",
          "name": "batch",
          "type": "uint256"
        },
        {
          "internalType": "uint256",
          "name": "company_id",
          "type": "uint256"
        },
        {
          "internalType": "uint256",
          "name": "manunfactured_date",
          "type": "uint256"
        },
        {
          "internalType": "uint256",
          "name": "temp_min",
          "type": "uint256"
        },
        {
          "internalType": "uint256",
          "name": "temp_max",
          "type": "uint256"
        },
        {
          "internalType": "bool",
          "name": "valid",
          "type": "bool"
        }
      ],
      "payable": false,
      "stateMutability": "view",
      "type": "function"
    },
    {
      "constant": true,
      "inputs": [],
      "name": "center_counts",
      "outputs": [
        {
          "internalType": "uint256",
          "name": "",
          "type": "uint256"
        }
      ],
      "payable": false,
      "stateMutability": "view",
      "type": "function"
    },
    {
      "constant": true,
      "inputs": [
        {
          "internalType": "uint256",
          "name": "",
          "type": "uint256"
        }
      ],
      "name": "districtInfo",
      "outputs": [
        {
          "internalType": "uint256",
          "name": "stateid",
          "type": "uint256"
        },
        {
          "internalType": "uint256",
          "name": "id",
          "type": "uint256"
        },
        {
          "internalType": "string",
          "name": "name",
          "type": "string"
        },
        {
          "internalType": "address",
          "name": "add",
          "type": "address"
        },
        {
          "internalType": "uint256",
          "name": "allocation",
          "type": "uint256"
        }
      ],
      "payable": false,
      "stateMutability": "view",
      "type": "function"
    },
    {
      "constant": true,
      "inputs": [],
      "name": "district_count",
      "outputs": [
        {
          "internalType": "uint256",
          "name": "",
          "type": "uint256"
        }
      ],
      "payable": false,
      "stateMutability": "view",
      "type": "function"
    },
    {
      "constant": true,
      "inputs": [
        {
          "internalType": "address",
          "name": "",
          "type": "address"
        }
      ],
      "name": "districts",
      "outputs": [
        {
          "internalType": "uint256",
          "name": "stateid",
          "type": "uint256"
        },
        {
          "internalType": "uint256",
          "name": "id",
          "type": "uint256"
        },
        {
          "internalType": "string",
          "name": "name",
          "type": "string"
        },
        {
          "internalType": "address",
          "name": "add",
          "type": "address"
        },
        {
          "internalType": "uint256",
          "name": "allocation",
          "type": "uint256"
        }
      ],
      "payable": false,
      "stateMutability": "view",
      "type": "function"
    },
    {
      "constant": true,
      "inputs": [
        {
          "internalType": "uint256",
          "name": "",
          "type": "uint256"
        }
      ],
      "name": "orders",
      "outputs": [
        {
          "internalType": "uint256",
          "name": "company_id",
          "type": "uint256"
        },
        {
          "internalType": "uint256",
          "name": "date",
          "type": "uint256"
        },
        {
          "internalType": "uint256",
          "name": "allotment",
          "type": "uint256"
        }
      ],
      "payable": false,
      "stateMutability": "view",
      "type": "function"
    },
    {
      "constant": true,
      "inputs": [
        {
          "internalType": "uint256",
          "name": "",
          "type": "uint256"
        }
      ],
      "name": "stateInfo",
      "outputs": [
        {
          "internalType": "uint256",
          "name": "id",
          "type": "uint256"
        },
        {
          "internalType": "string",
          "name": "name",
          "type": "string"
        },
        {
          "internalType": "address",
          "name": "state_add",
          "type": "address"
        },
        {
          "internalType": "uint256",
          "name": "allocation",
          "type": "uint256"
        }
      ],
      "payable": false,
      "stateMutability": "view",
      "type": "function"
    },
    {
      "constant": true,
      "inputs": [
        {
          "internalType": "address",
          "name": "",
          "type": "address"
        }
      ],
      "name": "states",
      "outputs": [
        {
          "internalType": "uint256",
          "name": "id",
          "type": "uint256"
        },
        {
          "internalType": "string",
          "name": "name",
          "type": "string"
        },
        {
          "internalType": "address",
          "name": "state_add",
          "type": "address"
        },
        {
          "internalType": "uint256",
          "name": "allocation",
          "type": "uint256"
        }
      ],
      "payable": false,
      "stateMutability": "view",
      "type": "function"
    },
    {
      "constant": true,
      "inputs": [],
      "name": "states_count",
      "outputs": [
        {
          "internalType": "uint256",
          "name": "",
          "type": "uint256"
        }
      ],
      "payable": false,
      "stateMutability": "view",
      "type": "function"
    },
    {
      "constant": true,
      "inputs": [],
      "name": "total_registration",
      "outputs": [
        {
          "internalType": "uint256",
          "name": "",
          "type": "uint256"
        }
      ],
      "payable": false,
      "stateMutability": "view",
      "type": "function"
    },
    {
      "constant": true,
      "inputs": [],
      "name": "types_counts",
      "outputs": [
        {
          "internalType": "uint256",
          "name": "",
          "type": "uint256"
        }
      ],
      "payable": false,
      "stateMutability": "view",
      "type": "function"
    },
    {
      "constant": true,
      "inputs": [
        {
          "internalType": "uint256",
          "name": "",
          "type": "uint256"
        }
      ],
      "name": "vaccinesInfo",
      "outputs": [
        {
          "internalType": "string",
          "name": "name",
          "type": "string"
        },
        {
          "internalType": "uint256",
          "name": "company_id",
          "type": "uint256"
        },
        {
          "internalType": "uint256",
          "name": "valid_days",
          "type": "uint256"
        },
        {
          "internalType": "uint256",
          "name": "temp_min",
          "type": "uint256"
        },
        {
          "internalType": "uint256",
          "name": "temp_max",
          "type": "uint256"
        },
        {
          "internalType": "address",
          "name": "company_add",
          "type": "address"
        }
      ],
      "payable": false,
      "stateMutability": "view",
      "type": "function"
    },
    {
      "constant": true,
      "inputs": [],
      "name": "vaccines_counts",
      "outputs": [
        {
          "internalType": "uint256",
          "name": "",
          "type": "uint256"
        }
      ],
      "payable": false,
      "stateMutability": "view",
      "type": "function"
    },
    {
      "constant": false,
      "inputs": [
        {
          "internalType": "address",
          "name": "benificiary_add",
          "type": "address"
        }
      ],
      "name": "transferOwnership",
      "outputs": [],
      "payable": false,
      "stateMutability": "nonpayable",
      "type": "function"
    },
    {
      "constant": true,
      "inputs": [],
      "name": "View_Owner",
      "outputs": [
        {
          "internalType": "address",
          "name": "",
          "type": "address"
        }
      ],
      "payable": false,
      "stateMutability": "view",
      "type": "function"
    },
    {
      "constant": true,
      "inputs": [],
      "name": "View_types_Count",
      "outputs": [
        {
          "internalType": "uint256",
          "name": "",
          "type": "uint256"
        }
      ],
      "payable": false,
      "stateMutability": "view",
      "type": "function"
    },
    {
      "constant": false,
      "inputs": [
        {
          "internalType": "string",
          "name": "name",
          "type": "string"
        },
        {
          "internalType": "address",
          "name": "state_add",
          "type": "address"
        }
      ],
      "name": "register_state",
      "outputs": [],
      "payable": false,
      "stateMutability": "nonpayable",
      "type": "function"
    },
    {
      "constant": false,
      "inputs": [
        {
          "internalType": "uint256",
          "name": "state_id",
          "type": "uint256"
        },
        {
          "internalType": "uint256",
          "name": "newOrder",
          "type": "uint256"
        }
      ],
      "name": "update_state",
      "outputs": [],
      "payable": false,
      "stateMutability": "nonpayable",
      "type": "function"
    },
    {
      "constant": false,
      "inputs": [
        {
          "internalType": "uint256",
          "name": "company_id",
          "type": "uint256"
        },
        {
          "internalType": "uint256",
          "name": "newOrder",
          "type": "uint256"
        }
      ],
      "name": "place_order",
      "outputs": [],
      "payable": false,
      "stateMutability": "nonpayable",
      "type": "function"
    },
    {
      "constant": false,
      "inputs": [
        {
          "internalType": "string",
          "name": "name",
          "type": "string"
        },
        {
          "internalType": "address",
          "name": "district_add",
          "type": "address"
        }
      ],
      "name": "register_district",
      "outputs": [],
      "payable": false,
      "stateMutability": "nonpayable",
      "type": "function"
    },
    {
      "constant": false,
      "inputs": [
        {
          "internalType": "uint256",
          "name": "district_id",
          "type": "uint256"
        },
        {
          "internalType": "uint256",
          "name": "newOrder",
          "type": "uint256"
        }
      ],
      "name": "update_district_allocation",
      "outputs": [],
      "payable": false,
      "stateMutability": "nonpayable",
      "type": "function"
    },
    {
      "constant": true,
      "inputs": [],
      "name": "getAllStatesInfo",
      "outputs": [
        {
          "components": [
            {
              "internalType": "uint256",
              "name": "id",
              "type": "uint256"
            },
            {
              "internalType": "string",
              "name": "name",
              "type": "string"
            },
            {
              "internalType": "address",
              "name": "state_add",
              "type": "address"
            },
            {
              "internalType": "uint256",
              "name": "allocation",
              "type": "uint256"
            }
          ],
          "internalType": "struct vaccine.state[]",
          "name": "",
          "type": "tuple[]"
        }
      ],
      "payable": false,
      "stateMutability": "view",
      "type": "function"
    },
    {
      "constant": true,
      "inputs": [],
      "name": "getAllvaccineInfo",
      "outputs": [
        {
          "components": [
            {
              "internalType": "string",
              "name": "name",
              "type": "string"
            },
            {
              "internalType": "uint256",
              "name": "company_id",
              "type": "uint256"
            },
            {
              "internalType": "uint256",
              "name": "valid_days",
              "type": "uint256"
            },
            {
              "internalType": "uint256",
              "name": "temp_min",
              "type": "uint256"
            },
            {
              "internalType": "uint256",
              "name": "temp_max",
              "type": "uint256"
            },
            {
              "internalType": "address",
              "name": "company_add",
              "type": "address"
            }
          ],
          "internalType": "struct vaccine.vaccine_type[]",
          "name": "",
          "type": "tuple[]"
        }
      ],
      "payable": false,
      "stateMutability": "view",
      "type": "function"
    },
    {
      "constant": true,
      "inputs": [],
      "name": "getAllDistrictInfo",
      "outputs": [
        {
          "components": [
            {
              "internalType": "uint256",
              "name": "stateid",
              "type": "uint256"
            },
            {
              "internalType": "uint256",
              "name": "id",
              "type": "uint256"
            },
            {
              "internalType": "string",
              "name": "name",
              "type": "string"
            },
            {
              "internalType": "address",
              "name": "add",
              "type": "address"
            },
            {
              "internalType": "uint256",
              "name": "allocation",
              "type": "uint256"
            }
          ],
          "internalType": "struct vaccine.district[]",
          "name": "",
          "type": "tuple[]"
        }
      ],
      "payable": false,
      "stateMutability": "view",
      "type": "function"
    },
    {
      "constant": false,
      "inputs": [
        {
          "internalType": "uint256",
          "name": "period",
          "type": "uint256"
        },
        {
          "internalType": "uint256",
          "name": "temp_min",
          "type": "uint256"
        },
        {
          "internalType": "uint256",
          "name": "temp_max",
          "type": "uint256"
        },
        {
          "internalType": "string",
          "name": "name",
          "type": "string"
        },
        {
          "internalType": "address",
          "name": "company_add",
          "type": "address"
        }
      ],
      "name": "register_company",
      "outputs": [],
      "payable": false,
      "stateMutability": "nonpayable",
      "type": "function"
    },
    {
      "constant": false,
      "inputs": [
        {
          "internalType": "uint256",
          "name": "company_id",
          "type": "uint256"
        },
        {
          "internalType": "uint256",
          "name": "batch",
          "type": "uint256"
        },
        {
          "internalType": "uint256",
          "name": "time",
          "type": "uint256"
        },
        {
          "internalType": "uint256",
          "name": "cur_temp",
          "type": "uint256"
        }
      ],
      "name": "vaccine_registration",
      "outputs": [],
      "payable": false,
      "stateMutability": "nonpayable",
      "type": "function"
    },
    {
      "constant": false,
      "inputs": [
        {
          "internalType": "address",
          "name": "benificiary_add",
          "type": "address"
        },
        {
          "internalType": "bytes32",
          "name": "record_hash",
          "type": "bytes32"
        }
      ],
      "name": "register_benificiary",
      "outputs": [],
      "payable": false,
      "stateMutability": "nonpayable",
      "type": "function"
    },
    {
      "constant": false,
      "inputs": [
        {
          "internalType": "address",
          "name": "representative_add",
          "type": "address"
        }
      ],
      "name": "register_medical_representative",
      "outputs": [],
      "payable": false,
      "stateMutability": "nonpayable",
      "type": "function"
    },
    {
      "constant": false,
      "inputs": [
        {
          "internalType": "address",
          "name": "benificiary_add",
          "type": "address"
        },
        {
          "internalType": "uint256",
          "name": "vaccine_id",
          "type": "uint256"
        }
      ],
      "name": "vaccinate",
      "outputs": [],
      "payable": false,
      "stateMutability": "nonpayable",
      "type": "function"
    }
  ],
  "bytecode": "0x608060405234801561001057600080fd5b5033600360006101000a81548173ffffffffffffffffffffffffffffffffffffffff021916908373ffffffffffffffffffffffffffffffffffffffff1602179055506000600181905550600080819055506000600281905550600060048190555060006005819055506000600681905550613a19806100906000396000f3fe608060405234801561001057600080fd5b50600436106102065760003560e01c806381bf53401161011a578063c1f06446116100ad578063d651d5fe1161007c578063d651d5fe1461061e578063e8ff95381461063c578063f2fde38b1461065a578063f40d366014610676578063f4a31a04146106ab57610206565b8063c1f064461461057f578063ca176ee9146105b5578063d5803e97146105d1578063d5d31abe146105ed57610206565b80639a74cc1b116100e95780639a74cc1b146104f3578063a4d3484314610511578063a85c38ef1461052f578063b2bdfa7b1461056157610206565b806381bf53401461048157806386675ead1461049d57806391c5500f146104b957806398e1c2f4146104d757610206565b80633ad05ca21161019d578063744ee9a31161016c578063744ee9a3146103c357806374529683146103e15780637553ad4d1461041257806375b08c211461042e5780637d9efad41461046557610206565b80633ad05ca2146103385780634f07d5c914610356578063682fbf811461037457806373c033551461039057610206565b80630c96a059116101d95780630c96a059146102c257806311e7df17146102e05780631fcf959b146102fc578063360294ec1461031a57610206565b806302a223371461020b57806307d1b2271461023e57806308124fa1146102725780630b7633791461028e575b600080fd5b61022560048036036102209190810190612c42565b6106e0565b6040516102359493929190613632565b60405180910390f35b61025860048036036102539190810190612d37565b6107c8565b60405161026995949392919061367e565b60405180910390f35b61028c60048036036102879190810190612ce3565b6108c3565b005b6102a860048036036102a39190810190612c42565b610b9a565b6040516102b995949392919061367e565b60405180910390f35b6102ca610c88565b6040516102d79190613570565b60405180910390f35b6102fa60048036036102f59190810190612d60565b610c92565b005b610304610d4a565b60405161031191906133fe565b60405180910390f35b610322610ec9565b60405161032f9190613570565b60405180910390f35b610340610ecf565b60405161034d91906133dc565b60405180910390f35b61035e61103a565b60405161036b91906133ba565b60405180910390f35b61038e60048036036103899190810190612ca7565b6111af565b005b6103aa60048036036103a59190810190612d37565b6114d3565b6040516103ba9493929190613632565b60405180910390f35b6103cb6115c8565b6040516103d8919061339f565b60405180910390f35b6103fb60048036036103f69190810190612c42565b6115f2565b60405161040992919061358b565b60405180910390f35b61042c60048036036104279190810190612e2b565b611636565b005b61044860048036036104439190810190612c42565b6117b6565b60405161045c9897969594939291906135b4565b60405180910390f35b61047f600480360361047a9190810190612c42565b61184b565b005b61049b60048036036104969190810190612d60565b611a03565b005b6104b760048036036104b29190810190612d9c565b611b51565b005b6104c1611f5b565b6040516104ce9190613570565b60405180910390f35b6104f160048036036104ec9190810190612ce3565b611f61565b005b6104fb612298565b6040516105089190613570565b60405180910390f35b61051961229e565b6040516105269190613570565b60405180910390f35b61054960048036036105449190810190612d37565b6122a4565b604051610558939291906136d8565b60405180910390f35b6105696122ce565b604051610576919061339f565b60405180910390f35b61059960048036036105949190810190612d37565b6122f4565b6040516105ac979695949392919061370f565b60405180910390f35b6105cf60048036036105ca9190810190612d60565b612343565b005b6105eb60048036036105e69190810190612c6b565b612491565b005b61060760048036036106029190810190612c42565b61276a565b60405161061592919061358b565b60405180910390f35b6106266127ae565b6040516106339190613570565b60405180910390f35b6106446127b4565b6040516106519190613570565b60405180910390f35b610674600480360361066f9190810190612c42565b6127ba565b005b610690600480360361068b9190810190612d37565b61288e565b6040516106a296959493929190613488565b60405180910390f35b6106c560048036036106c09190810190612d37565b61298f565b6040516106d796959493929190613488565b60405180910390f35b600c602052806000526040600020600091509050806000015490806001018054600181600116156101000203166002900480601f0160208091040260200160405190810160405280929190818152602001828054600181600116156101000203166002900480156107925780601f1061076757610100808354040283529160200191610792565b820191906000526020600020905b81548152906001019060200180831161077557829003601f168201915b5050505050908060020160009054906101000a900473ffffffffffffffffffffffffffffffffffffffff16908060030154905084565b601481815481106107d557fe5b9060005260206000209060050201600091509050806000015490806001015490806002018054600181600116156101000203166002900480601f01602080910402602001604051908101604052809291908181526020018280546001816001161561010002031660029004801561088d5780601f106108625761010080835404028352916020019161088d565b820191906000526020600020905b81548152906001019060200180831161087057829003601f168201915b5050505050908060030160009054906101000a900473ffffffffffffffffffffffffffffffffffffffff16908060040154905085565b600360009054906101000a900473ffffffffffffffffffffffffffffffffffffffff1673ffffffffffffffffffffffffffffffffffffffff163373ffffffffffffffffffffffffffffffffffffffff1614610953576040517f08c379a000000000000000000000000000000000000000000000000000000000815260040161094a906134f0565b60405180910390fd5b6005546010600001819055508160106001019080519060200190610978929190612a83565b5080601060020160006101000a81548173ffffffffffffffffffffffffffffffffffffffff021916908373ffffffffffffffffffffffffffffffffffffffff1602179055506000601060030181905550600f6010908060018154018082558091505090600182039060005260206000209060040201600090919290919091506000820154816000015560018201816001019080546001816001161561010002031660029004610a28929190612b03565b506002820160009054906101000a900473ffffffffffffffffffffffffffffffffffffffff168160020160006101000a81548173ffffffffffffffffffffffffffffffffffffffff021916908373ffffffffffffffffffffffffffffffffffffffff160217905550600382015481600301555050506010600c60008373ffffffffffffffffffffffffffffffffffffffff1673ffffffffffffffffffffffffffffffffffffffff1681526020019081526020016000206000820154816000015560018201816001019080546001816001161561010002031660029004610b0f929190612b03565b506002820160009054906101000a900473ffffffffffffffffffffffffffffffffffffffff168160020160006101000a81548173ffffffffffffffffffffffffffffffffffffffff021916908373ffffffffffffffffffffffffffffffffffffffff160217905550600382015481600301559050506005600081548092919060010191905055505050565b600d602052806000526040600020600091509050806000015490806001015490806002018054600181600116156101000203166002900480601f016020809104026020016040519081016040528092919081815260200182805460018160011615610100020316600290048015610c525780601f10610c2757610100808354040283529160200191610c52565b820191906000526020600020905b815481529060010190602001808311610c3557829003601f168201915b5050505050908060030160009054906101000a900473ffffffffffffffffffffffffffffffffffffffff16908060040154905085565b6000600254905090565b600360009054906101000a900473ffffffffffffffffffffffffffffffffffffffff1673ffffffffffffffffffffffffffffffffffffffff163373ffffffffffffffffffffffffffffffffffffffff1614610d22576040517f08c379a0000000000000000000000000000000000000000000000000000000008152600401610d19906134f0565b60405180910390fd5b80600e6000848152602001908152602001600020600201600082825401925050819055505050565b6060601a805480602002602001604051908101604052809291908181526020016000905b82821015610ec057838290600052602060002090600602016040518060c0016040529081600082018054600181600116156101000203166002900480601f016020809104026020016040519081016040528092919081815260200182805460018160011615610100020316600290048015610e2a5780601f10610dff57610100808354040283529160200191610e2a565b820191906000526020600020905b815481529060010190602001808311610e0d57829003601f168201915b50505050508152602001600182015481526020016002820154815260200160038201548152602001600482015481526020016005820160009054906101000a900473ffffffffffffffffffffffffffffffffffffffff1673ffffffffffffffffffffffffffffffffffffffff1673ffffffffffffffffffffffffffffffffffffffff168152505081526020019060010190610d6e565b50505050905090565b60015481565b6060600f805480602002602001604051908101604052809291908181526020016000905b82821015611031578382906000526020600020906004020160405180608001604052908160008201548152602001600182018054600181600116156101000203166002900480601f016020809104026020016040519081016040528092919081815260200182805460018160011615610100020316600290048015610fb95780601f10610f8e57610100808354040283529160200191610fb9565b820191906000526020600020905b815481529060010190602001808311610f9c57829003601f168201915b505050505081526020016002820160009054906101000a900473ffffffffffffffffffffffffffffffffffffffff1673ffffffffffffffffffffffffffffffffffffffff1673ffffffffffffffffffffffffffffffffffffffff16815260200160038201548152505081526020019060010190610ef3565b50505050905090565b60606014805480602002602001604051908101604052809291908181526020016000905b828210156111a657838290600052602060002090600502016040518060a00160405290816000820154815260200160018201548152602001600282018054600181600116156101000203166002900480601f01602080910402602001604051908101604052809291908181526020018280546001816001161561010002031660029004801561112e5780601f106111035761010080835404028352916020019161112e565b820191906000526020600020905b81548152906001019060200180831161111157829003601f168201915b505050505081526020016003820160009054906101000a900473ffffffffffffffffffffffffffffffffffffffff1673ffffffffffffffffffffffffffffffffffffffff1673ffffffffffffffffffffffffffffffffffffffff1681526020016004820154815250508152602001906001019061105e565b50505050905090565b60096000600a600084815260200190815260200160002060020154815260200190815260200160002060030154600a60008381526020019081526020016000206004015411611233576040517f08c379a000000000000000000000000000000000000000000000000000000000815260040161122a90613530565b60405180910390fd5b60096000600a600084815260200190815260200160002060020154815260200190815260200160002060040154600a600083815260200190815260200160002060050154106112b7576040517f08c379a00000000000000000000000000000000000000000000000000000000081526004016112ae90613510565b60405180910390fd5b600a600082815260200190815260200160002060060160009054906101000a900460ff166112e457600080fd5b600060038111156112f157fe5b60038111156112fc57fe5b600760008473ffffffffffffffffffffffffffffffffffffffff1673ffffffffffffffffffffffffffffffffffffffff16815260200190815260200160002060060160149054906101000a900460ff16600381111561135757fe5b14156114185780600760008473ffffffffffffffffffffffffffffffffffffffff1673ffffffffffffffffffffffffffffffffffffffff16815260200190815260200160002060040181905550600160038111156113b157fe5b600760008473ffffffffffffffffffffffffffffffffffffffff1673ffffffffffffffffffffffffffffffffffffffff16815260200190815260200160002060060160146101000a81548160ff0219169083600381111561140e57fe5b02179055506114cf565b80600760008473ffffffffffffffffffffffffffffffffffffffff1673ffffffffffffffffffffffffffffffffffffffff168152602001908152602001600020600501819055506002600381111561146c57fe5b600760008473ffffffffffffffffffffffffffffffffffffffff1673ffffffffffffffffffffffffffffffffffffffff16815260200190815260200160002060060160146101000a81548160ff021916908360038111156114c957fe5b02179055505b5050565b600f81815481106114e057fe5b9060005260206000209060040201600091509050806000015490806001018054600181600116156101000203166002900480601f0160208091040260200160405190810160405280929190818152602001828054600181600116156101000203166002900480156115925780601f1061156757610100808354040283529160200191611592565b820191906000526020600020905b81548152906001019060200180831161157557829003601f168201915b5050505050908060020160009054906101000a900473ffffffffffffffffffffffffffffffffffffffff16908060030154905084565b6000600360009054906101000a900473ffffffffffffffffffffffffffffffffffffffff16905090565b60086020528060005260406000206000915090508060000154908060010160009054906101000a900473ffffffffffffffffffffffffffffffffffffffff16905082565b3373ffffffffffffffffffffffffffffffffffffffff166009600086815260200190815260200160002060050160009054906101000a900473ffffffffffffffffffffffffffffffffffffffff1673ffffffffffffffffffffffffffffffffffffffff16146116da576040517f08c379a00000000000000000000000000000000000000000000000000000000081526004016116d190613550565b60405180910390fd5b600460008154809291906001019190505550600454600a600060045481526020019081526020016000206000018190555082600a600060045481526020019081526020016000206001018190555081600a60006004548152602001908152602001600020600301819055506001600a6000600454815260200190815260200160002060060160006101000a81548160ff02191690831515021790555080600a600060045481526020019081526020016000206004018190555080600a600060045481526020019081526020016000206005018190555050505050565b60076020528060005260406000206000915090508060000154908060010160009054906101000a900473ffffffffffffffffffffffffffffffffffffffff16908060020154908060030154908060040154908060050154908060060160009054906101000a900473ffffffffffffffffffffffffffffffffffffffff16908060060160149054906101000a900460ff16905088565b600360009054906101000a900473ffffffffffffffffffffffffffffffffffffffff1673ffffffffffffffffffffffffffffffffffffffff163373ffffffffffffffffffffffffffffffffffffffff16146118db576040517f08c379a00000000000000000000000000000000000000000000000000000000081526004016118d2906134f0565b60405180910390fd5b600160008154809291906001019190505550600154600860008373ffffffffffffffffffffffffffffffffffffffff1673ffffffffffffffffffffffffffffffffffffffff1681526020019081526020016000206000018190555080600860008373ffffffffffffffffffffffffffffffffffffffff1673ffffffffffffffffffffffffffffffffffffffff16815260200190815260200160002060010160006101000a81548173ffffffffffffffffffffffffffffffffffffffff021916908373ffffffffffffffffffffffffffffffffffffffff1602179055507f23777a11fce19225f5430bfc9ad888a482375ec19fe7b1c8da227fad59eec3666001600081548092919060010191905055826040516119f892919061358b565b60405180910390a150565b600360009054906101000a900473ffffffffffffffffffffffffffffffffffffffff1673ffffffffffffffffffffffffffffffffffffffff163373ffffffffffffffffffffffffffffffffffffffff1614611a93576040517f08c379a0000000000000000000000000000000000000000000000000000000008152600401611a8a906134f0565b60405180910390fd5b80600f8381548110611aa157fe5b90600052602060002090600402016003016000828254019250508190555080600c6000600f8581548110611ad157fe5b906000526020600020906004020160020160009054906101000a900473ffffffffffffffffffffffffffffffffffffffff1673ffffffffffffffffffffffffffffffffffffffff1673ffffffffffffffffffffffffffffffffffffffff168152602001908152602001600020600301600082825401925050819055505050565b600360009054906101000a900473ffffffffffffffffffffffffffffffffffffffff1673ffffffffffffffffffffffffffffffffffffffff163373ffffffffffffffffffffffffffffffffffffffff1614611be1576040517f08c379a0000000000000000000000000000000000000000000000000000000008152600401611bd8906134f0565b60405180910390fd5b60026000815480929190600101919050555081601b6000019080519060200190611c0c929190612a83565b50600254601b6001018190555082601b6004018190555083601b6003018190555084601b6002018190555080601b60050160006101000a81548173ffffffffffffffffffffffffffffffffffffffff021916908373ffffffffffffffffffffffffffffffffffffffff160217905550601b60096000600254815260200190815260200160002060008201816000019080546001816001161561010002031660029004611cb9929190612b03565b50600182015481600101556002820154816002015560038201548160030155600482015481600401556005820160009054906101000a900473ffffffffffffffffffffffffffffffffffffffff168160050160006101000a81548173ffffffffffffffffffffffffffffffffffffffff021916908373ffffffffffffffffffffffffffffffffffffffff160217905550905050601a601b9080600181540180825580915050906001820390600052602060002090600602016000909192909190915060008201816000019080546001816001161561010002031660029004611da2929190612b03565b50600182015481600101556002820154816002015560038201548160030155600482015481600401556005820160009054906101000a900473ffffffffffffffffffffffffffffffffffffffff168160050160006101000a81548173ffffffffffffffffffffffffffffffffffffffff021916908373ffffffffffffffffffffffffffffffffffffffff160217905550505050600254600b60008373ffffffffffffffffffffffffffffffffffffffff1673ffffffffffffffffffffffffffffffffffffffff1681526020019081526020016000206000018190555080600b60008373ffffffffffffffffffffffffffffffffffffffff1673ffffffffffffffffffffffffffffffffffffffff16815260200190815260200160002060010160006101000a81548173ffffffffffffffffffffffffffffffffffffffff021916908373ffffffffffffffffffffffffffffffffffffffff1602179055507ff85f64e777f733197135d845dd7389f9072b8949f4d6365db8eb8bb793448fe48260025487878786604051611f3a96959493929190613420565b60405180910390a16002600081548092919060010191905055505050505050565b60065481565b600360009054906101000a900473ffffffffffffffffffffffffffffffffffffffff1673ffffffffffffffffffffffffffffffffffffffff163373ffffffffffffffffffffffffffffffffffffffff1614611ff1576040517f08c379a0000000000000000000000000000000000000000000000000000000008152600401611fe8906134f0565b60405180910390fd5b600c60003373ffffffffffffffffffffffffffffffffffffffff1673ffffffffffffffffffffffffffffffffffffffff168152602001908152602001600020600001546015600001819055506006546015600101819055508160156002019080519060200190612062929190612a83565b5080601560030160006101000a81548173ffffffffffffffffffffffffffffffffffffffff021916908373ffffffffffffffffffffffffffffffffffffffff1602179055506000601560040181905550601460159080600181540180825580915050906001820390600052602060002090600502016000909192909190915060008201548160000155600182015481600101556002820181600201908054600181600116156101000203166002900461211c929190612b03565b506003820160009054906101000a900473ffffffffffffffffffffffffffffffffffffffff168160030160006101000a81548173ffffffffffffffffffffffffffffffffffffffff021916908373ffffffffffffffffffffffffffffffffffffffff160217905550600482015481600401555050506015600d60008373ffffffffffffffffffffffffffffffffffffffff1673ffffffffffffffffffffffffffffffffffffffff16815260200190815260200160002060008201548160000155600182015481600101556002820181600201908054600181600116156101000203166002900461220d929190612b03565b506003820160009054906101000a900473ffffffffffffffffffffffffffffffffffffffff168160030160006101000a81548173ffffffffffffffffffffffffffffffffffffffff021916908373ffffffffffffffffffffffffffffffffffffffff160217905550600482015481600401559050506006600081548092919060010191905055505050565b60045481565b60055481565b600e6020528060005260406000206000915090508060000154908060010154908060020154905083565b600360009054906101000a900473ffffffffffffffffffffffffffffffffffffffff1681565b600a6020528060005260406000206000915090508060000154908060010154908060020154908060030154908060040154908060050154908060060160009054906101000a900460ff16905087565b600360009054906101000a900473ffffffffffffffffffffffffffffffffffffffff1673ffffffffffffffffffffffffffffffffffffffff163373ffffffffffffffffffffffffffffffffffffffff16146123d3576040517f08c379a00000000000000000000000000000000000000000000000000000000081526004016123ca906134f0565b60405180910390fd5b80601483815481106123e157fe5b90600052602060002090600502016004016000828254019250508190555080600d60006014858154811061241157fe5b906000526020600020906005020160030160009054906101000a900473ffffffffffffffffffffffffffffffffffffffff1673ffffffffffffffffffffffffffffffffffffffff1673ffffffffffffffffffffffffffffffffffffffff168152602001908152602001600020600401600082825401925050819055505050565b6000602060ff16116124a257600080fd5b6000600860003373ffffffffffffffffffffffffffffffffffffffff1673ffffffffffffffffffffffffffffffffffffffff16815260200190815260200160002060000154116124f157600080fd5b6000808154809291906001019190505550600054600760008473ffffffffffffffffffffffffffffffffffffffff1673ffffffffffffffffffffffffffffffffffffffff1681526020019081526020016000206000018190555081600760008473ffffffffffffffffffffffffffffffffffffffff1673ffffffffffffffffffffffffffffffffffffffff16815260200190815260200160002060010160006101000a81548173ffffffffffffffffffffffffffffffffffffffff021916908373ffffffffffffffffffffffffffffffffffffffff16021790555033600760008473ffffffffffffffffffffffffffffffffffffffff1673ffffffffffffffffffffffffffffffffffffffff16815260200190815260200160002060060160006101000a81548173ffffffffffffffffffffffffffffffffffffffff021916908373ffffffffffffffffffffffffffffffffffffffff160217905550600860003373ffffffffffffffffffffffffffffffffffffffff1673ffffffffffffffffffffffffffffffffffffffff16815260200190815260200160002060000154600760008473ffffffffffffffffffffffffffffffffffffffff1673ffffffffffffffffffffffffffffffffffffffff168152602001908152602001600020600301819055506000600760008473ffffffffffffffffffffffffffffffffffffffff1673ffffffffffffffffffffffffffffffffffffffff168152602001908152602001600020600401819055506000600760008473ffffffffffffffffffffffffffffffffffffffff1673ffffffffffffffffffffffffffffffffffffffff168152602001908152602001600020600501819055505050565b600b6020528060005260406000206000915090508060000154908060010160009054906101000a900473ffffffffffffffffffffffffffffffffffffffff16905082565b60025481565b60005481565b600360009054906101000a900473ffffffffffffffffffffffffffffffffffffffff1673ffffffffffffffffffffffffffffffffffffffff163373ffffffffffffffffffffffffffffffffffffffff161461284a576040517f08c379a0000000000000000000000000000000000000000000000000000000008152600401612841906134f0565b60405180910390fd5b80600360006101000a81548173ffffffffffffffffffffffffffffffffffffffff021916908373ffffffffffffffffffffffffffffffffffffffff16021790555050565b601a818154811061289b57fe5b9060005260206000209060060201600091509050806000018054600181600116156101000203166002900480601f0160208091040260200160405190810160405280929190818152602001828054600181600116156101000203166002900480156129475780601f1061291c57610100808354040283529160200191612947565b820191906000526020600020905b81548152906001019060200180831161292a57829003601f168201915b5050505050908060010154908060020154908060030154908060040154908060050160009054906101000a900473ffffffffffffffffffffffffffffffffffffffff16905086565b6009602052806000526040600020600091509050806000018054600181600116156101000203166002900480601f016020809104026020016040519081016040528092919081815260200182805460018160011615610100020316600290048015612a3b5780601f10612a1057610100808354040283529160200191612a3b565b820191906000526020600020905b815481529060010190602001808311612a1e57829003601f168201915b5050505050908060010154908060020154908060030154908060040154908060050160009054906101000a900473ffffffffffffffffffffffffffffffffffffffff16905086565b828054600181600116156101000203166002900490600052602060002090601f016020900481019282601f10612ac457805160ff1916838001178555612af2565b82800160010185558215612af2579182015b82811115612af1578251825591602001919060010190612ad6565b5b509050612aff9190612b8a565b5090565b828054600181600116156101000203166002900490600052602060002090601f016020900481019282601f10612b3c5780548555612b79565b82800160010185558215612b7957600052602060002091601f016020900482015b82811115612b78578254825591600101919060010190612b5d565b5b509050612b869190612b8a565b5090565b612bac91905b80821115612ba8576000816000905550600101612b90565b5090565b90565b600081359050612bbe81613991565b92915050565b600081359050612bd3816139a8565b92915050565b600082601f830112612bea57600080fd5b8135612bfd612bf8826137ab565b61377e565b91508082526020830160208301858383011115612c1957600080fd5b612c24838284613931565b50505092915050565b600081359050612c3c816139bf565b92915050565b600060208284031215612c5457600080fd5b6000612c6284828501612baf565b91505092915050565b60008060408385031215612c7e57600080fd5b6000612c8c85828601612baf565b9250506020612c9d85828601612bc4565b9150509250929050565b60008060408385031215612cba57600080fd5b6000612cc885828601612baf565b9250506020612cd985828601612c2d565b9150509250929050565b60008060408385031215612cf657600080fd5b600083013567ffffffffffffffff811115612d1057600080fd5b612d1c85828601612bd9565b9250506020612d2d85828601612baf565b9150509250929050565b600060208284031215612d4957600080fd5b6000612d5784828501612c2d565b91505092915050565b60008060408385031215612d7357600080fd5b6000612d8185828601612c2d565b9250506020612d9285828601612c2d565b9150509250929050565b600080600080600060a08688031215612db457600080fd5b6000612dc288828901612c2d565b9550506020612dd388828901612c2d565b9450506040612de488828901612c2d565b935050606086013567ffffffffffffffff811115612e0157600080fd5b612e0d88828901612bd9565b9250506080612e1e88828901612baf565b9150509295509295909350565b60008060008060808587031215612e4157600080fd5b6000612e4f87828801612c2d565b9450506020612e6087828801612c2d565b9350506040612e7187828801612c2d565b9250506060612e8287828801612c2d565b91505092959194509250565b6000612e9a838361321f565b905092915050565b6000612eae8383613295565b905092915050565b6000612ec283836132f8565b905092915050565b612ed3816138ba565b82525050565b612ee2816138ba565b82525050565b6000612ef382613807565b612efd8185613865565b935083602082028501612f0f856137d7565b8060005b85811015612f4b5784840389528151612f2c8582612e8e565b9450612f378361383e565b925060208a01995050600181019050612f13565b50829750879550505050505092915050565b6000612f6882613812565b612f728185613876565b935083602082028501612f84856137e7565b8060005b85811015612fc05784840389528151612fa18582612ea2565b9450612fac8361384b565b925060208a01995050600181019050612f88565b50829750879550505050505092915050565b6000612fdd8261381d565b612fe78185613887565b935083602082028501612ff9856137f7565b8060005b8581101561303557848403895281516130168582612eb6565b945061302183613858565b925060208a01995050600181019050612ffd565b50829750879550505050505092915050565b613050816138cc565b82525050565b61305f816138d8565b82525050565b61306e8161391f565b82525050565b600061307f82613833565b61308981856138a9565b9350613099818560208601613940565b6130a281613973565b840191505092915050565b60006130b882613828565b6130c28185613898565b93506130d2818560208601613940565b6130db81613973565b840191505092915050565b60006130f182613828565b6130fb81856138a9565b935061310b818560208601613940565b61311481613973565b840191505092915050565b600061312c600e836138a9565b91507f4e6f7420617574686f72697365640000000000000000000000000000000000006000830152602082019050919050565b600061316c6010836138a9565b91507f696e76616c69642b6d61785f74656d70000000000000000000000000000000006000830152602082019050919050565b60006131ac6010836138a9565b91507f696e76616c69645f6d696e5f74656d70000000000000000000000000000000006000830152602082019050919050565b60006131ec600c836138a9565b91507f696e76616c6964207573657200000000000000000000000000000000000000006000830152602082019050919050565b600060a0830160008301516132376000860182613381565b50602083015161324a6020860182613381565b506040830151848203604086015261326282826130ad565b91505060608301516132776060860182612eca565b50608083015161328a6080860182613381565b508091505092915050565b60006080830160008301516132ad6000860182613381565b50602083015184820360208601526132c582826130ad565b91505060408301516132da6040860182612eca565b5060608301516132ed6060860182613381565b508091505092915050565b600060c083016000830151848203600086015261331582826130ad565b915050602083015161332a6020860182613381565b50604083015161333d6040860182613381565b5060608301516133506060860182613381565b5060808301516133636080860182613381565b5060a083015161337660a0860182612eca565b508091505092915050565b61338a81613915565b82525050565b61339981613915565b82525050565b60006020820190506133b46000830184612ed9565b92915050565b600060208201905081810360008301526133d48184612ee8565b905092915050565b600060208201905081810360008301526133f68184612f5d565b905092915050565b600060208201905081810360008301526134188184612fd2565b905092915050565b600060c082019050818103600083015261343a8189613074565b90506134496020830188613390565b6134566040830187613390565b6134636060830186613390565b6134706080830185613390565b61347d60a0830184612ed9565b979650505050505050565b600060c08201905081810360008301526134a281896130e6565b90506134b16020830188613390565b6134be6040830187613390565b6134cb6060830186613390565b6134d86080830185613390565b6134e560a0830184612ed9565b979650505050505050565b600060208201905081810360008301526135098161311f565b9050919050565b600060208201905081810360008301526135298161315f565b9050919050565b600060208201905081810360008301526135498161319f565b9050919050565b60006020820190508181036000830152613569816131df565b9050919050565b60006020820190506135856000830184613390565b92915050565b60006040820190506135a06000830185613390565b6135ad6020830184612ed9565b9392505050565b6000610100820190506135ca600083018b613390565b6135d7602083018a612ed9565b6135e46040830189613056565b6135f16060830188613390565b6135fe6080830187613390565b61360b60a0830186613390565b61361860c0830185612ed9565b61362560e0830184613065565b9998505050505050505050565b60006080820190506136476000830187613390565b818103602083015261365981866130e6565b90506136686040830185612ed9565b6136756060830184613390565b95945050505050565b600060a0820190506136936000830188613390565b6136a06020830187613390565b81810360408301526136b281866130e6565b90506136c16060830185612ed9565b6136ce6080830184613390565b9695505050505050565b60006060820190506136ed6000830186613390565b6136fa6020830185613390565b6137076040830184613390565b949350505050565b600060e082019050613724600083018a613390565b6137316020830189613390565b61373e6040830188613390565b61374b6060830187613390565b6137586080830186613390565b61376560a0830185613390565b61377260c0830184613047565b98975050505050505050565b6000604051905081810181811067ffffffffffffffff821117156137a157600080fd5b8060405250919050565b600067ffffffffffffffff8211156137c257600080fd5b601f19601f8301169050602081019050919050565b6000819050602082019050919050565b6000819050602082019050919050565b6000819050602082019050919050565b600081519050919050565b600081519050919050565b600081519050919050565b600081519050919050565b600081519050919050565b6000602082019050919050565b6000602082019050919050565b6000602082019050919050565b600082825260208201905092915050565b600082825260208201905092915050565b600082825260208201905092915050565b600082825260208201905092915050565b600082825260208201905092915050565b60006138c5826138f5565b9050919050565b60008115159050919050565b6000819050919050565b60008190506138f082613984565b919050565b600073ffffffffffffffffffffffffffffffffffffffff82169050919050565b6000819050919050565b600061392a826138e2565b9050919050565b82818337600083830152505050565b60005b8381101561395e578082015181840152602081019050613943565b8381111561396d576000848401525b50505050565b6000601f19601f8301169050919050565b6004811061398e57fe5b50565b61399a816138ba565b81146139a557600080fd5b50565b6139b1816138d8565b81146139bc57600080fd5b50565b6139c881613915565b81146139d357600080fd5b5056fea365627a7a72315820f75cee347ae277f12de59522e3f434c6426d2e819445a64b32bd4df47dc968c96c6578706572696d656e74616cf564736f6c63430005100040",
  "source": "pragma solidity ^0.5.16;\r\npragma experimental ABIEncoderV2;\r\n\r\ncontract vaccine{\r\n    uint public total_registration;\r\n    uint public center_counts;\r\n    uint public types_counts;\r\n    address public _owner;\r\n    uint public vaccines_counts;\r\n    uint public states_count;\r\n    uint public district_count;\r\n\r\n    \r\n    enum completion {notregister,registred, pending , Completed}\r\n    enum stages {registered ,first_vaccine,second_vaccine,completed}\r\n    \r\n    struct benificiary{\r\n        uint benificiary_id;\r\n        address benificiary_add;\r\n        bytes32 medical_records;\r\n        uint medical_center;\r\n        uint vaccine_id_1;\r\n        uint vaccine_id_2;\r\n        address medical_reprentative;\r\n        stages status;\r\n    }\r\n    \r\n    struct medical_center{\r\n        uint center_id;\r\n        address medical_representative;\r\n    }\r\n    \r\n    struct vaccine_type{\r\n        string name;\r\n        uint company_id;\r\n        uint valid_days;\r\n        uint temp_min;\r\n        uint temp_max;\r\n        address company_add;\r\n    }\r\n\r\n    struct order{\r\n        uint company_id;\r\n        uint date;\r\n        uint allotment;\r\n    }\r\n    \r\n    struct vaccines{\r\n        uint id;\r\n        uint batch;\r\n        uint company_id;\r\n        uint manunfactured_date;\r\n        uint temp_min;\r\n        uint temp_max;\r\n        bool valid;\r\n    }\r\n    \r\n    struct manager{\r\n        uint company_id;\r\n        address manager_add;\r\n    }\r\n\r\n\r\n    struct state{\r\n        uint id;\r\n        string name;\r\n        address state_add;\r\n        uint allocation;\r\n    }\r\n\r\n    struct district{\r\n        uint stateid;\r\n        uint id;\r\n        string name;\r\n        address add;\r\n        uint allocation;\r\n    }\r\n\r\n    event _district(\r\n        uint stateid,\r\n        uint id,\r\n        string name,\r\n        address add,\r\n        uint allocation\r\n    );\r\n\r\n    event _state(\r\n        uint id,\r\n        string name,\r\n        address state_add,\r\n        uint allocation\r\n    );\r\n\r\n    event _benificiary(\r\n        uint benificiary_id,\r\n        address benificiary_add,\r\n        bytes32 medical_records,\r\n        uint medical_center,\r\n        uint vaccine_id_1,\r\n        uint vaccine_id_2,\r\n        address medical_reprentative,\r\n        stages status\r\n    );\r\n    \r\n    event _medical_center(\r\n        uint center_id,\r\n        address medical_representative\r\n    );\r\n    \r\n    event _vaccine_type(\r\n        string name,\r\n        uint company_id,\r\n        uint valid_days,\r\n        uint temp_min,\r\n        uint temp_max,\r\n        address company_add\r\n    );\r\n    \r\n    event _vaccine(\r\n        uint id,\r\n        uint batch,\r\n        uint company_id,\r\n        uint manunfactured_date,\r\n        uint temp_min,\r\n        uint temp_max,\r\n        bool valid\r\n    );\r\n    \r\n    event _manager(\r\n        uint company_id,\r\n        address manager_add\r\n    );\r\n    \r\n    \r\n    \r\n    modifier onlyOwner {\r\n        require(msg.sender == _owner,'Not authorised');\r\n        _;\r\n    }\r\n    \r\n    \r\n    mapping(address=>benificiary) public _benificiaries;\r\n    mapping(address => medical_center) public _medical_representatives;\r\n    mapping(uint => vaccine_type) public _vaccine_types;\r\n    mapping(uint => vaccines) public _vaccines;\r\n    mapping(address => manager) public _managers;\r\n    mapping(address => state) public states;\r\n    mapping(address => district) public districts;\r\n    mapping(uint => order) public orders;\r\n\r\n    state[] public stateInfo;\r\n    state private stateTemp;\r\n\r\n    district[] public districtInfo;\r\n    district private districtTemp;\r\n\r\n    vaccine_type[] public vaccinesInfo;\r\n    vaccine_type private vaccineTemp;\r\n    \r\n    constructor() public\r\n    {\r\n        _owner = msg.sender;\r\n        center_counts = 0;\r\n        total_registration = 0;\r\n        types_counts = 0;\r\n        vaccines_counts = 0;\r\n        states_count = 0;\r\n        district_count = 0;\r\n    }\r\n    \r\n    \r\n    function transferOwnership(address benificiary_add) public onlyOwner\r\n    {\r\n        _owner = benificiary_add;\r\n    }\r\n    \r\n   // function update_medical_representative(address representative_add,address )\r\n    function View_Owner() public view returns(address){\r\n        return _owner;\r\n    }\r\n\r\n    function View_types_Count() public view returns(uint){\r\n        return types_counts;\r\n    }\r\n\r\n\r\n    \r\n    function register_state(string memory name,address state_add)public onlyOwner\r\n    {\r\n        stateTemp.id = states_count;\r\n        stateTemp.name = name;\r\n        stateTemp.state_add = state_add;\r\n        stateTemp.allocation = 0;\r\n        stateInfo.push(stateTemp);\r\n        states[state_add] = stateTemp;\r\n        states_count++;\r\n    }\r\n\r\n    function update_state(uint state_id,uint newOrder)public onlyOwner\r\n    {\r\n        stateInfo[state_id].allocation+=newOrder;\r\n        states[stateInfo[state_id].state_add].allocation+=newOrder;\r\n    }\r\n\r\n\r\n    function place_order(uint company_id,uint newOrder)public onlyOwner\r\n    {\r\n        orders[company_id].allotment+=newOrder;\r\n    }\r\n\r\n    function register_district(string memory name,address district_add)public onlyOwner\r\n    {\r\n        districtTemp.stateid = states[msg.sender].id;\r\n        districtTemp.id = district_count;\r\n        districtTemp.name = name;\r\n        districtTemp.add = district_add;\r\n        districtTemp.allocation = 0;\r\n        districtInfo.push(districtTemp);\r\n        districts[district_add] = districtTemp;\r\n        district_count++;\r\n    }\r\n\r\n    function update_district_allocation(uint district_id,uint newOrder)public onlyOwner\r\n    {\r\n        districtInfo[district_id].allocation+=newOrder;\r\n        districts[districtInfo[district_id].add].allocation+=newOrder;\r\n    }\r\n\r\n\r\n    function getAllStatesInfo() public view returns (state[] memory)\r\n    {\r\n        return stateInfo;\r\n    }\r\n\r\n    function getAllvaccineInfo() public view returns (vaccine_type[] memory)\r\n    {\r\n        return vaccinesInfo;\r\n    }\r\n\r\n    function getAllDistrictInfo() public view returns (district[] memory)\r\n    {\r\n        return districtInfo;\r\n    }\r\n\r\n\r\n    function register_company(uint period,uint temp_min,uint temp_max,string memory name,address company_add)public onlyOwner\r\n    {\r\n        types_counts++;\r\n\r\n        vaccineTemp.name = name;\r\n        vaccineTemp.company_id = types_counts;\r\n        vaccineTemp.temp_max = temp_max;\r\n        vaccineTemp.temp_min = temp_min;\r\n        vaccineTemp.valid_days = period;\r\n        vaccineTemp.company_add = company_add;\r\n\r\n        _vaccine_types[types_counts] = vaccineTemp;\r\n        vaccinesInfo.push(vaccineTemp);\r\n\r\n        _managers[company_add].company_id =types_counts;\r\n        _managers[company_add].manager_add = company_add;\r\n\r\n         emit _vaccine_type(name,types_counts,period,temp_min,temp_max,company_add);\r\n\r\n         types_counts++;\r\n    }\r\n    \r\n    \r\n    function vaccine_registration(uint company_id,uint batch,uint time,uint cur_temp)public\r\n    {\r\n        require(_vaccine_types[company_id].company_add == msg.sender,\"invalid user\");\r\n        vaccines_counts++;\r\n        _vaccines[vaccines_counts].id = vaccines_counts;\r\n        _vaccines[vaccines_counts].batch = batch;\r\n        _vaccines[vaccines_counts].manunfactured_date = time;\r\n        _vaccines[vaccines_counts].valid = true;\r\n        _vaccines[vaccines_counts].temp_min = cur_temp;\r\n        _vaccines[vaccines_counts].temp_max = cur_temp;\r\n    }\r\n    \r\n    \r\n    function register_benificiary(address benificiary_add,bytes32 record_hash) public\r\n    {\r\n        require(record_hash.length > 0);\r\n        require(_medical_representatives[msg.sender].center_id > 0);\r\n        total_registration++;\r\n        _benificiaries[benificiary_add].benificiary_id = total_registration;\r\n        _benificiaries[benificiary_add].benificiary_add = benificiary_add;\r\n        _benificiaries[benificiary_add].medical_reprentative = msg.sender;\r\n        _benificiaries[benificiary_add].medical_center = _medical_representatives[msg.sender].center_id;\r\n        _benificiaries[benificiary_add].vaccine_id_1 = 0;\r\n        _benificiaries[benificiary_add].vaccine_id_2 = 0;\r\n        \r\n        \r\n    }\r\n    \r\n    function register_medical_representative(address representative_add)public onlyOwner\r\n    {\r\n        center_counts++;\r\n        _medical_representatives[representative_add].center_id = center_counts;\r\n        _medical_representatives[representative_add].medical_representative = representative_add;\r\n        \r\n        emit _medical_center(center_counts++, representative_add);\r\n    }\r\n    \r\n    function vaccinate(address benificiary_add,uint vaccine_id)public\r\n    {\r\n         require(_vaccines[vaccine_id].temp_min > _vaccine_types[_vaccines[vaccine_id].company_id].temp_min,'invalid_min_temp');\r\n         require(_vaccines[vaccine_id].temp_max < _vaccine_types[_vaccines[vaccine_id].company_id].temp_max,'invalid+max_temp');\r\n         require(_vaccines[vaccine_id].valid);\r\n         if(_benificiaries[benificiary_add].status == stages(0))\r\n         {\r\n            _benificiaries[benificiary_add].vaccine_id_1 = vaccine_id;\r\n            _benificiaries[benificiary_add].status = stages(1);\r\n         }\r\n         else \r\n         {\r\n            _benificiaries[benificiary_add].vaccine_id_2 = vaccine_id;   \r\n            _benificiaries[benificiary_add].status = stages(2);\r\n         }\r\n     }\r\n    \r\n    \r\n}",
  "sourcePath": "D:/College/SEM 8/major project/contracts/vaccine.sol",
  "compiler": {
    "name": "solc",
    "version": "0.5.16+commit.9c3226ce.Emscripten.clang"
  },
  "schemaVersion": "3.2.4",
  "updatedAt": "2021-05-05T09:53:52.563Z",
  "devdoc": {
    "methods": {}
  },
  "userdoc": {
    "methods": {}
  }
}