{
  "contractName": "vaccine",
  "abi": [
    {
      "inputs": [],
      "payable": false,
      "stateMutability": "nonpayable",
      "type": "constructor"
    },
    {
      "anonymous": false,
      "inputs": [
        {
          "indexed": false,
          "internalType": "uint256",
          "name": "benificiary_id",
          "type": "uint256"
        },
        {
          "indexed": false,
          "internalType": "address",
          "name": "benificiary_add",
          "type": "address"
        },
        {
          "indexed": false,
          "internalType": "bytes32",
          "name": "medical_records",
          "type": "bytes32"
        },
        {
          "indexed": false,
          "internalType": "uint256",
          "name": "medical_center",
          "type": "uint256"
        },
        {
          "indexed": false,
          "internalType": "uint256",
          "name": "vaccine_id_1",
          "type": "uint256"
        },
        {
          "indexed": false,
          "internalType": "uint256",
          "name": "vaccine_id_2",
          "type": "uint256"
        },
        {
          "indexed": false,
          "internalType": "address",
          "name": "medical_reprentative",
          "type": "address"
        },
        {
          "indexed": false,
          "internalType": "enum vaccine.stages",
          "name": "status",
          "type": "uint8"
        }
      ],
      "name": "_benificiary",
      "type": "event"
    },
    {
      "anonymous": false,
      "inputs": [
        {
          "indexed": false,
          "internalType": "uint256",
          "name": "id",
          "type": "uint256"
        },
        {
          "indexed": false,
          "internalType": "string",
          "name": "name",
          "type": "string"
        },
        {
          "indexed": false,
          "internalType": "address",
          "name": "add",
          "type": "address"
        },
        {
          "indexed": false,
          "internalType": "uint256",
          "name": "allocation",
          "type": "uint256"
        }
      ],
      "name": "_district",
      "type": "event"
    },
    {
      "anonymous": false,
      "inputs": [
        {
          "indexed": false,
          "internalType": "uint256",
          "name": "company_id",
          "type": "uint256"
        },
        {
          "indexed": false,
          "internalType": "address",
          "name": "manager_add",
          "type": "address"
        }
      ],
      "name": "_manager",
      "type": "event"
    },
    {
      "anonymous": false,
      "inputs": [
        {
          "indexed": false,
          "internalType": "uint256",
          "name": "center_id",
          "type": "uint256"
        },
        {
          "indexed": false,
          "internalType": "address",
          "name": "medical_representative",
          "type": "address"
        }
      ],
      "name": "_medical_center",
      "type": "event"
    },
    {
      "anonymous": false,
      "inputs": [
        {
          "indexed": false,
          "internalType": "uint256",
          "name": "id",
          "type": "uint256"
        },
        {
          "indexed": false,
          "internalType": "string",
          "name": "name",
          "type": "string"
        },
        {
          "indexed": false,
          "internalType": "address",
          "name": "state_add",
          "type": "address"
        },
        {
          "indexed": false,
          "internalType": "uint256",
          "name": "allocation",
          "type": "uint256"
        }
      ],
      "name": "_state",
      "type": "event"
    },
    {
      "anonymous": false,
      "inputs": [
        {
          "indexed": false,
          "internalType": "uint256",
          "name": "id",
          "type": "uint256"
        },
        {
          "indexed": false,
          "internalType": "uint256",
          "name": "batch",
          "type": "uint256"
        },
        {
          "indexed": false,
          "internalType": "uint256",
          "name": "company_id",
          "type": "uint256"
        },
        {
          "indexed": false,
          "internalType": "uint256",
          "name": "manunfactured_date",
          "type": "uint256"
        },
        {
          "indexed": false,
          "internalType": "uint256",
          "name": "temp_min",
          "type": "uint256"
        },
        {
          "indexed": false,
          "internalType": "uint256",
          "name": "temp_max",
          "type": "uint256"
        },
        {
          "indexed": false,
          "internalType": "bool",
          "name": "valid",
          "type": "bool"
        }
      ],
      "name": "_vaccine",
      "type": "event"
    },
    {
      "anonymous": false,
      "inputs": [
        {
          "indexed": false,
          "internalType": "string",
          "name": "name",
          "type": "string"
        },
        {
          "indexed": false,
          "internalType": "uint256",
          "name": "company_id",
          "type": "uint256"
        },
        {
          "indexed": false,
          "internalType": "uint256",
          "name": "valid_days",
          "type": "uint256"
        },
        {
          "indexed": false,
          "internalType": "uint256",
          "name": "temp_min",
          "type": "uint256"
        },
        {
          "indexed": false,
          "internalType": "uint256",
          "name": "temp_max",
          "type": "uint256"
        },
        {
          "indexed": false,
          "internalType": "address",
          "name": "company_add",
          "type": "address"
        }
      ],
      "name": "_vaccine_type",
      "type": "event"
    },
    {
      "constant": true,
      "inputs": [
        {
          "internalType": "address",
          "name": "",
          "type": "address"
        }
      ],
      "name": "_benificiaries",
      "outputs": [
        {
          "internalType": "uint256",
          "name": "benificiary_id",
          "type": "uint256"
        },
        {
          "internalType": "address",
          "name": "benificiary_add",
          "type": "address"
        },
        {
          "internalType": "bytes32",
          "name": "medical_records",
          "type": "bytes32"
        },
        {
          "internalType": "uint256",
          "name": "medical_center",
          "type": "uint256"
        },
        {
          "internalType": "uint256",
          "name": "vaccine_id_1",
          "type": "uint256"
        },
        {
          "internalType": "uint256",
          "name": "vaccine_id_2",
          "type": "uint256"
        },
        {
          "internalType": "address",
          "name": "medical_reprentative",
          "type": "address"
        },
        {
          "internalType": "enum vaccine.stages",
          "name": "status",
          "type": "uint8"
        }
      ],
      "payable": false,
      "stateMutability": "view",
      "type": "function"
    },
    {
      "constant": true,
      "inputs": [
        {
          "internalType": "address",
          "name": "",
          "type": "address"
        }
      ],
      "name": "_managers",
      "outputs": [
        {
          "internalType": "uint256",
          "name": "company_id",
          "type": "uint256"
        },
        {
          "internalType": "address",
          "name": "manager_add",
          "type": "address"
        }
      ],
      "payable": false,
      "stateMutability": "view",
      "type": "function"
    },
    {
      "constant": true,
      "inputs": [
        {
          "internalType": "address",
          "name": "",
          "type": "address"
        }
      ],
      "name": "_medical_representatives",
      "outputs": [
        {
          "internalType": "uint256",
          "name": "center_id",
          "type": "uint256"
        },
        {
          "internalType": "address",
          "name": "medical_representative",
          "type": "address"
        }
      ],
      "payable": false,
      "stateMutability": "view",
      "type": "function"
    },
    {
      "constant": true,
      "inputs": [],
      "name": "_owner",
      "outputs": [
        {
          "internalType": "address",
          "name": "",
          "type": "address"
        }
      ],
      "payable": false,
      "stateMutability": "view",
      "type": "function"
    },
    {
      "constant": true,
      "inputs": [
        {
          "internalType": "uint256",
          "name": "",
          "type": "uint256"
        }
      ],
      "name": "_vaccine_types",
      "outputs": [
        {
          "internalType": "string",
          "name": "name",
          "type": "string"
        },
        {
          "internalType": "uint256",
          "name": "company_id",
          "type": "uint256"
        },
        {
          "internalType": "uint256",
          "name": "valid_days",
          "type": "uint256"
        },
        {
          "internalType": "uint256",
          "name": "temp_min",
          "type": "uint256"
        },
        {
          "internalType": "uint256",
          "name": "temp_max",
          "type": "uint256"
        },
        {
          "internalType": "address",
          "name": "company_add",
          "type": "address"
        }
      ],
      "payable": false,
      "stateMutability": "view",
      "type": "function"
    },
    {
      "constant": true,
      "inputs": [
        {
          "internalType": "uint256",
          "name": "",
          "type": "uint256"
        }
      ],
      "name": "_vaccines",
      "outputs": [
        {
          "internalType": "uint256",
          "name": "id",
          "type": "uint256"
        },
        {
          "internalType": "uint256",
          "name": "batch",
          "type": "uint256"
        },
        {
          "internalType": "uint256",
          "name": "company_id",
          "type": "uint256"
        },
        {
          "internalType": "uint256",
          "name": "manunfactured_date",
          "type": "uint256"
        },
        {
          "internalType": "uint256",
          "name": "temp_min",
          "type": "uint256"
        },
        {
          "internalType": "uint256",
          "name": "temp_max",
          "type": "uint256"
        },
        {
          "internalType": "bool",
          "name": "valid",
          "type": "bool"
        }
      ],
      "payable": false,
      "stateMutability": "view",
      "type": "function"
    },
    {
      "constant": true,
      "inputs": [],
      "name": "center_counts",
      "outputs": [
        {
          "internalType": "uint256",
          "name": "",
          "type": "uint256"
        }
      ],
      "payable": false,
      "stateMutability": "view",
      "type": "function"
    },
    {
      "constant": true,
      "inputs": [
        {
          "internalType": "uint256",
          "name": "",
          "type": "uint256"
        }
      ],
      "name": "districtInfo",
      "outputs": [
        {
          "internalType": "uint256",
          "name": "id",
          "type": "uint256"
        },
        {
          "internalType": "string",
          "name": "name",
          "type": "string"
        },
        {
          "internalType": "address",
          "name": "add",
          "type": "address"
        },
        {
          "internalType": "uint256",
          "name": "allocation",
          "type": "uint256"
        }
      ],
      "payable": false,
      "stateMutability": "view",
      "type": "function"
    },
    {
      "constant": true,
      "inputs": [],
      "name": "district_count",
      "outputs": [
        {
          "internalType": "uint256",
          "name": "",
          "type": "uint256"
        }
      ],
      "payable": false,
      "stateMutability": "view",
      "type": "function"
    },
    {
      "constant": true,
      "inputs": [
        {
          "internalType": "address",
          "name": "",
          "type": "address"
        }
      ],
      "name": "districts",
      "outputs": [
        {
          "internalType": "uint256",
          "name": "id",
          "type": "uint256"
        },
        {
          "internalType": "string",
          "name": "name",
          "type": "string"
        },
        {
          "internalType": "address",
          "name": "add",
          "type": "address"
        },
        {
          "internalType": "uint256",
          "name": "allocation",
          "type": "uint256"
        }
      ],
      "payable": false,
      "stateMutability": "view",
      "type": "function"
    },
    {
      "constant": true,
      "inputs": [
        {
          "internalType": "uint256",
          "name": "",
          "type": "uint256"
        }
      ],
      "name": "orders",
      "outputs": [
        {
          "internalType": "uint256",
          "name": "company_id",
          "type": "uint256"
        },
        {
          "internalType": "uint256",
          "name": "allotment",
          "type": "uint256"
        }
      ],
      "payable": false,
      "stateMutability": "view",
      "type": "function"
    },
    {
      "constant": true,
      "inputs": [
        {
          "internalType": "uint256",
          "name": "",
          "type": "uint256"
        }
      ],
      "name": "stateInfo",
      "outputs": [
        {
          "internalType": "uint256",
          "name": "id",
          "type": "uint256"
        },
        {
          "internalType": "string",
          "name": "name",
          "type": "string"
        },
        {
          "internalType": "address",
          "name": "state_add",
          "type": "address"
        },
        {
          "internalType": "uint256",
          "name": "allocation",
          "type": "uint256"
        }
      ],
      "payable": false,
      "stateMutability": "view",
      "type": "function"
    },
    {
      "constant": true,
      "inputs": [
        {
          "internalType": "address",
          "name": "",
          "type": "address"
        }
      ],
      "name": "states",
      "outputs": [
        {
          "internalType": "uint256",
          "name": "id",
          "type": "uint256"
        },
        {
          "internalType": "string",
          "name": "name",
          "type": "string"
        },
        {
          "internalType": "address",
          "name": "state_add",
          "type": "address"
        },
        {
          "internalType": "uint256",
          "name": "allocation",
          "type": "uint256"
        }
      ],
      "payable": false,
      "stateMutability": "view",
      "type": "function"
    },
    {
      "constant": true,
      "inputs": [],
      "name": "states_count",
      "outputs": [
        {
          "internalType": "uint256",
          "name": "",
          "type": "uint256"
        }
      ],
      "payable": false,
      "stateMutability": "view",
      "type": "function"
    },
    {
      "constant": true,
      "inputs": [],
      "name": "total_registration",
      "outputs": [
        {
          "internalType": "uint256",
          "name": "",
          "type": "uint256"
        }
      ],
      "payable": false,
      "stateMutability": "view",
      "type": "function"
    },
    {
      "constant": true,
      "inputs": [],
      "name": "types_counts",
      "outputs": [
        {
          "internalType": "uint256",
          "name": "",
          "type": "uint256"
        }
      ],
      "payable": false,
      "stateMutability": "view",
      "type": "function"
    },
    {
      "constant": true,
      "inputs": [
        {
          "internalType": "uint256",
          "name": "",
          "type": "uint256"
        }
      ],
      "name": "vaccinesInfo",
      "outputs": [
        {
          "internalType": "string",
          "name": "name",
          "type": "string"
        },
        {
          "internalType": "uint256",
          "name": "company_id",
          "type": "uint256"
        },
        {
          "internalType": "uint256",
          "name": "valid_days",
          "type": "uint256"
        },
        {
          "internalType": "uint256",
          "name": "temp_min",
          "type": "uint256"
        },
        {
          "internalType": "uint256",
          "name": "temp_max",
          "type": "uint256"
        },
        {
          "internalType": "address",
          "name": "company_add",
          "type": "address"
        }
      ],
      "payable": false,
      "stateMutability": "view",
      "type": "function"
    },
    {
      "constant": true,
      "inputs": [],
      "name": "vaccines_counts",
      "outputs": [
        {
          "internalType": "uint256",
          "name": "",
          "type": "uint256"
        }
      ],
      "payable": false,
      "stateMutability": "view",
      "type": "function"
    },
    {
      "constant": false,
      "inputs": [
        {
          "internalType": "address",
          "name": "benificiary_add",
          "type": "address"
        }
      ],
      "name": "transferOwnership",
      "outputs": [],
      "payable": false,
      "stateMutability": "nonpayable",
      "type": "function"
    },
    {
      "constant": true,
      "inputs": [],
      "name": "View_Owner",
      "outputs": [
        {
          "internalType": "address",
          "name": "",
          "type": "address"
        }
      ],
      "payable": false,
      "stateMutability": "view",
      "type": "function"
    },
    {
      "constant": true,
      "inputs": [],
      "name": "View_types_Count",
      "outputs": [
        {
          "internalType": "uint256",
          "name": "",
          "type": "uint256"
        }
      ],
      "payable": false,
      "stateMutability": "view",
      "type": "function"
    },
    {
      "constant": false,
      "inputs": [
        {
          "internalType": "string",
          "name": "name",
          "type": "string"
        },
        {
          "internalType": "address",
          "name": "state_add",
          "type": "address"
        }
      ],
      "name": "register_state",
      "outputs": [],
      "payable": false,
      "stateMutability": "nonpayable",
      "type": "function"
    },
    {
      "constant": false,
      "inputs": [
        {
          "internalType": "uint256",
          "name": "state_id",
          "type": "uint256"
        },
        {
          "internalType": "uint256",
          "name": "newOrder",
          "type": "uint256"
        }
      ],
      "name": "update_state",
      "outputs": [],
      "payable": false,
      "stateMutability": "nonpayable",
      "type": "function"
    },
    {
      "constant": false,
      "inputs": [
        {
          "internalType": "uint256",
          "name": "company_id",
          "type": "uint256"
        },
        {
          "internalType": "uint256",
          "name": "newOrder",
          "type": "uint256"
        }
      ],
      "name": "place_order",
      "outputs": [],
      "payable": false,
      "stateMutability": "nonpayable",
      "type": "function"
    },
    {
      "constant": false,
      "inputs": [
        {
          "internalType": "string",
          "name": "name",
          "type": "string"
        },
        {
          "internalType": "address",
          "name": "district_add",
          "type": "address"
        }
      ],
      "name": "register_district",
      "outputs": [],
      "payable": false,
      "stateMutability": "nonpayable",
      "type": "function"
    },
    {
      "constant": false,
      "inputs": [
        {
          "internalType": "uint256",
          "name": "district_id",
          "type": "uint256"
        },
        {
          "internalType": "uint256",
          "name": "newOrder",
          "type": "uint256"
        }
      ],
      "name": "update_district_allocation",
      "outputs": [],
      "payable": false,
      "stateMutability": "nonpayable",
      "type": "function"
    },
    {
      "constant": true,
      "inputs": [],
      "name": "getAllStatesInfo",
      "outputs": [
        {
          "components": [
            {
              "internalType": "uint256",
              "name": "id",
              "type": "uint256"
            },
            {
              "internalType": "string",
              "name": "name",
              "type": "string"
            },
            {
              "internalType": "address",
              "name": "state_add",
              "type": "address"
            },
            {
              "internalType": "uint256",
              "name": "allocation",
              "type": "uint256"
            }
          ],
          "internalType": "struct vaccine.state[]",
          "name": "",
          "type": "tuple[]"
        }
      ],
      "payable": false,
      "stateMutability": "view",
      "type": "function"
    },
    {
      "constant": true,
      "inputs": [],
      "name": "getAllvaccineInfo",
      "outputs": [
        {
          "components": [
            {
              "internalType": "string",
              "name": "name",
              "type": "string"
            },
            {
              "internalType": "uint256",
              "name": "company_id",
              "type": "uint256"
            },
            {
              "internalType": "uint256",
              "name": "valid_days",
              "type": "uint256"
            },
            {
              "internalType": "uint256",
              "name": "temp_min",
              "type": "uint256"
            },
            {
              "internalType": "uint256",
              "name": "temp_max",
              "type": "uint256"
            },
            {
              "internalType": "address",
              "name": "company_add",
              "type": "address"
            }
          ],
          "internalType": "struct vaccine.vaccine_type[]",
          "name": "",
          "type": "tuple[]"
        }
      ],
      "payable": false,
      "stateMutability": "view",
      "type": "function"
    },
    {
      "constant": true,
      "inputs": [],
      "name": "getAllDistrictInfo",
      "outputs": [
        {
          "components": [
            {
              "internalType": "uint256",
              "name": "id",
              "type": "uint256"
            },
            {
              "internalType": "string",
              "name": "name",
              "type": "string"
            },
            {
              "internalType": "address",
              "name": "add",
              "type": "address"
            },
            {
              "internalType": "uint256",
              "name": "allocation",
              "type": "uint256"
            }
          ],
          "internalType": "struct vaccine.district[]",
          "name": "",
          "type": "tuple[]"
        }
      ],
      "payable": false,
      "stateMutability": "view",
      "type": "function"
    },
    {
      "constant": false,
      "inputs": [
        {
          "internalType": "uint256",
          "name": "period",
          "type": "uint256"
        },
        {
          "internalType": "uint256",
          "name": "temp_min",
          "type": "uint256"
        },
        {
          "internalType": "uint256",
          "name": "temp_max",
          "type": "uint256"
        },
        {
          "internalType": "string",
          "name": "name",
          "type": "string"
        },
        {
          "internalType": "address",
          "name": "company_add",
          "type": "address"
        }
      ],
      "name": "register_company",
      "outputs": [],
      "payable": false,
      "stateMutability": "nonpayable",
      "type": "function"
    },
    {
      "constant": false,
      "inputs": [
        {
          "internalType": "uint256",
          "name": "company_id",
          "type": "uint256"
        },
        {
          "internalType": "uint256",
          "name": "batch",
          "type": "uint256"
        },
        {
          "internalType": "uint256",
          "name": "time",
          "type": "uint256"
        },
        {
          "internalType": "uint256",
          "name": "cur_temp",
          "type": "uint256"
        }
      ],
      "name": "vaccine_registration",
      "outputs": [],
      "payable": false,
      "stateMutability": "nonpayable",
      "type": "function"
    },
    {
      "constant": false,
      "inputs": [
        {
          "internalType": "address",
          "name": "benificiary_add",
          "type": "address"
        },
        {
          "internalType": "bytes32",
          "name": "record_hash",
          "type": "bytes32"
        }
      ],
      "name": "register_benificiary",
      "outputs": [],
      "payable": false,
      "stateMutability": "nonpayable",
      "type": "function"
    },
    {
      "constant": false,
      "inputs": [
        {
          "internalType": "address",
          "name": "representative_add",
          "type": "address"
        }
      ],
      "name": "register_medical_representative",
      "outputs": [],
      "payable": false,
      "stateMutability": "nonpayable",
      "type": "function"
    },
    {
      "constant": false,
      "inputs": [
        {
          "internalType": "address",
          "name": "benificiary_add",
          "type": "address"
        },
        {
          "internalType": "uint256",
          "name": "vaccine_id",
          "type": "uint256"
        }
      ],
      "name": "vaccinate",
      "outputs": [],
      "payable": false,
      "stateMutability": "nonpayable",
      "type": "function"
    }
  ],
  "bytecode": "0x608060405234801561001057600080fd5b5033600360006101000a81548173ffffffffffffffffffffffffffffffffffffffff021916908373ffffffffffffffffffffffffffffffffffffffff16021790555060006001819055506000808190555060006002819055506000600481905550600060058190555060006006819055506137c5806100906000396000f3fe608060405234801561001057600080fd5b50600436106102065760003560e01c806381bf53401161011a578063c1f06446116100ad578063d651d5fe1161007c578063d651d5fe1461061b578063e8ff953814610639578063f2fde38b14610657578063f40d366014610673578063f4a31a04146106a857610206565b8063c1f064461461057c578063ca176ee9146105b2578063d5803e97146105ce578063d5d31abe146105ea57610206565b80639a74cc1b116100e95780639a74cc1b146104f1578063a4d348431461050f578063a85c38ef1461052d578063b2bdfa7b1461055e57610206565b806381bf53401461047f57806386675ead1461049b57806391c5500f146104b757806398e1c2f4146104d557610206565b80633ad05ca21161019d578063744ee9a31161016c578063744ee9a3146103c157806374529683146103df5780637553ad4d1461041057806375b08c211461042c5780637d9efad41461046357610206565b80633ad05ca2146103365780634f07d5c914610354578063682fbf811461037257806373c033551461038e57610206565b80630c96a059116101d95780630c96a059146102c057806311e7df17146102de5780631fcf959b146102fa578063360294ec1461031857610206565b806302a223371461020b57806307d1b2271461023e57806308124fa1146102715780630b7633791461028d575b600080fd5b61022560048036036102209190810190612a69565b6106dd565b6040516102359493929190613446565b60405180910390f35b61025860048036036102539190810190612b5e565b6107c5565b6040516102689493929190613446565b60405180910390f35b61028b60048036036102869190810190612b0a565b6108ba565b005b6102a760048036036102a29190810190612a69565b610b91565b6040516102b79493929190613446565b60405180910390f35b6102c8610c79565b6040516102d59190613384565b60405180910390f35b6102f860048036036102f39190810190612b87565b610c83565b005b610302610d3b565b60405161030f9190613212565b60405180910390f35b610320610eba565b60405161032d9190613384565b60405180910390f35b61033e610ec0565b60405161034b91906131f0565b60405180910390f35b61035c61102b565b60405161036991906131ce565b60405180910390f35b61038c60048036036103879190810190612ace565b611196565b005b6103a860048036036103a39190810190612b5e565b6114ba565b6040516103b89493929190613446565b60405180910390f35b6103c96115af565b6040516103d691906131b3565b60405180910390f35b6103f960048036036103f49190810190612a69565b6115d9565b60405161040792919061339f565b60405180910390f35b61042a60048036036104259190810190612c52565b61161d565b005b61044660048036036104419190810190612a69565b61179d565b60405161045a9897969594939291906133c8565b60405180910390f35b61047d60048036036104789190810190612a69565b611832565b005b61049960048036036104949190810190612b87565b6119ea565b005b6104b560048036036104b09190810190612bc3565b611b38565b005b6104bf611de8565b6040516104cc9190613384565b60405180910390f35b6104ef60048036036104ea9190810190612b0a565b611dee565b005b6104f96120c5565b6040516105069190613384565b60405180910390f35b6105176120cb565b6040516105249190613384565b60405180910390f35b61054760048036036105429190810190612b5e565b6120d1565b604051610555929190613492565b60405180910390f35b6105666120f5565b60405161057391906131b3565b60405180910390f35b61059660048036036105919190810190612b5e565b61211b565b6040516105a997969594939291906134bb565b60405180910390f35b6105cc60048036036105c79190810190612b87565b61216a565b005b6105e860048036036105e39190810190612a92565b6122b8565b005b61060460048036036105ff9190810190612a69565b612591565b60405161061292919061339f565b60405180910390f35b6106236125d5565b6040516106309190613384565b60405180910390f35b6106416125db565b60405161064e9190613384565b60405180910390f35b610671600480360361066c9190810190612a69565b6125e1565b005b61068d60048036036106889190810190612b5e565b6126b5565b60405161069f9695949392919061329c565b60405180910390f35b6106c260048036036106bd9190810190612b5e565b6127b6565b6040516106d49695949392919061329c565b60405180910390f35b600c602052806000526040600020600091509050806000015490806001018054600181600116156101000203166002900480601f01602080910402602001604051908101604052809291908181526020018280546001816001161561010002031660029004801561078f5780601f106107645761010080835404028352916020019161078f565b820191906000526020600020905b81548152906001019060200180831161077257829003601f168201915b5050505050908060020160009054906101000a900473ffffffffffffffffffffffffffffffffffffffff16908060030154905084565b601481815481106107d257fe5b9060005260206000209060040201600091509050806000015490806001018054600181600116156101000203166002900480601f0160208091040260200160405190810160405280929190818152602001828054600181600116156101000203166002900480156108845780601f1061085957610100808354040283529160200191610884565b820191906000526020600020905b81548152906001019060200180831161086757829003601f168201915b5050505050908060020160009054906101000a900473ffffffffffffffffffffffffffffffffffffffff16908060030154905084565b600360009054906101000a900473ffffffffffffffffffffffffffffffffffffffff1673ffffffffffffffffffffffffffffffffffffffff163373ffffffffffffffffffffffffffffffffffffffff161461094a576040517f08c379a000000000000000000000000000000000000000000000000000000000815260040161094190613304565b60405180910390fd5b600554601060000181905550816010600101908051906020019061096f9291906128aa565b5080601060020160006101000a81548173ffffffffffffffffffffffffffffffffffffffff021916908373ffffffffffffffffffffffffffffffffffffffff1602179055506000601060030181905550600f6010908060018154018082558091505090600182039060005260206000209060040201600090919290919091506000820154816000015560018201816001019080546001816001161561010002031660029004610a1f92919061292a565b506002820160009054906101000a900473ffffffffffffffffffffffffffffffffffffffff168160020160006101000a81548173ffffffffffffffffffffffffffffffffffffffff021916908373ffffffffffffffffffffffffffffffffffffffff160217905550600382015481600301555050506010600c60008373ffffffffffffffffffffffffffffffffffffffff1673ffffffffffffffffffffffffffffffffffffffff1681526020019081526020016000206000820154816000015560018201816001019080546001816001161561010002031660029004610b0692919061292a565b506002820160009054906101000a900473ffffffffffffffffffffffffffffffffffffffff168160020160006101000a81548173ffffffffffffffffffffffffffffffffffffffff021916908373ffffffffffffffffffffffffffffffffffffffff160217905550600382015481600301559050506005600081548092919060010191905055505050565b600d602052806000526040600020600091509050806000015490806001018054600181600116156101000203166002900480601f016020809104026020016040519081016040528092919081815260200182805460018160011615610100020316600290048015610c435780601f10610c1857610100808354040283529160200191610c43565b820191906000526020600020905b815481529060010190602001808311610c2657829003601f168201915b5050505050908060020160009054906101000a900473ffffffffffffffffffffffffffffffffffffffff16908060030154905084565b6000600254905090565b600360009054906101000a900473ffffffffffffffffffffffffffffffffffffffff1673ffffffffffffffffffffffffffffffffffffffff163373ffffffffffffffffffffffffffffffffffffffff1614610d13576040517f08c379a0000000000000000000000000000000000000000000000000000000008152600401610d0a90613304565b60405180910390fd5b80600e6000848152602001908152602001600020600101600082825401925050819055505050565b60606019805480602002602001604051908101604052809291908181526020016000905b82821015610eb157838290600052602060002090600602016040518060c0016040529081600082018054600181600116156101000203166002900480601f016020809104026020016040519081016040528092919081815260200182805460018160011615610100020316600290048015610e1b5780601f10610df057610100808354040283529160200191610e1b565b820191906000526020600020905b815481529060010190602001808311610dfe57829003601f168201915b50505050508152602001600182015481526020016002820154815260200160038201548152602001600482015481526020016005820160009054906101000a900473ffffffffffffffffffffffffffffffffffffffff1673ffffffffffffffffffffffffffffffffffffffff1673ffffffffffffffffffffffffffffffffffffffff168152505081526020019060010190610d5f565b50505050905090565b60015481565b6060600f805480602002602001604051908101604052809291908181526020016000905b82821015611022578382906000526020600020906004020160405180608001604052908160008201548152602001600182018054600181600116156101000203166002900480601f016020809104026020016040519081016040528092919081815260200182805460018160011615610100020316600290048015610faa5780601f10610f7f57610100808354040283529160200191610faa565b820191906000526020600020905b815481529060010190602001808311610f8d57829003601f168201915b505050505081526020016002820160009054906101000a900473ffffffffffffffffffffffffffffffffffffffff1673ffffffffffffffffffffffffffffffffffffffff1673ffffffffffffffffffffffffffffffffffffffff16815260200160038201548152505081526020019060010190610ee4565b50505050905090565b60606014805480602002602001604051908101604052809291908181526020016000905b8282101561118d578382906000526020600020906004020160405180608001604052908160008201548152602001600182018054600181600116156101000203166002900480601f0160208091040260200160405190810160405280929190818152602001828054600181600116156101000203166002900480156111155780601f106110ea57610100808354040283529160200191611115565b820191906000526020600020905b8154815290600101906020018083116110f857829003601f168201915b505050505081526020016002820160009054906101000a900473ffffffffffffffffffffffffffffffffffffffff1673ffffffffffffffffffffffffffffffffffffffff1673ffffffffffffffffffffffffffffffffffffffff1681526020016003820154815250508152602001906001019061104f565b50505050905090565b60096000600a600084815260200190815260200160002060020154815260200190815260200160002060030154600a6000838152602001908152602001600020600401541161121a576040517f08c379a000000000000000000000000000000000000000000000000000000000815260040161121190613344565b60405180910390fd5b60096000600a600084815260200190815260200160002060020154815260200190815260200160002060040154600a6000838152602001908152602001600020600501541061129e576040517f08c379a000000000000000000000000000000000000000000000000000000000815260040161129590613324565b60405180910390fd5b600a600082815260200190815260200160002060060160009054906101000a900460ff166112cb57600080fd5b600060038111156112d857fe5b60038111156112e357fe5b600760008473ffffffffffffffffffffffffffffffffffffffff1673ffffffffffffffffffffffffffffffffffffffff16815260200190815260200160002060060160149054906101000a900460ff16600381111561133e57fe5b14156113ff5780600760008473ffffffffffffffffffffffffffffffffffffffff1673ffffffffffffffffffffffffffffffffffffffff168152602001908152602001600020600401819055506001600381111561139857fe5b600760008473ffffffffffffffffffffffffffffffffffffffff1673ffffffffffffffffffffffffffffffffffffffff16815260200190815260200160002060060160146101000a81548160ff021916908360038111156113f557fe5b02179055506114b6565b80600760008473ffffffffffffffffffffffffffffffffffffffff1673ffffffffffffffffffffffffffffffffffffffff168152602001908152602001600020600501819055506002600381111561145357fe5b600760008473ffffffffffffffffffffffffffffffffffffffff1673ffffffffffffffffffffffffffffffffffffffff16815260200190815260200160002060060160146101000a81548160ff021916908360038111156114b057fe5b02179055505b5050565b600f81815481106114c757fe5b9060005260206000209060040201600091509050806000015490806001018054600181600116156101000203166002900480601f0160208091040260200160405190810160405280929190818152602001828054600181600116156101000203166002900480156115795780601f1061154e57610100808354040283529160200191611579565b820191906000526020600020905b81548152906001019060200180831161155c57829003601f168201915b5050505050908060020160009054906101000a900473ffffffffffffffffffffffffffffffffffffffff16908060030154905084565b6000600360009054906101000a900473ffffffffffffffffffffffffffffffffffffffff16905090565b60086020528060005260406000206000915090508060000154908060010160009054906101000a900473ffffffffffffffffffffffffffffffffffffffff16905082565b3373ffffffffffffffffffffffffffffffffffffffff166009600086815260200190815260200160002060050160009054906101000a900473ffffffffffffffffffffffffffffffffffffffff1673ffffffffffffffffffffffffffffffffffffffff16146116c1576040517f08c379a00000000000000000000000000000000000000000000000000000000081526004016116b890613364565b60405180910390fd5b600460008154809291906001019190505550600454600a600060045481526020019081526020016000206000018190555082600a600060045481526020019081526020016000206001018190555081600a60006004548152602001908152602001600020600301819055506001600a6000600454815260200190815260200160002060060160006101000a81548160ff02191690831515021790555080600a600060045481526020019081526020016000206004018190555080600a600060045481526020019081526020016000206005018190555050505050565b60076020528060005260406000206000915090508060000154908060010160009054906101000a900473ffffffffffffffffffffffffffffffffffffffff16908060020154908060030154908060040154908060050154908060060160009054906101000a900473ffffffffffffffffffffffffffffffffffffffff16908060060160149054906101000a900460ff16905088565b600360009054906101000a900473ffffffffffffffffffffffffffffffffffffffff1673ffffffffffffffffffffffffffffffffffffffff163373ffffffffffffffffffffffffffffffffffffffff16146118c2576040517f08c379a00000000000000000000000000000000000000000000000000000000081526004016118b990613304565b60405180910390fd5b600160008154809291906001019190505550600154600860008373ffffffffffffffffffffffffffffffffffffffff1673ffffffffffffffffffffffffffffffffffffffff1681526020019081526020016000206000018190555080600860008373ffffffffffffffffffffffffffffffffffffffff1673ffffffffffffffffffffffffffffffffffffffff16815260200190815260200160002060010160006101000a81548173ffffffffffffffffffffffffffffffffffffffff021916908373ffffffffffffffffffffffffffffffffffffffff1602179055507f23777a11fce19225f5430bfc9ad888a482375ec19fe7b1c8da227fad59eec3666001600081548092919060010191905055826040516119df92919061339f565b60405180910390a150565b600360009054906101000a900473ffffffffffffffffffffffffffffffffffffffff1673ffffffffffffffffffffffffffffffffffffffff163373ffffffffffffffffffffffffffffffffffffffff1614611a7a576040517f08c379a0000000000000000000000000000000000000000000000000000000008152600401611a7190613304565b60405180910390fd5b80600f8381548110611a8857fe5b90600052602060002090600402016003016000828254019250508190555080600c6000600f8581548110611ab857fe5b906000526020600020906004020160020160009054906101000a900473ffffffffffffffffffffffffffffffffffffffff1673ffffffffffffffffffffffffffffffffffffffff1673ffffffffffffffffffffffffffffffffffffffff168152602001908152602001600020600301600082825401925050819055505050565b600360009054906101000a900473ffffffffffffffffffffffffffffffffffffffff1673ffffffffffffffffffffffffffffffffffffffff163373ffffffffffffffffffffffffffffffffffffffff1614611bc8576040517f08c379a0000000000000000000000000000000000000000000000000000000008152600401611bbf90613304565b60405180910390fd5b600260008154809291906001019190505550816009600060025481526020019081526020016000206000019080519060200190611c069291906128aa565b50600254600960006002548152602001908152602001600020600101819055508260096000600254815260200190815260200160002060040181905550836009600060025481526020019081526020016000206003018190555084600960006002548152602001908152602001600020600201819055508060096000600254815260200190815260200160002060050160006101000a81548173ffffffffffffffffffffffffffffffffffffffff021916908373ffffffffffffffffffffffffffffffffffffffff160217905550600254600b60008373ffffffffffffffffffffffffffffffffffffffff1673ffffffffffffffffffffffffffffffffffffffff1681526020019081526020016000206000018190555080600b60008373ffffffffffffffffffffffffffffffffffffffff1673ffffffffffffffffffffffffffffffffffffffff16815260200190815260200160002060010160006101000a81548173ffffffffffffffffffffffffffffffffffffffff021916908373ffffffffffffffffffffffffffffffffffffffff1602179055507ff85f64e777f733197135d845dd7389f9072b8949f4d6365db8eb8bb793448fe48260025487878786604051611dd996959493929190613234565b60405180910390a15050505050565b60065481565b600360009054906101000a900473ffffffffffffffffffffffffffffffffffffffff1673ffffffffffffffffffffffffffffffffffffffff163373ffffffffffffffffffffffffffffffffffffffff1614611e7e576040517f08c379a0000000000000000000000000000000000000000000000000000000008152600401611e7590613304565b60405180910390fd5b6006546015600001819055508160156001019080519060200190611ea39291906128aa565b5080601560020160006101000a81548173ffffffffffffffffffffffffffffffffffffffff021916908373ffffffffffffffffffffffffffffffffffffffff160217905550600060156003018190555060146015908060018154018082558091505090600182039060005260206000209060040201600090919290919091506000820154816000015560018201816001019080546001816001161561010002031660029004611f5392919061292a565b506002820160009054906101000a900473ffffffffffffffffffffffffffffffffffffffff168160020160006101000a81548173ffffffffffffffffffffffffffffffffffffffff021916908373ffffffffffffffffffffffffffffffffffffffff160217905550600382015481600301555050506015600d60008373ffffffffffffffffffffffffffffffffffffffff1673ffffffffffffffffffffffffffffffffffffffff168152602001908152602001600020600082015481600001556001820181600101908054600181600116156101000203166002900461203a92919061292a565b506002820160009054906101000a900473ffffffffffffffffffffffffffffffffffffffff168160020160006101000a81548173ffffffffffffffffffffffffffffffffffffffff021916908373ffffffffffffffffffffffffffffffffffffffff160217905550600382015481600301559050506006600081548092919060010191905055505050565b60045481565b60055481565b600e6020528060005260406000206000915090508060000154908060010154905082565b600360009054906101000a900473ffffffffffffffffffffffffffffffffffffffff1681565b600a6020528060005260406000206000915090508060000154908060010154908060020154908060030154908060040154908060050154908060060160009054906101000a900460ff16905087565b600360009054906101000a900473ffffffffffffffffffffffffffffffffffffffff1673ffffffffffffffffffffffffffffffffffffffff163373ffffffffffffffffffffffffffffffffffffffff16146121fa576040517f08c379a00000000000000000000000000000000000000000000000000000000081526004016121f190613304565b60405180910390fd5b806014838154811061220857fe5b90600052602060002090600402016003016000828254019250508190555080600d60006014858154811061223857fe5b906000526020600020906004020160020160009054906101000a900473ffffffffffffffffffffffffffffffffffffffff1673ffffffffffffffffffffffffffffffffffffffff1673ffffffffffffffffffffffffffffffffffffffff168152602001908152602001600020600301600082825401925050819055505050565b6000602060ff16116122c957600080fd5b6000600860003373ffffffffffffffffffffffffffffffffffffffff1673ffffffffffffffffffffffffffffffffffffffff168152602001908152602001600020600001541161231857600080fd5b6000808154809291906001019190505550600054600760008473ffffffffffffffffffffffffffffffffffffffff1673ffffffffffffffffffffffffffffffffffffffff1681526020019081526020016000206000018190555081600760008473ffffffffffffffffffffffffffffffffffffffff1673ffffffffffffffffffffffffffffffffffffffff16815260200190815260200160002060010160006101000a81548173ffffffffffffffffffffffffffffffffffffffff021916908373ffffffffffffffffffffffffffffffffffffffff16021790555033600760008473ffffffffffffffffffffffffffffffffffffffff1673ffffffffffffffffffffffffffffffffffffffff16815260200190815260200160002060060160006101000a81548173ffffffffffffffffffffffffffffffffffffffff021916908373ffffffffffffffffffffffffffffffffffffffff160217905550600860003373ffffffffffffffffffffffffffffffffffffffff1673ffffffffffffffffffffffffffffffffffffffff16815260200190815260200160002060000154600760008473ffffffffffffffffffffffffffffffffffffffff1673ffffffffffffffffffffffffffffffffffffffff168152602001908152602001600020600301819055506000600760008473ffffffffffffffffffffffffffffffffffffffff1673ffffffffffffffffffffffffffffffffffffffff168152602001908152602001600020600401819055506000600760008473ffffffffffffffffffffffffffffffffffffffff1673ffffffffffffffffffffffffffffffffffffffff168152602001908152602001600020600501819055505050565b600b6020528060005260406000206000915090508060000154908060010160009054906101000a900473ffffffffffffffffffffffffffffffffffffffff16905082565b60025481565b60005481565b600360009054906101000a900473ffffffffffffffffffffffffffffffffffffffff1673ffffffffffffffffffffffffffffffffffffffff163373ffffffffffffffffffffffffffffffffffffffff1614612671576040517f08c379a000000000000000000000000000000000000000000000000000000000815260040161266890613304565b60405180910390fd5b80600360006101000a81548173ffffffffffffffffffffffffffffffffffffffff021916908373ffffffffffffffffffffffffffffffffffffffff16021790555050565b601981815481106126c257fe5b9060005260206000209060060201600091509050806000018054600181600116156101000203166002900480601f01602080910402602001604051908101604052809291908181526020018280546001816001161561010002031660029004801561276e5780601f106127435761010080835404028352916020019161276e565b820191906000526020600020905b81548152906001019060200180831161275157829003601f168201915b5050505050908060010154908060020154908060030154908060040154908060050160009054906101000a900473ffffffffffffffffffffffffffffffffffffffff16905086565b6009602052806000526040600020600091509050806000018054600181600116156101000203166002900480601f0160208091040260200160405190810160405280929190818152602001828054600181600116156101000203166002900480156128625780601f1061283757610100808354040283529160200191612862565b820191906000526020600020905b81548152906001019060200180831161284557829003601f168201915b5050505050908060010154908060020154908060030154908060040154908060050160009054906101000a900473ffffffffffffffffffffffffffffffffffffffff16905086565b828054600181600116156101000203166002900490600052602060002090601f016020900481019282601f106128eb57805160ff1916838001178555612919565b82800160010185558215612919579182015b828111156129185782518255916020019190600101906128fd565b5b50905061292691906129b1565b5090565b828054600181600116156101000203166002900490600052602060002090601f016020900481019282601f1061296357805485556129a0565b828001600101855582156129a057600052602060002091601f016020900482015b8281111561299f578254825591600101919060010190612984565b5b5090506129ad91906129b1565b5090565b6129d391905b808211156129cf5760008160009055506001016129b7565b5090565b90565b6000813590506129e58161373d565b92915050565b6000813590506129fa81613754565b92915050565b600082601f830112612a1157600080fd5b8135612a24612a1f82613557565b61352a565b91508082526020830160208301858383011115612a4057600080fd5b612a4b8382846136dd565b50505092915050565b600081359050612a638161376b565b92915050565b600060208284031215612a7b57600080fd5b6000612a89848285016129d6565b91505092915050565b60008060408385031215612aa557600080fd5b6000612ab3858286016129d6565b9250506020612ac4858286016129eb565b9150509250929050565b60008060408385031215612ae157600080fd5b6000612aef858286016129d6565b9250506020612b0085828601612a54565b9150509250929050565b60008060408385031215612b1d57600080fd5b600083013567ffffffffffffffff811115612b3757600080fd5b612b4385828601612a00565b9250506020612b54858286016129d6565b9150509250929050565b600060208284031215612b7057600080fd5b6000612b7e84828501612a54565b91505092915050565b60008060408385031215612b9a57600080fd5b6000612ba885828601612a54565b9250506020612bb985828601612a54565b9150509250929050565b600080600080600060a08688031215612bdb57600080fd5b6000612be988828901612a54565b9550506020612bfa88828901612a54565b9450506040612c0b88828901612a54565b935050606086013567ffffffffffffffff811115612c2857600080fd5b612c3488828901612a00565b9250506080612c45888289016129d6565b9150509295509295909350565b60008060008060808587031215612c6857600080fd5b6000612c7687828801612a54565b9450506020612c8787828801612a54565b9350506040612c9887828801612a54565b9250506060612ca987828801612a54565b91505092959194509250565b6000612cc18383613046565b905092915050565b6000612cd583836130a9565b905092915050565b6000612ce9838361310c565b905092915050565b612cfa81613666565b82525050565b612d0981613666565b82525050565b6000612d1a826135b3565b612d248185613611565b935083602082028501612d3685613583565b8060005b85811015612d725784840389528151612d538582612cb5565b9450612d5e836135ea565b925060208a01995050600181019050612d3a565b50829750879550505050505092915050565b6000612d8f826135be565b612d998185613622565b935083602082028501612dab85613593565b8060005b85811015612de75784840389528151612dc88582612cc9565b9450612dd3836135f7565b925060208a01995050600181019050612daf565b50829750879550505050505092915050565b6000612e04826135c9565b612e0e8185613633565b935083602082028501612e20856135a3565b8060005b85811015612e5c5784840389528151612e3d8582612cdd565b9450612e4883613604565b925060208a01995050600181019050612e24565b50829750879550505050505092915050565b612e7781613678565b82525050565b612e8681613684565b82525050565b612e95816136cb565b82525050565b6000612ea6826135df565b612eb08185613655565b9350612ec08185602086016136ec565b612ec98161371f565b840191505092915050565b6000612edf826135d4565b612ee98185613644565b9350612ef98185602086016136ec565b612f028161371f565b840191505092915050565b6000612f18826135d4565b612f228185613655565b9350612f328185602086016136ec565b612f3b8161371f565b840191505092915050565b6000612f53600e83613655565b91507f4e6f7420617574686f72697365640000000000000000000000000000000000006000830152602082019050919050565b6000612f93601083613655565b91507f696e76616c69642b6d61785f74656d70000000000000000000000000000000006000830152602082019050919050565b6000612fd3601083613655565b91507f696e76616c69645f6d696e5f74656d70000000000000000000000000000000006000830152602082019050919050565b6000613013600c83613655565b91507f696e76616c6964207573657200000000000000000000000000000000000000006000830152602082019050919050565b600060808301600083015161305e6000860182613195565b50602083015184820360208601526130768282612ed4565b915050604083015161308b6040860182612cf1565b50606083015161309e6060860182613195565b508091505092915050565b60006080830160008301516130c16000860182613195565b50602083015184820360208601526130d98282612ed4565b91505060408301516130ee6040860182612cf1565b5060608301516131016060860182613195565b508091505092915050565b600060c08301600083015184820360008601526131298282612ed4565b915050602083015161313e6020860182613195565b5060408301516131516040860182613195565b5060608301516131646060860182613195565b5060808301516131776080860182613195565b5060a083015161318a60a0860182612cf1565b508091505092915050565b61319e816136c1565b82525050565b6131ad816136c1565b82525050565b60006020820190506131c86000830184612d00565b92915050565b600060208201905081810360008301526131e88184612d0f565b905092915050565b6000602082019050818103600083015261320a8184612d84565b905092915050565b6000602082019050818103600083015261322c8184612df9565b905092915050565b600060c082019050818103600083015261324e8189612e9b565b905061325d60208301886131a4565b61326a60408301876131a4565b61327760608301866131a4565b61328460808301856131a4565b61329160a0830184612d00565b979650505050505050565b600060c08201905081810360008301526132b68189612f0d565b90506132c560208301886131a4565b6132d260408301876131a4565b6132df60608301866131a4565b6132ec60808301856131a4565b6132f960a0830184612d00565b979650505050505050565b6000602082019050818103600083015261331d81612f46565b9050919050565b6000602082019050818103600083015261333d81612f86565b9050919050565b6000602082019050818103600083015261335d81612fc6565b9050919050565b6000602082019050818103600083015261337d81613006565b9050919050565b600060208201905061339960008301846131a4565b92915050565b60006040820190506133b460008301856131a4565b6133c16020830184612d00565b9392505050565b6000610100820190506133de600083018b6131a4565b6133eb602083018a612d00565b6133f86040830189612e7d565b61340560608301886131a4565b61341260808301876131a4565b61341f60a08301866131a4565b61342c60c0830185612d00565b61343960e0830184612e8c565b9998505050505050505050565b600060808201905061345b60008301876131a4565b818103602083015261346d8186612f0d565b905061347c6040830185612d00565b61348960608301846131a4565b95945050505050565b60006040820190506134a760008301856131a4565b6134b460208301846131a4565b9392505050565b600060e0820190506134d0600083018a6131a4565b6134dd60208301896131a4565b6134ea60408301886131a4565b6134f760608301876131a4565b61350460808301866131a4565b61351160a08301856131a4565b61351e60c0830184612e6e565b98975050505050505050565b6000604051905081810181811067ffffffffffffffff8211171561354d57600080fd5b8060405250919050565b600067ffffffffffffffff82111561356e57600080fd5b601f19601f8301169050602081019050919050565b6000819050602082019050919050565b6000819050602082019050919050565b6000819050602082019050919050565b600081519050919050565b600081519050919050565b600081519050919050565b600081519050919050565b600081519050919050565b6000602082019050919050565b6000602082019050919050565b6000602082019050919050565b600082825260208201905092915050565b600082825260208201905092915050565b600082825260208201905092915050565b600082825260208201905092915050565b600082825260208201905092915050565b6000613671826136a1565b9050919050565b60008115159050919050565b6000819050919050565b600081905061369c82613730565b919050565b600073ffffffffffffffffffffffffffffffffffffffff82169050919050565b6000819050919050565b60006136d68261368e565b9050919050565b82818337600083830152505050565b60005b8381101561370a5780820151818401526020810190506136ef565b83811115613719576000848401525b50505050565b6000601f19601f8301169050919050565b6004811061373a57fe5b50565b61374681613666565b811461375157600080fd5b50565b61375d81613684565b811461376857600080fd5b50565b613774816136c1565b811461377f57600080fd5b5056fea365627a7a72315820daeb466b1946d9a7fa268a9a261a7fdbaa14118751f67402a031de5009453eec6c6578706572696d656e74616cf564736f6c63430005100040",
  "source": "pragma solidity ^0.5.16;\r\npragma experimental ABIEncoderV2;\r\n\r\ncontract vaccine{\r\n    uint public total_registration;\r\n    uint public center_counts;\r\n    uint public types_counts;\r\n    address public _owner;\r\n    uint public vaccines_counts;\r\n    uint public states_count;\r\n    uint public district_count;\r\n\r\n    \r\n    enum completion {notregister,registred, pending , Completed}\r\n    enum stages {registered ,first_vaccine,second_vaccine,completed}\r\n    \r\n    struct benificiary{\r\n        uint benificiary_id;\r\n        address benificiary_add;\r\n        bytes32 medical_records;\r\n        uint medical_center;\r\n        uint vaccine_id_1;\r\n        uint vaccine_id_2;\r\n        address medical_reprentative;\r\n        stages status;\r\n    }\r\n    \r\n    struct medical_center{\r\n        uint center_id;\r\n        address medical_representative;\r\n    }\r\n    \r\n    struct vaccine_type{\r\n        string name;\r\n        uint company_id;\r\n        uint valid_days;\r\n        uint temp_min;\r\n        uint temp_max;\r\n        address company_add;\r\n    }\r\n\r\n    struct order{\r\n        uint company_id;\r\n        uint allotment;\r\n    }\r\n    \r\n    struct vaccines{\r\n        uint id;\r\n        uint batch;\r\n        uint company_id;\r\n        uint manunfactured_date;\r\n        uint temp_min;\r\n        uint temp_max;\r\n        bool valid;\r\n    }\r\n    \r\n    struct manager{\r\n        uint company_id;\r\n        address manager_add;\r\n    }\r\n\r\n\r\n    struct state{\r\n        uint id;\r\n        string name;\r\n        address state_add;\r\n        uint allocation;\r\n    }\r\n\r\n    struct district{\r\n        uint id;\r\n        string name;\r\n        address add;\r\n        uint allocation;\r\n    }\r\n\r\n    event _district(\r\n        uint id,\r\n        string name,\r\n        address add,\r\n        uint allocation\r\n    );\r\n\r\n    event _state(\r\n        uint id,\r\n        string name,\r\n        address state_add,\r\n        uint allocation\r\n    );\r\n\r\n    event _benificiary(\r\n        uint benificiary_id,\r\n        address benificiary_add,\r\n        bytes32 medical_records,\r\n        uint medical_center,\r\n        uint vaccine_id_1,\r\n        uint vaccine_id_2,\r\n        address medical_reprentative,\r\n        stages status\r\n    );\r\n    \r\n    event _medical_center(\r\n        uint center_id,\r\n        address medical_representative\r\n    );\r\n    \r\n    event _vaccine_type(\r\n        string name,\r\n        uint company_id,\r\n        uint valid_days,\r\n        uint temp_min,\r\n        uint temp_max,\r\n        address company_add\r\n    );\r\n    \r\n    event _vaccine(\r\n        uint id,\r\n        uint batch,\r\n        uint company_id,\r\n        uint manunfactured_date,\r\n        uint temp_min,\r\n        uint temp_max,\r\n        bool valid\r\n    );\r\n    \r\n    event _manager(\r\n        uint company_id,\r\n        address manager_add\r\n    );\r\n    \r\n    \r\n    \r\n    modifier onlyOwner {\r\n        require(msg.sender == _owner,'Not authorised');\r\n        _;\r\n    }\r\n    \r\n    \r\n    mapping(address=>benificiary) public _benificiaries;\r\n    mapping(address => medical_center) public _medical_representatives;\r\n    mapping(uint => vaccine_type) public _vaccine_types;\r\n    mapping(uint => vaccines) public _vaccines;\r\n    mapping(address => manager) public _managers;\r\n    mapping(address => state) public states;\r\n    mapping(address => district) public districts;\r\n    mapping(uint => order) public orders;\r\n\r\n    state[] public stateInfo;\r\n    state private stateTemp;\r\n\r\n    district[] public districtInfo;\r\n    district private districtTemp;\r\n\r\n    vaccine_type[] public vaccinesInfo;\r\n    vaccine_type private vaccineTemp;\r\n    \r\n    constructor() public\r\n    {\r\n        _owner = msg.sender;\r\n        center_counts = 0;\r\n        total_registration = 0;\r\n        types_counts = 0;\r\n        vaccines_counts = 0;\r\n        states_count = 0;\r\n        district_count = 0;\r\n    }\r\n    \r\n    \r\n    function transferOwnership(address benificiary_add) public onlyOwner\r\n    {\r\n        _owner = benificiary_add;\r\n    }\r\n    \r\n   // function update_medical_representative(address representative_add,address )\r\n    function View_Owner() public view returns(address){\r\n        return _owner;\r\n    }\r\n\r\n    function View_types_Count() public view returns(uint){\r\n        return types_counts;\r\n    }\r\n\r\n\r\n    \r\n    function register_state(string memory name,address state_add)public onlyOwner\r\n    {\r\n        stateTemp.id = states_count;\r\n        stateTemp.name = name;\r\n        stateTemp.state_add = state_add;\r\n        stateTemp.allocation = 0;\r\n        stateInfo.push(stateTemp);\r\n        states[state_add] = stateTemp;\r\n        states_count++;\r\n    }\r\n\r\n    function update_state(uint state_id,uint newOrder)public onlyOwner\r\n    {\r\n        stateInfo[state_id].allocation+=newOrder;\r\n        states[stateInfo[state_id].state_add].allocation+=newOrder;\r\n    }\r\n\r\n\r\n    function place_order(uint company_id,uint newOrder)public onlyOwner\r\n    {\r\n        orders[company_id].allotment+=newOrder;\r\n    }\r\n\r\n    function register_district(string memory name,address district_add)public onlyOwner\r\n    {\r\n        districtTemp.id = district_count;\r\n        districtTemp.name = name;\r\n        districtTemp.add = district_add;\r\n        districtTemp.allocation = 0;\r\n        districtInfo.push(districtTemp);\r\n        districts[district_add] = districtTemp;\r\n        district_count++;\r\n    }\r\n\r\n    function update_district_allocation(uint district_id,uint newOrder)public onlyOwner\r\n    {\r\n        districtInfo[district_id].allocation+=newOrder;\r\n        districts[districtInfo[district_id].add].allocation+=newOrder;\r\n    }\r\n\r\n\r\n    function getAllStatesInfo() public view returns (state[] memory)\r\n    {\r\n        return stateInfo;\r\n    }\r\n\r\n    function getAllvaccineInfo() public view returns (vaccine_type[] memory)\r\n    {\r\n        return vaccinesInfo;\r\n    }\r\n\r\n    function getAllDistrictInfo() public view returns (district[] memory)\r\n    {\r\n        return districtInfo;\r\n    }\r\n\r\n\r\n    function register_company(uint period,uint temp_min,uint temp_max,string memory name,address company_add)public onlyOwner\r\n    {\r\n        types_counts++;\r\n        _vaccine_types[types_counts].name = name;\r\n        _vaccine_types[types_counts].company_id = types_counts;\r\n        _vaccine_types[types_counts].temp_max = temp_max;\r\n        _vaccine_types[types_counts].temp_min = temp_min;\r\n        _vaccine_types[types_counts].valid_days = period;\r\n        _vaccine_types[types_counts].company_add = company_add;\r\n        _managers[company_add].company_id =types_counts;\r\n        _managers[company_add].manager_add = company_add;\r\n         emit _vaccine_type(name,types_counts,period,temp_min,temp_max,company_add);\r\n    }\r\n    \r\n    \r\n    function vaccine_registration(uint company_id,uint batch,uint time,uint cur_temp)public\r\n    {\r\n        require(_vaccine_types[company_id].company_add == msg.sender,\"invalid user\");\r\n        vaccines_counts++;\r\n        _vaccines[vaccines_counts].id = vaccines_counts;\r\n        _vaccines[vaccines_counts].batch = batch;\r\n        _vaccines[vaccines_counts].manunfactured_date = time;\r\n        _vaccines[vaccines_counts].valid = true;\r\n        _vaccines[vaccines_counts].temp_min = cur_temp;\r\n        _vaccines[vaccines_counts].temp_max = cur_temp;\r\n    }\r\n    \r\n    \r\n    function register_benificiary(address benificiary_add,bytes32 record_hash) public\r\n    {\r\n        require(record_hash.length > 0);\r\n        require(_medical_representatives[msg.sender].center_id > 0);\r\n        total_registration++;\r\n        _benificiaries[benificiary_add].benificiary_id = total_registration;\r\n        _benificiaries[benificiary_add].benificiary_add = benificiary_add;\r\n        _benificiaries[benificiary_add].medical_reprentative = msg.sender;\r\n        _benificiaries[benificiary_add].medical_center = _medical_representatives[msg.sender].center_id;\r\n        _benificiaries[benificiary_add].vaccine_id_1 = 0;\r\n        _benificiaries[benificiary_add].vaccine_id_2 = 0;\r\n        \r\n        \r\n    }\r\n    \r\n    function register_medical_representative(address representative_add)public onlyOwner\r\n    {\r\n        center_counts++;\r\n        _medical_representatives[representative_add].center_id = center_counts;\r\n        _medical_representatives[representative_add].medical_representative = representative_add;\r\n        \r\n        emit _medical_center(center_counts++, representative_add);\r\n    }\r\n    \r\n    function vaccinate(address benificiary_add,uint vaccine_id)public\r\n    {\r\n         require(_vaccines[vaccine_id].temp_min > _vaccine_types[_vaccines[vaccine_id].company_id].temp_min,'invalid_min_temp');\r\n         require(_vaccines[vaccine_id].temp_max < _vaccine_types[_vaccines[vaccine_id].company_id].temp_max,'invalid+max_temp');\r\n         require(_vaccines[vaccine_id].valid);\r\n         if(_benificiaries[benificiary_add].status == stages(0))\r\n         {\r\n            _benificiaries[benificiary_add].vaccine_id_1 = vaccine_id;\r\n            _benificiaries[benificiary_add].status = stages(1);\r\n         }\r\n         else \r\n         {\r\n            _benificiaries[benificiary_add].vaccine_id_2 = vaccine_id;   \r\n            _benificiaries[benificiary_add].status = stages(2);\r\n         }\r\n     }\r\n    \r\n    \r\n}",
  "sourcePath": "D:/College/SEM 8/major project/contracts/vaccine.sol",
  "compiler": {
    "name": "solc",
    "version": "0.5.16+commit.9c3226ce.Emscripten.clang"
  },
  "schemaVersion": "3.2.4",
  "updatedAt": "2021-05-04T17:08:22.177Z",
  "networkType": "ethereum",
  "devdoc": {
    "methods": {}
  },
  "userdoc": {
    "methods": {}
  }
}