{
  "contractName": "vaccine",
  "abi": [
    {
      "inputs": [],
      "payable": false,
      "stateMutability": "nonpayable",
      "type": "constructor"
    },
    {
      "anonymous": false,
      "inputs": [
        {
          "indexed": false,
          "internalType": "uint256",
          "name": "benificiary_id",
          "type": "uint256"
        },
        {
          "indexed": false,
          "internalType": "address",
          "name": "benificiary_add",
          "type": "address"
        },
        {
          "indexed": false,
          "internalType": "bytes32",
          "name": "medical_records",
          "type": "bytes32"
        },
        {
          "indexed": false,
          "internalType": "uint256",
          "name": "medical_center",
          "type": "uint256"
        },
        {
          "indexed": false,
          "internalType": "uint256",
          "name": "vaccine_id_1",
          "type": "uint256"
        },
        {
          "indexed": false,
          "internalType": "uint256",
          "name": "vaccine_id_2",
          "type": "uint256"
        },
        {
          "indexed": false,
          "internalType": "address",
          "name": "medical_reprentative",
          "type": "address"
        },
        {
          "indexed": false,
          "internalType": "enum vaccine.stages",
          "name": "status",
          "type": "uint8"
        }
      ],
      "name": "_benificiary",
      "type": "event"
    },
    {
      "anonymous": false,
      "inputs": [
        {
          "indexed": false,
          "internalType": "uint256",
          "name": "company_id",
          "type": "uint256"
        },
        {
          "indexed": false,
          "internalType": "address",
          "name": "manager_add",
          "type": "address"
        }
      ],
      "name": "_manager",
      "type": "event"
    },
    {
      "anonymous": false,
      "inputs": [
        {
          "indexed": false,
          "internalType": "uint256",
          "name": "center_id",
          "type": "uint256"
        },
        {
          "indexed": false,
          "internalType": "address",
          "name": "medical_representative",
          "type": "address"
        }
      ],
      "name": "_medical_center",
      "type": "event"
    },
    {
      "anonymous": false,
      "inputs": [
        {
          "indexed": false,
          "internalType": "uint256",
          "name": "id",
          "type": "uint256"
        },
        {
          "indexed": false,
          "internalType": "string",
          "name": "name",
          "type": "string"
        },
        {
          "indexed": false,
          "internalType": "address",
          "name": "state_add",
          "type": "address"
        },
        {
          "indexed": false,
          "internalType": "uint256",
          "name": "allocation",
          "type": "uint256"
        }
      ],
      "name": "_state",
      "type": "event"
    },
    {
      "anonymous": false,
      "inputs": [
        {
          "indexed": false,
          "internalType": "uint256",
          "name": "id",
          "type": "uint256"
        },
        {
          "indexed": false,
          "internalType": "uint256",
          "name": "batch",
          "type": "uint256"
        },
        {
          "indexed": false,
          "internalType": "uint256",
          "name": "company_id",
          "type": "uint256"
        },
        {
          "indexed": false,
          "internalType": "uint256",
          "name": "manunfactured_date",
          "type": "uint256"
        },
        {
          "indexed": false,
          "internalType": "uint256",
          "name": "temp_min",
          "type": "uint256"
        },
        {
          "indexed": false,
          "internalType": "uint256",
          "name": "temp_max",
          "type": "uint256"
        },
        {
          "indexed": false,
          "internalType": "bool",
          "name": "valid",
          "type": "bool"
        }
      ],
      "name": "_vaccine",
      "type": "event"
    },
    {
      "anonymous": false,
      "inputs": [
        {
          "indexed": false,
          "internalType": "string",
          "name": "name",
          "type": "string"
        },
        {
          "indexed": false,
          "internalType": "uint256",
          "name": "company_id",
          "type": "uint256"
        },
        {
          "indexed": false,
          "internalType": "uint256",
          "name": "valid_days",
          "type": "uint256"
        },
        {
          "indexed": false,
          "internalType": "uint256",
          "name": "temp_min",
          "type": "uint256"
        },
        {
          "indexed": false,
          "internalType": "uint256",
          "name": "temp_max",
          "type": "uint256"
        },
        {
          "indexed": false,
          "internalType": "address",
          "name": "company_add",
          "type": "address"
        }
      ],
      "name": "_vaccine_type",
      "type": "event"
    },
    {
      "constant": true,
      "inputs": [
        {
          "internalType": "address",
          "name": "",
          "type": "address"
        }
      ],
      "name": "_benificiaries",
      "outputs": [
        {
          "internalType": "uint256",
          "name": "benificiary_id",
          "type": "uint256"
        },
        {
          "internalType": "address",
          "name": "benificiary_add",
          "type": "address"
        },
        {
          "internalType": "bytes32",
          "name": "medical_records",
          "type": "bytes32"
        },
        {
          "internalType": "uint256",
          "name": "medical_center",
          "type": "uint256"
        },
        {
          "internalType": "uint256",
          "name": "vaccine_id_1",
          "type": "uint256"
        },
        {
          "internalType": "uint256",
          "name": "vaccine_id_2",
          "type": "uint256"
        },
        {
          "internalType": "address",
          "name": "medical_reprentative",
          "type": "address"
        },
        {
          "internalType": "enum vaccine.stages",
          "name": "status",
          "type": "uint8"
        }
      ],
      "payable": false,
      "stateMutability": "view",
      "type": "function"
    },
    {
      "constant": true,
      "inputs": [
        {
          "internalType": "address",
          "name": "",
          "type": "address"
        }
      ],
      "name": "_managers",
      "outputs": [
        {
          "internalType": "uint256",
          "name": "company_id",
          "type": "uint256"
        },
        {
          "internalType": "address",
          "name": "manager_add",
          "type": "address"
        }
      ],
      "payable": false,
      "stateMutability": "view",
      "type": "function"
    },
    {
      "constant": true,
      "inputs": [
        {
          "internalType": "address",
          "name": "",
          "type": "address"
        }
      ],
      "name": "_medical_representatives",
      "outputs": [
        {
          "internalType": "uint256",
          "name": "center_id",
          "type": "uint256"
        },
        {
          "internalType": "address",
          "name": "medical_representative",
          "type": "address"
        }
      ],
      "payable": false,
      "stateMutability": "view",
      "type": "function"
    },
    {
      "constant": true,
      "inputs": [],
      "name": "_owner",
      "outputs": [
        {
          "internalType": "address",
          "name": "",
          "type": "address"
        }
      ],
      "payable": false,
      "stateMutability": "view",
      "type": "function"
    },
    {
      "constant": true,
      "inputs": [
        {
          "internalType": "uint256",
          "name": "",
          "type": "uint256"
        }
      ],
      "name": "_vaccine_types",
      "outputs": [
        {
          "internalType": "string",
          "name": "name",
          "type": "string"
        },
        {
          "internalType": "uint256",
          "name": "company_id",
          "type": "uint256"
        },
        {
          "internalType": "uint256",
          "name": "valid_days",
          "type": "uint256"
        },
        {
          "internalType": "uint256",
          "name": "temp_min",
          "type": "uint256"
        },
        {
          "internalType": "uint256",
          "name": "temp_max",
          "type": "uint256"
        },
        {
          "internalType": "address",
          "name": "company_add",
          "type": "address"
        }
      ],
      "payable": false,
      "stateMutability": "view",
      "type": "function"
    },
    {
      "constant": true,
      "inputs": [
        {
          "internalType": "uint256",
          "name": "",
          "type": "uint256"
        }
      ],
      "name": "_vaccines",
      "outputs": [
        {
          "internalType": "uint256",
          "name": "id",
          "type": "uint256"
        },
        {
          "internalType": "uint256",
          "name": "batch",
          "type": "uint256"
        },
        {
          "internalType": "uint256",
          "name": "company_id",
          "type": "uint256"
        },
        {
          "internalType": "uint256",
          "name": "manunfactured_date",
          "type": "uint256"
        },
        {
          "internalType": "uint256",
          "name": "temp_min",
          "type": "uint256"
        },
        {
          "internalType": "uint256",
          "name": "temp_max",
          "type": "uint256"
        },
        {
          "internalType": "bool",
          "name": "valid",
          "type": "bool"
        }
      ],
      "payable": false,
      "stateMutability": "view",
      "type": "function"
    },
    {
      "constant": true,
      "inputs": [],
      "name": "center_counts",
      "outputs": [
        {
          "internalType": "uint256",
          "name": "",
          "type": "uint256"
        }
      ],
      "payable": false,
      "stateMutability": "view",
      "type": "function"
    },
    {
      "constant": true,
      "inputs": [
        {
          "internalType": "uint256",
          "name": "",
          "type": "uint256"
        }
      ],
      "name": "stateInfo",
      "outputs": [
        {
          "internalType": "uint256",
          "name": "id",
          "type": "uint256"
        },
        {
          "internalType": "string",
          "name": "name",
          "type": "string"
        },
        {
          "internalType": "address",
          "name": "state_add",
          "type": "address"
        },
        {
          "internalType": "uint256",
          "name": "allocation",
          "type": "uint256"
        }
      ],
      "payable": false,
      "stateMutability": "view",
      "type": "function"
    },
    {
      "constant": true,
      "inputs": [
        {
          "internalType": "address",
          "name": "",
          "type": "address"
        }
      ],
      "name": "states",
      "outputs": [
        {
          "internalType": "uint256",
          "name": "id",
          "type": "uint256"
        },
        {
          "internalType": "string",
          "name": "name",
          "type": "string"
        },
        {
          "internalType": "address",
          "name": "state_add",
          "type": "address"
        },
        {
          "internalType": "uint256",
          "name": "allocation",
          "type": "uint256"
        }
      ],
      "payable": false,
      "stateMutability": "view",
      "type": "function"
    },
    {
      "constant": true,
      "inputs": [],
      "name": "states_count",
      "outputs": [
        {
          "internalType": "uint256",
          "name": "",
          "type": "uint256"
        }
      ],
      "payable": false,
      "stateMutability": "view",
      "type": "function"
    },
    {
      "constant": true,
      "inputs": [],
      "name": "total_registration",
      "outputs": [
        {
          "internalType": "uint256",
          "name": "",
          "type": "uint256"
        }
      ],
      "payable": false,
      "stateMutability": "view",
      "type": "function"
    },
    {
      "constant": true,
      "inputs": [],
      "name": "types_counts",
      "outputs": [
        {
          "internalType": "uint256",
          "name": "",
          "type": "uint256"
        }
      ],
      "payable": false,
      "stateMutability": "view",
      "type": "function"
    },
    {
      "constant": true,
      "inputs": [],
      "name": "vaccines_counts",
      "outputs": [
        {
          "internalType": "uint256",
          "name": "",
          "type": "uint256"
        }
      ],
      "payable": false,
      "stateMutability": "view",
      "type": "function"
    },
    {
      "constant": false,
      "inputs": [
        {
          "internalType": "address",
          "name": "benificiary_add",
          "type": "address"
        }
      ],
      "name": "transferOwnership",
      "outputs": [],
      "payable": false,
      "stateMutability": "nonpayable",
      "type": "function"
    },
    {
      "constant": true,
      "inputs": [],
      "name": "View_Owner",
      "outputs": [
        {
          "internalType": "address",
          "name": "",
          "type": "address"
        }
      ],
      "payable": false,
      "stateMutability": "view",
      "type": "function"
    },
    {
      "constant": true,
      "inputs": [],
      "name": "View_types_Count",
      "outputs": [
        {
          "internalType": "uint256",
          "name": "",
          "type": "uint256"
        }
      ],
      "payable": false,
      "stateMutability": "view",
      "type": "function"
    },
    {
      "constant": false,
      "inputs": [
        {
          "internalType": "string",
          "name": "name",
          "type": "string"
        },
        {
          "internalType": "address",
          "name": "state_add",
          "type": "address"
        }
      ],
      "name": "register_state",
      "outputs": [],
      "payable": false,
      "stateMutability": "nonpayable",
      "type": "function"
    },
    {
      "constant": false,
      "inputs": [
        {
          "internalType": "uint256",
          "name": "state_id",
          "type": "uint256"
        },
        {
          "internalType": "uint256",
          "name": "newOrder",
          "type": "uint256"
        }
      ],
      "name": "update_state",
      "outputs": [],
      "payable": false,
      "stateMutability": "nonpayable",
      "type": "function"
    },
    {
      "constant": true,
      "inputs": [],
      "name": "getAllStatesInfo",
      "outputs": [
        {
          "components": [
            {
              "internalType": "uint256",
              "name": "id",
              "type": "uint256"
            },
            {
              "internalType": "string",
              "name": "name",
              "type": "string"
            },
            {
              "internalType": "address",
              "name": "state_add",
              "type": "address"
            },
            {
              "internalType": "uint256",
              "name": "allocation",
              "type": "uint256"
            }
          ],
          "internalType": "struct vaccine.state[]",
          "name": "",
          "type": "tuple[]"
        }
      ],
      "payable": false,
      "stateMutability": "view",
      "type": "function"
    },
    {
      "constant": false,
      "inputs": [
        {
          "internalType": "uint256",
          "name": "period",
          "type": "uint256"
        },
        {
          "internalType": "uint256",
          "name": "temp_min",
          "type": "uint256"
        },
        {
          "internalType": "uint256",
          "name": "temp_max",
          "type": "uint256"
        },
        {
          "internalType": "string",
          "name": "name",
          "type": "string"
        },
        {
          "internalType": "address",
          "name": "company_add",
          "type": "address"
        }
      ],
      "name": "register_company",
      "outputs": [],
      "payable": false,
      "stateMutability": "nonpayable",
      "type": "function"
    },
    {
      "constant": false,
      "inputs": [
        {
          "internalType": "uint256",
          "name": "company_id",
          "type": "uint256"
        },
        {
          "internalType": "uint256",
          "name": "batch",
          "type": "uint256"
        },
        {
          "internalType": "uint256",
          "name": "time",
          "type": "uint256"
        },
        {
          "internalType": "uint256",
          "name": "cur_temp",
          "type": "uint256"
        }
      ],
      "name": "vaccine_registration",
      "outputs": [],
      "payable": false,
      "stateMutability": "nonpayable",
      "type": "function"
    },
    {
      "constant": false,
      "inputs": [
        {
          "internalType": "address",
          "name": "benificiary_add",
          "type": "address"
        },
        {
          "internalType": "bytes32",
          "name": "record_hash",
          "type": "bytes32"
        }
      ],
      "name": "register_benificiary",
      "outputs": [],
      "payable": false,
      "stateMutability": "nonpayable",
      "type": "function"
    },
    {
      "constant": false,
      "inputs": [
        {
          "internalType": "address",
          "name": "representative_add",
          "type": "address"
        }
      ],
      "name": "register_medical_representative",
      "outputs": [],
      "payable": false,
      "stateMutability": "nonpayable",
      "type": "function"
    },
    {
      "constant": false,
      "inputs": [
        {
          "internalType": "address",
          "name": "benificiary_add",
          "type": "address"
        },
        {
          "internalType": "uint256",
          "name": "vaccine_id",
          "type": "uint256"
        }
      ],
      "name": "vaccinate",
      "outputs": [],
      "payable": false,
      "stateMutability": "nonpayable",
      "type": "function"
    }
  ],
  "bytecode": "0x608060405234801561001057600080fd5b5033600360006101000a81548173ffffffffffffffffffffffffffffffffffffffff021916908373ffffffffffffffffffffffffffffffffffffffff1602179055506000600181905550600080819055506000600281905550600060048190555060006005819055506127f1806100886000396000f3fe608060405234801561001057600080fd5b50600436106101585760003560e01c806381bf5340116100c3578063d5803e971161007c578063d5803e97146103db578063d5d31abe146103f7578063d651d5fe14610428578063e8ff953814610446578063f2fde38b14610464578063f4a31a041461048057610158565b806381bf53401461031357806386675ead1461032f5780639a74cc1b1461034b578063a4d3484314610369578063b2bdfa7b14610387578063c1f06446146103a557610158565b806373c033551161011557806373c0335514610222578063744ee9a31461025557806374529683146102735780637553ad4d146102a457806375b08c21146102c05780637d9efad4146102f757610158565b806302a223371461015d57806308124fa1146101905780630c96a059146101ac578063360294ec146101ca5780633ad05ca2146101e8578063682fbf8114610206575b600080fd5b61017760048036036101729190810190611d72565b6104b5565b604051610187949392919061250d565b60405180910390f35b6101aa60048036036101a59190810190611e13565b61059d565b005b6101b4610874565b6040516101c1919061244b565b60405180910390f35b6101d261087e565b6040516101df919061244b565b60405180910390f35b6101f0610884565b6040516101fd91906122d9565b60405180910390f35b610220600480360361021b9190810190611dd7565b6109ef565b005b61023c60048036036102379190810190611e67565b610d13565b60405161024c949392919061250d565b60405180910390f35b61025d610e08565b60405161026a91906122be565b60405180910390f35b61028d60048036036102889190810190611d72565b610e32565b60405161029b929190612466565b60405180910390f35b6102be60048036036102b99190810190611f5b565b610e76565b005b6102da60048036036102d59190810190611d72565b610ff6565b6040516102ee98979695949392919061248f565b60405180910390f35b610311600480360361030c9190810190611d72565b61108b565b005b61032d60048036036103289190810190611e90565b611243565b005b61034960048036036103449190810190611ecc565b611391565b005b610353611641565b604051610360919061244b565b60405180910390f35b610371611647565b60405161037e919061244b565b60405180910390f35b61038f61164d565b60405161039c91906122be565b60405180910390f35b6103bf60048036036103ba9190810190611e67565b611673565b6040516103d29796959493929190612559565b60405180910390f35b6103f560048036036103f09190810190611d9b565b6116c2565b005b610411600480360361040c9190810190611d72565b61199b565b60405161041f929190612466565b60405180910390f35b6104306119df565b60405161043d919061244b565b60405180910390f35b61044e6119e5565b60405161045b919061244b565b60405180910390f35b61047e60048036036104799190810190611d72565b6119eb565b005b61049a60048036036104959190810190611e67565b611abf565b6040516104ac96959493929190612363565b60405180910390f35b600b602052806000526040600020600091509050806000015490806001018054600181600116156101000203166002900480601f0160208091040260200160405190810160405280929190818152602001828054600181600116156101000203166002900480156105675780601f1061053c57610100808354040283529160200191610567565b820191906000526020600020905b81548152906001019060200180831161054a57829003601f168201915b5050505050908060020160009054906101000a900473ffffffffffffffffffffffffffffffffffffffff16908060030154905084565b600360009054906101000a900473ffffffffffffffffffffffffffffffffffffffff1673ffffffffffffffffffffffffffffffffffffffff163373ffffffffffffffffffffffffffffffffffffffff161461062d576040517f08c379a0000000000000000000000000000000000000000000000000000000008152600401610624906123cb565b60405180910390fd5b600554600d6000018190555081600d6001019080519060200190610652929190611bb3565b5080600d60020160006101000a81548173ffffffffffffffffffffffffffffffffffffffff021916908373ffffffffffffffffffffffffffffffffffffffff1602179055506000600d60030181905550600c600d908060018154018082558091505090600182039060005260206000209060040201600090919290919091506000820154816000015560018201816001019080546001816001161561010002031660029004610702929190611c33565b506002820160009054906101000a900473ffffffffffffffffffffffffffffffffffffffff168160020160006101000a81548173ffffffffffffffffffffffffffffffffffffffff021916908373ffffffffffffffffffffffffffffffffffffffff16021790555060038201548160030155505050600d600b60008373ffffffffffffffffffffffffffffffffffffffff1673ffffffffffffffffffffffffffffffffffffffff16815260200190815260200160002060008201548160000155600182018160010190805460018160011615610100020316600290046107e9929190611c33565b506002820160009054906101000a900473ffffffffffffffffffffffffffffffffffffffff168160020160006101000a81548173ffffffffffffffffffffffffffffffffffffffff021916908373ffffffffffffffffffffffffffffffffffffffff160217905550600382015481600301559050506005600081548092919060010191905055505050565b6000600254905090565b60015481565b6060600c805480602002602001604051908101604052809291908181526020016000905b828210156109e6578382906000526020600020906004020160405180608001604052908160008201548152602001600182018054600181600116156101000203166002900480601f01602080910402602001604051908101604052809291908181526020018280546001816001161561010002031660029004801561096e5780601f106109435761010080835404028352916020019161096e565b820191906000526020600020905b81548152906001019060200180831161095157829003601f168201915b505050505081526020016002820160009054906101000a900473ffffffffffffffffffffffffffffffffffffffff1673ffffffffffffffffffffffffffffffffffffffff1673ffffffffffffffffffffffffffffffffffffffff168152602001600382015481525050815260200190600101906108a8565b50505050905090565b600860006009600084815260200190815260200160002060020154815260200190815260200160002060030154600960008381526020019081526020016000206004015411610a73576040517f08c379a0000000000000000000000000000000000000000000000000000000008152600401610a6a9061240b565b60405180910390fd5b600860006009600084815260200190815260200160002060020154815260200190815260200160002060040154600960008381526020019081526020016000206005015410610af7576040517f08c379a0000000000000000000000000000000000000000000000000000000008152600401610aee906123eb565b60405180910390fd5b6009600082815260200190815260200160002060060160009054906101000a900460ff16610b2457600080fd5b60006003811115610b3157fe5b6003811115610b3c57fe5b600660008473ffffffffffffffffffffffffffffffffffffffff1673ffffffffffffffffffffffffffffffffffffffff16815260200190815260200160002060060160149054906101000a900460ff166003811115610b9757fe5b1415610c585780600660008473ffffffffffffffffffffffffffffffffffffffff1673ffffffffffffffffffffffffffffffffffffffff1681526020019081526020016000206004018190555060016003811115610bf157fe5b600660008473ffffffffffffffffffffffffffffffffffffffff1673ffffffffffffffffffffffffffffffffffffffff16815260200190815260200160002060060160146101000a81548160ff02191690836003811115610c4e57fe5b0217905550610d0f565b80600660008473ffffffffffffffffffffffffffffffffffffffff1673ffffffffffffffffffffffffffffffffffffffff1681526020019081526020016000206005018190555060026003811115610cac57fe5b600660008473ffffffffffffffffffffffffffffffffffffffff1673ffffffffffffffffffffffffffffffffffffffff16815260200190815260200160002060060160146101000a81548160ff02191690836003811115610d0957fe5b02179055505b5050565b600c8181548110610d2057fe5b9060005260206000209060040201600091509050806000015490806001018054600181600116156101000203166002900480601f016020809104026020016040519081016040528092919081815260200182805460018160011615610100020316600290048015610dd25780601f10610da757610100808354040283529160200191610dd2565b820191906000526020600020905b815481529060010190602001808311610db557829003601f168201915b5050505050908060020160009054906101000a900473ffffffffffffffffffffffffffffffffffffffff16908060030154905084565b6000600360009054906101000a900473ffffffffffffffffffffffffffffffffffffffff16905090565b60076020528060005260406000206000915090508060000154908060010160009054906101000a900473ffffffffffffffffffffffffffffffffffffffff16905082565b3373ffffffffffffffffffffffffffffffffffffffff166008600086815260200190815260200160002060050160009054906101000a900473ffffffffffffffffffffffffffffffffffffffff1673ffffffffffffffffffffffffffffffffffffffff1614610f1a576040517f08c379a0000000000000000000000000000000000000000000000000000000008152600401610f119061242b565b60405180910390fd5b6004600081548092919060010191905055506004546009600060045481526020019081526020016000206000018190555082600960006004548152602001908152602001600020600101819055508160096000600454815260200190815260200160002060030181905550600160096000600454815260200190815260200160002060060160006101000a81548160ff0219169083151502179055508060096000600454815260200190815260200160002060040181905550806009600060045481526020019081526020016000206005018190555050505050565b60066020528060005260406000206000915090508060000154908060010160009054906101000a900473ffffffffffffffffffffffffffffffffffffffff16908060020154908060030154908060040154908060050154908060060160009054906101000a900473ffffffffffffffffffffffffffffffffffffffff16908060060160149054906101000a900460ff16905088565b600360009054906101000a900473ffffffffffffffffffffffffffffffffffffffff1673ffffffffffffffffffffffffffffffffffffffff163373ffffffffffffffffffffffffffffffffffffffff161461111b576040517f08c379a0000000000000000000000000000000000000000000000000000000008152600401611112906123cb565b60405180910390fd5b600160008154809291906001019190505550600154600760008373ffffffffffffffffffffffffffffffffffffffff1673ffffffffffffffffffffffffffffffffffffffff1681526020019081526020016000206000018190555080600760008373ffffffffffffffffffffffffffffffffffffffff1673ffffffffffffffffffffffffffffffffffffffff16815260200190815260200160002060010160006101000a81548173ffffffffffffffffffffffffffffffffffffffff021916908373ffffffffffffffffffffffffffffffffffffffff1602179055507f23777a11fce19225f5430bfc9ad888a482375ec19fe7b1c8da227fad59eec366600160008154809291906001019190505582604051611238929190612466565b60405180910390a150565b600360009054906101000a900473ffffffffffffffffffffffffffffffffffffffff1673ffffffffffffffffffffffffffffffffffffffff163373ffffffffffffffffffffffffffffffffffffffff16146112d3576040517f08c379a00000000000000000000000000000000000000000000000000000000081526004016112ca906123cb565b60405180910390fd5b80600c83815481106112e157fe5b90600052602060002090600402016003016000828254019250508190555080600b6000600c858154811061131157fe5b906000526020600020906004020160020160009054906101000a900473ffffffffffffffffffffffffffffffffffffffff1673ffffffffffffffffffffffffffffffffffffffff1673ffffffffffffffffffffffffffffffffffffffff168152602001908152602001600020600301600082825401925050819055505050565b600360009054906101000a900473ffffffffffffffffffffffffffffffffffffffff1673ffffffffffffffffffffffffffffffffffffffff163373ffffffffffffffffffffffffffffffffffffffff1614611421576040517f08c379a0000000000000000000000000000000000000000000000000000000008152600401611418906123cb565b60405180910390fd5b60026000815480929190600101919050555081600860006002548152602001908152602001600020600001908051906020019061145f929190611bb3565b50600254600860006002548152602001908152602001600020600101819055508260086000600254815260200190815260200160002060040181905550836008600060025481526020019081526020016000206003018190555084600860006002548152602001908152602001600020600201819055508060086000600254815260200190815260200160002060050160006101000a81548173ffffffffffffffffffffffffffffffffffffffff021916908373ffffffffffffffffffffffffffffffffffffffff160217905550600254600a60008373ffffffffffffffffffffffffffffffffffffffff1673ffffffffffffffffffffffffffffffffffffffff1681526020019081526020016000206000018190555080600a60008373ffffffffffffffffffffffffffffffffffffffff1673ffffffffffffffffffffffffffffffffffffffff16815260200190815260200160002060010160006101000a81548173ffffffffffffffffffffffffffffffffffffffff021916908373ffffffffffffffffffffffffffffffffffffffff1602179055507ff85f64e777f733197135d845dd7389f9072b8949f4d6365db8eb8bb793448fe48260025487878786604051611632969594939291906122fb565b60405180910390a15050505050565b60045481565b60055481565b600360009054906101000a900473ffffffffffffffffffffffffffffffffffffffff1681565b60096020528060005260406000206000915090508060000154908060010154908060020154908060030154908060040154908060050154908060060160009054906101000a900460ff16905087565b6000602060ff16116116d357600080fd5b6000600760003373ffffffffffffffffffffffffffffffffffffffff1673ffffffffffffffffffffffffffffffffffffffff168152602001908152602001600020600001541161172257600080fd5b6000808154809291906001019190505550600054600660008473ffffffffffffffffffffffffffffffffffffffff1673ffffffffffffffffffffffffffffffffffffffff1681526020019081526020016000206000018190555081600660008473ffffffffffffffffffffffffffffffffffffffff1673ffffffffffffffffffffffffffffffffffffffff16815260200190815260200160002060010160006101000a81548173ffffffffffffffffffffffffffffffffffffffff021916908373ffffffffffffffffffffffffffffffffffffffff16021790555033600660008473ffffffffffffffffffffffffffffffffffffffff1673ffffffffffffffffffffffffffffffffffffffff16815260200190815260200160002060060160006101000a81548173ffffffffffffffffffffffffffffffffffffffff021916908373ffffffffffffffffffffffffffffffffffffffff160217905550600760003373ffffffffffffffffffffffffffffffffffffffff1673ffffffffffffffffffffffffffffffffffffffff16815260200190815260200160002060000154600660008473ffffffffffffffffffffffffffffffffffffffff1673ffffffffffffffffffffffffffffffffffffffff168152602001908152602001600020600301819055506000600660008473ffffffffffffffffffffffffffffffffffffffff1673ffffffffffffffffffffffffffffffffffffffff168152602001908152602001600020600401819055506000600660008473ffffffffffffffffffffffffffffffffffffffff1673ffffffffffffffffffffffffffffffffffffffff168152602001908152602001600020600501819055505050565b600a6020528060005260406000206000915090508060000154908060010160009054906101000a900473ffffffffffffffffffffffffffffffffffffffff16905082565b60025481565b60005481565b600360009054906101000a900473ffffffffffffffffffffffffffffffffffffffff1673ffffffffffffffffffffffffffffffffffffffff163373ffffffffffffffffffffffffffffffffffffffff1614611a7b576040517f08c379a0000000000000000000000000000000000000000000000000000000008152600401611a72906123cb565b60405180910390fd5b80600360006101000a81548173ffffffffffffffffffffffffffffffffffffffff021916908373ffffffffffffffffffffffffffffffffffffffff16021790555050565b6008602052806000526040600020600091509050806000018054600181600116156101000203166002900480601f016020809104026020016040519081016040528092919081815260200182805460018160011615610100020316600290048015611b6b5780601f10611b4057610100808354040283529160200191611b6b565b820191906000526020600020905b815481529060010190602001808311611b4e57829003601f168201915b5050505050908060010154908060020154908060030154908060040154908060050160009054906101000a900473ffffffffffffffffffffffffffffffffffffffff16905086565b828054600181600116156101000203166002900490600052602060002090601f016020900481019282601f10611bf457805160ff1916838001178555611c22565b82800160010185558215611c22579182015b82811115611c21578251825591602001919060010190611c06565b5b509050611c2f9190611cba565b5090565b828054600181600116156101000203166002900490600052602060002090601f016020900481019282601f10611c6c5780548555611ca9565b82800160010185558215611ca957600052602060002091601f016020900482015b82811115611ca8578254825591600101919060010190611c8d565b5b509050611cb69190611cba565b5090565b611cdc91905b80821115611cd8576000816000905550600101611cc0565b5090565b90565b600081359050611cee81612769565b92915050565b600081359050611d0381612780565b92915050565b600082601f830112611d1a57600080fd5b8135611d2d611d28826125f5565b6125c8565b91508082526020830160208301858383011115611d4957600080fd5b611d54838284612709565b50505092915050565b600081359050611d6c81612797565b92915050565b600060208284031215611d8457600080fd5b6000611d9284828501611cdf565b91505092915050565b60008060408385031215611dae57600080fd5b6000611dbc85828601611cdf565b9250506020611dcd85828601611cf4565b9150509250929050565b60008060408385031215611dea57600080fd5b6000611df885828601611cdf565b9250506020611e0985828601611d5d565b9150509250929050565b60008060408385031215611e2657600080fd5b600083013567ffffffffffffffff811115611e4057600080fd5b611e4c85828601611d09565b9250506020611e5d85828601611cdf565b9150509250929050565b600060208284031215611e7957600080fd5b6000611e8784828501611d5d565b91505092915050565b60008060408385031215611ea357600080fd5b6000611eb185828601611d5d565b9250506020611ec285828601611d5d565b9150509250929050565b600080600080600060a08688031215611ee457600080fd5b6000611ef288828901611d5d565b9550506020611f0388828901611d5d565b9450506040611f1488828901611d5d565b935050606086013567ffffffffffffffff811115611f3157600080fd5b611f3d88828901611d09565b9250506080611f4e88828901611cdf565b9150509295509295909350565b60008060008060808587031215611f7157600080fd5b6000611f7f87828801611d5d565b9450506020611f9087828801611d5d565b9350506040611fa187828801611d5d565b9250506060611fb287828801611d5d565b91505092959194509250565b6000611fca838361223d565b905092915050565b611fdb81612692565b82525050565b611fea81612692565b82525050565b6000611ffb82612631565b612005818561265f565b93508360208202850161201785612621565b8060005b8581101561205357848403895281516120348582611fbe565b945061203f83612652565b925060208a0199505060018101905061201b565b50829750879550505050505092915050565b61206e816126a4565b82525050565b61207d816126b0565b82525050565b61208c816126f7565b82525050565b600061209d82612647565b6120a78185612681565b93506120b7818560208601612718565b6120c08161274b565b840191505092915050565b60006120d68261263c565b6120e08185612670565b93506120f0818560208601612718565b6120f98161274b565b840191505092915050565b600061210f8261263c565b6121198185612681565b9350612129818560208601612718565b6121328161274b565b840191505092915050565b600061214a600e83612681565b91507f4e6f7420617574686f72697365640000000000000000000000000000000000006000830152602082019050919050565b600061218a601083612681565b91507f696e76616c69642b6d61785f74656d70000000000000000000000000000000006000830152602082019050919050565b60006121ca601083612681565b91507f696e76616c69645f6d696e5f74656d70000000000000000000000000000000006000830152602082019050919050565b600061220a600c83612681565b91507f696e76616c6964207573657200000000000000000000000000000000000000006000830152602082019050919050565b600060808301600083015161225560008601826122a0565b506020830151848203602086015261226d82826120cb565b91505060408301516122826040860182611fd2565b50606083015161229560608601826122a0565b508091505092915050565b6122a9816126ed565b82525050565b6122b8816126ed565b82525050565b60006020820190506122d36000830184611fe1565b92915050565b600060208201905081810360008301526122f38184611ff0565b905092915050565b600060c08201905081810360008301526123158189612092565b905061232460208301886122af565b61233160408301876122af565b61233e60608301866122af565b61234b60808301856122af565b61235860a0830184611fe1565b979650505050505050565b600060c082019050818103600083015261237d8189612104565b905061238c60208301886122af565b61239960408301876122af565b6123a660608301866122af565b6123b360808301856122af565b6123c060a0830184611fe1565b979650505050505050565b600060208201905081810360008301526123e48161213d565b9050919050565b600060208201905081810360008301526124048161217d565b9050919050565b60006020820190508181036000830152612424816121bd565b9050919050565b60006020820190508181036000830152612444816121fd565b9050919050565b600060208201905061246060008301846122af565b92915050565b600060408201905061247b60008301856122af565b6124886020830184611fe1565b9392505050565b6000610100820190506124a5600083018b6122af565b6124b2602083018a611fe1565b6124bf6040830189612074565b6124cc60608301886122af565b6124d960808301876122af565b6124e660a08301866122af565b6124f360c0830185611fe1565b61250060e0830184612083565b9998505050505050505050565b600060808201905061252260008301876122af565b81810360208301526125348186612104565b90506125436040830185611fe1565b61255060608301846122af565b95945050505050565b600060e08201905061256e600083018a6122af565b61257b60208301896122af565b61258860408301886122af565b61259560608301876122af565b6125a260808301866122af565b6125af60a08301856122af565b6125bc60c0830184612065565b98975050505050505050565b6000604051905081810181811067ffffffffffffffff821117156125eb57600080fd5b8060405250919050565b600067ffffffffffffffff82111561260c57600080fd5b601f19601f8301169050602081019050919050565b6000819050602082019050919050565b600081519050919050565b600081519050919050565b600081519050919050565b6000602082019050919050565b600082825260208201905092915050565b600082825260208201905092915050565b600082825260208201905092915050565b600061269d826126cd565b9050919050565b60008115159050919050565b6000819050919050565b60008190506126c88261275c565b919050565b600073ffffffffffffffffffffffffffffffffffffffff82169050919050565b6000819050919050565b6000612702826126ba565b9050919050565b82818337600083830152505050565b60005b8381101561273657808201518184015260208101905061271b565b83811115612745576000848401525b50505050565b6000601f19601f8301169050919050565b6004811061276657fe5b50565b61277281612692565b811461277d57600080fd5b50565b612789816126b0565b811461279457600080fd5b50565b6127a0816126ed565b81146127ab57600080fd5b5056fea365627a7a7231582076ed146d8aa6dea8c2d53f802dbc2254fb3b5a3b4ee03f5f3c18bb703f06487f6c6578706572696d656e74616cf564736f6c63430005100040",
  "source": "pragma solidity ^0.5.16;\r\npragma experimental ABIEncoderV2;\r\n\r\ncontract vaccine{\r\n    uint public total_registration;\r\n    uint public center_counts;\r\n    uint public types_counts;\r\n    address public _owner;\r\n    uint public vaccines_counts;\r\n    uint public states_count;\r\n\r\n    \r\n    enum completion {notregister,registred, pending , Completed}\r\n    enum stages {registered ,first_vaccine,second_vaccine,completed}\r\n    \r\n    struct benificiary{\r\n        uint benificiary_id;\r\n        address benificiary_add;\r\n        bytes32 medical_records;\r\n        uint medical_center;\r\n        uint vaccine_id_1;\r\n        uint vaccine_id_2;\r\n        address medical_reprentative;\r\n        stages status;\r\n    }\r\n    \r\n    struct medical_center{\r\n        uint center_id;\r\n        address medical_representative;\r\n    }\r\n    \r\n    struct vaccine_type{\r\n        string name;\r\n        uint company_id;\r\n        uint valid_days;\r\n        uint temp_min;\r\n        uint temp_max;\r\n        address company_add;\r\n    }\r\n    \r\n    struct vaccines{\r\n        uint id;\r\n        uint batch;\r\n        uint company_id;\r\n        uint manunfactured_date;\r\n        uint temp_min;\r\n        uint temp_max;\r\n        bool valid;\r\n    }\r\n    \r\n    struct manager{\r\n        uint company_id;\r\n        address manager_add;\r\n    }\r\n\r\n\r\n    struct state{\r\n        uint id;\r\n        string name;\r\n        address state_add;\r\n        uint allocation;\r\n    }\r\n\r\n    event _state(\r\n        uint id,\r\n        string name,\r\n        address state_add,\r\n        uint allocation\r\n    );\r\n\r\n    event _benificiary(\r\n        uint benificiary_id,\r\n        address benificiary_add,\r\n        bytes32 medical_records,\r\n        uint medical_center,\r\n        uint vaccine_id_1,\r\n        uint vaccine_id_2,\r\n        address medical_reprentative,\r\n        stages status\r\n    );\r\n    \r\n    event _medical_center(\r\n        uint center_id,\r\n        address medical_representative\r\n    );\r\n    \r\n    event _vaccine_type(\r\n        string name,\r\n        uint company_id,\r\n        uint valid_days,\r\n        uint temp_min,\r\n        uint temp_max,\r\n        address company_add\r\n    );\r\n    \r\n    event _vaccine(\r\n        uint id,\r\n        uint batch,\r\n        uint company_id,\r\n        uint manunfactured_date,\r\n        uint temp_min,\r\n        uint temp_max,\r\n        bool valid\r\n    );\r\n    \r\n    event _manager(\r\n        uint company_id,\r\n        address manager_add\r\n    );\r\n    \r\n    \r\n    \r\n    modifier onlyOwner {\r\n        require(msg.sender == _owner,'Not authorised');\r\n        _;\r\n    }\r\n    \r\n    \r\n    mapping(address=>benificiary) public _benificiaries;\r\n    mapping(address => medical_center) public _medical_representatives;\r\n    mapping(uint => vaccine_type) public _vaccine_types;\r\n    mapping(uint => vaccines) public _vaccines;\r\n    mapping(address => manager) public _managers;\r\n    mapping(address => state) public states;\r\n\r\n    state[] public stateInfo;\r\n    state private stateTemp;\r\n    \r\n    constructor() public\r\n    {\r\n        _owner = msg.sender;\r\n        center_counts = 0;\r\n        total_registration = 0;\r\n        types_counts = 0;\r\n        vaccines_counts = 0;\r\n        states_count = 0;\r\n    }\r\n    \r\n    \r\n    function transferOwnership(address benificiary_add) public onlyOwner\r\n    {\r\n        _owner = benificiary_add;\r\n    }\r\n    \r\n   // function update_medical_representative(address representative_add,address )\r\n    function View_Owner() public view returns(address){\r\n        return _owner;\r\n    }\r\n\r\n    function View_types_Count() public view returns(uint){\r\n        return types_counts;\r\n    }\r\n    \r\n    function register_state(string memory name,address state_add)public onlyOwner\r\n    {\r\n        stateTemp.id = states_count;\r\n        stateTemp.name = name;\r\n        stateTemp.state_add = state_add;\r\n        stateTemp.allocation = 0;\r\n        stateInfo.push(stateTemp);\r\n        states[state_add] = stateTemp;\r\n        states_count++;\r\n    }\r\n\r\n    function update_state(uint state_id,uint newOrder)public onlyOwner\r\n    {\r\n        stateInfo[state_id].allocation+=newOrder;\r\n        states[stateInfo[state_id].state_add].allocation+=newOrder;\r\n    }\r\n\r\n\r\n    function getAllStatesInfo() public view returns (state[] memory)\r\n    {\r\n        return stateInfo;\r\n    }\r\n\r\n\r\n    function register_company(uint period,uint temp_min,uint temp_max,string memory name,address company_add)public onlyOwner\r\n    {\r\n        types_counts++;\r\n        _vaccine_types[types_counts].name = name;\r\n        _vaccine_types[types_counts].company_id = types_counts;\r\n        _vaccine_types[types_counts].temp_max = temp_max;\r\n        _vaccine_types[types_counts].temp_min = temp_min;\r\n        _vaccine_types[types_counts].valid_days = period;\r\n        _vaccine_types[types_counts].company_add = company_add;\r\n        _managers[company_add].company_id =types_counts;\r\n        _managers[company_add].manager_add = company_add;\r\n         emit _vaccine_type(name,types_counts,period,temp_min,temp_max,company_add);\r\n    }\r\n    \r\n    \r\n    function vaccine_registration(uint company_id,uint batch,uint time,uint cur_temp)public\r\n    {\r\n        require(_vaccine_types[company_id].company_add == msg.sender,\"invalid user\");\r\n        vaccines_counts++;\r\n        _vaccines[vaccines_counts].id = vaccines_counts;\r\n        _vaccines[vaccines_counts].batch = batch;\r\n        _vaccines[vaccines_counts].manunfactured_date = time;\r\n        _vaccines[vaccines_counts].valid = true;\r\n        _vaccines[vaccines_counts].temp_min = cur_temp;\r\n        _vaccines[vaccines_counts].temp_max = cur_temp;\r\n    }\r\n    \r\n    \r\n    function register_benificiary(address benificiary_add,bytes32 record_hash) public\r\n    {\r\n        require(record_hash.length > 0);\r\n        require(_medical_representatives[msg.sender].center_id > 0);\r\n        total_registration++;\r\n        _benificiaries[benificiary_add].benificiary_id = total_registration;\r\n        _benificiaries[benificiary_add].benificiary_add = benificiary_add;\r\n        _benificiaries[benificiary_add].medical_reprentative = msg.sender;\r\n        _benificiaries[benificiary_add].medical_center = _medical_representatives[msg.sender].center_id;\r\n        _benificiaries[benificiary_add].vaccine_id_1 = 0;\r\n        _benificiaries[benificiary_add].vaccine_id_2 = 0;\r\n        \r\n        \r\n    }\r\n    \r\n    function register_medical_representative(address representative_add)public onlyOwner\r\n    {\r\n        center_counts++;\r\n        _medical_representatives[representative_add].center_id = center_counts;\r\n        _medical_representatives[representative_add].medical_representative = representative_add;\r\n        \r\n        emit _medical_center(center_counts++, representative_add);\r\n    }\r\n    \r\n    function vaccinate(address benificiary_add,uint vaccine_id)public\r\n    {\r\n         require(_vaccines[vaccine_id].temp_min > _vaccine_types[_vaccines[vaccine_id].company_id].temp_min,'invalid_min_temp');\r\n         require(_vaccines[vaccine_id].temp_max < _vaccine_types[_vaccines[vaccine_id].company_id].temp_max,'invalid+max_temp');\r\n         require(_vaccines[vaccine_id].valid);\r\n         if(_benificiaries[benificiary_add].status == stages(0))\r\n         {\r\n            _benificiaries[benificiary_add].vaccine_id_1 = vaccine_id;\r\n            _benificiaries[benificiary_add].status = stages(1);\r\n         }\r\n         else \r\n         {\r\n            _benificiaries[benificiary_add].vaccine_id_2 = vaccine_id;   \r\n            _benificiaries[benificiary_add].status = stages(2);\r\n         }\r\n     }\r\n    \r\n    \r\n}",
  "sourcePath": "D:/College/SEM 8/major project/contracts/vaccine.sol",
  "compiler": {
    "name": "solc",
    "version": "0.5.16+commit.9c3226ce.Emscripten.clang"
  },
  "schemaVersion": "3.2.4",
  "updatedAt": "2021-04-30T16:36:11.005Z",
  "networkType": "ethereum",
  "devdoc": {
    "methods": {}
  },
  "userdoc": {
    "methods": {}
  }
}